:020000041000EA
:4000000000400208230100100D00000085010010000000000000000000000000000000000000000000000000000000008101001000000000000000008101001081010010E9
:400040008101001081010010810100108101001081010010810100108101001081010010810100108101001081010010810100108101001081010010810100108101001060
:400080008101001081010010810100108101001081010010810100108101001081010010810100108101001081010010810100108101001081010010810100108101001020
:4000C00010B5064C2378002B07D1054B002B02D0044800E000BF0123237010BD0C2B000800000000C4C30010084B10B5002B03D00749084800E000BF07480368002B00D1AE
:4001000010BD064B002BFBD09847F9E700000000102B0008C4C3001070050008000000007047FFF7FDFF72B60F4C104DAC4209DA21686268A368043B02DBC858D050FAE7A0
:400140000C34F3E70A490B4A0020521A02DD043A8850FCDC084809490860BFF34F8F00F05FFA00F0BBF8FEE714D802102CD802100C2B00080C5500080000000808ED00E060
:40018000FEE7FEE700B504207146084202D0EFF3098001E0EFF30880043003F0D3F9FEE730B58FB001AC02221C49200006F061FD6378002B02D11A4AD35C00E00023022BD1
:4001C0002AD10BAB12221A81164A0B9214229A8006AC220023CB23C20023A38102220F492620684406F045FD00232374200014F08DF80D4B1B68002B0ED002AC0BAB2000D3
:4002000026CB26C00222054906F033FD200013F0DBF9064B5A881A800FB030BDA4540008B05400086854000864540008C000000870B586B00C00254B98420CD004D880237B
:400240005B01984207D03FE0214B98420BD0214B98420BD038E000221F4B1A600021002003F08AFE30E0FFF79BFF2DE00B89122B11D101A803000A0062CA62C300238381A8
:40028000A389C3814023037414F040F8002802D1E06813F0A7F92389132B15D101A80300220062CA62C300238381A389C3814023037414F02BF823681B7801221340064A67
:4002C0001360E06813F08EF906B070BD08400000015000000C50000064540008F0B54F464646C0B483B000F095FE62B6554800F01DFA554B1B68732294469A5C03210C00BD
:4003000094407027DA5D7226985D150085402800204301242240024380252D062A438020C0009C6822509C68225862469A5C91400A00D95D9E5DB1400A432A4322509B68FA
:400340001B5804F003FF414B1B68586800230222002107F02FF93E4800F03AFE0121002000F030FA032000F047FB3A4C0021200000F034FB102000F0C1FB0021200000F06C
:400380002FFB002514E0630018196A005219D300C318314AD31800225A54013100E000210229F0DD013400E00024072CF7DD0135FF2DF9DD294BEE221A70193A5A700023BC
:4003C0009946254B264A0021002000F06BFA0023984633E043466A46D371D3791F4A93704B46D3704B460133DBB29946002514E02F1D43469E000321280004F04DFF3418F6
:400400000321280005F02EF86000041912480419635CDBB2114AD35501350B2DE8DD0F4BAD221A744D325A74FFF7BAFE2CF0BCFD002002F0AFFF01239C46E0444346012B39
:40044000C8DDBEE700000810A05400082C05000831020010E4000008643C000868540008603C000810B5002001F00AFA10BDC04670B56249E0239B00CB580F2213401A00CA
:40048000D0329200525807210A40032A05D0042A06D0002A12D15A4814E05A4A106811E01A00C0329200554952581F210A40112A06D0132A04D0FA20C00103E0524801E00B
:4004C00080200002002B36D14C4BB222D2009A5801211140B125ED005A59120F032422405B591B0F1C4207D0444C63591B0F03242340012B02D102E0012300E00023002B20
:4005000001D0002901D1032A4BD13C4BB022D2009D58AD03AD0B3D495958C904C90C9C58240E01231C40013404F02CFE6843210004F028FE35E0012B33D1304BC822D200EA
:400540009A5801251540C024E4001A59120F03210A401B591B0F194207D028490B591B0F03210B40012B02D102E0012300E00023002B01D0002D01D1032A12D11F4DC022A5
:40058000D200AB587F210B40A958090A1F263140AC58240C3440584304F0F4FD210004F0F1FDE0239B00154AD3581B0903221340D840144C6060164B1D692D0AFC321540E9
:4005C00001351969090E013104F0DCFDA060290004F0D8FD0500E06020610E4BC0180E4904F0D0FD20750D4BE818FA21890004F0C9FDA061C003E06170BDC0460000264043
:4006000000127A00C400000800366E0184050000000021403F420F0040420F00E703000010B5284803F060F8274CB022D200A3585B005B08A350E02189006358302083432A
:40064000635080235B04A350204A214BE250A02292010433E250FF221E4BE25001F0D0FBC0225200A35801218B43A35000F008FCFFF7FEFEB0235B055B78002B04D0B023C4
:400680005B055B78DBB200E02123212B03D1124B0022DA605A60114C22008021042000F04FFE2000103000F029FF0D4B1A685123D35C002B02D00B4800F096FF02F060F82E
:4006C00010BDC046B4AE00100000264001000200840500008C050000E0002340282B0008A0540008C09C00108023024AD3580320184070470000214010B502F0B6FF0849C2
:4007000080228C58074B2340074C23438B508823034AD358DB06FAD502F0ABFF10BDC04600002140FCFF00000100FA0570B50500830504D0E821FF310F4802F0CDFE02F087
:4007400094FF0400FFF7D0FF032801D1FFF7D4FF0A4AB0239B00D55080215058084B03400848034353508823044AD358DB06FAD5200002F07EFF70BDF49C001000002140C7
:40078000FCFF00000300FA05F8B505000F0016000B4C0100200000F021F9402039000143C8B200F0ABF9012000F0A8F9300000F0A5F92900200000F013F90020F8BDC04668
:4007C000E400000870B504000E00012000F034F9142000F00BF9012000F00EF9042000F02BF9142000F002F9042000F005F9FA20800000F0F7F82A4D2100280000F0EEF8E0
:40080000112000F07BF92100280000F0E9F8002E43D0002214212000FFF7B6FF962201212000FFF7B1FFD02202212000FFF7ACFF8C2203212000FFF7A7FF962000F0D2F832
:40084000602205212000FFF79FFF602206212000FFF79AFF602207212000FFF795FF602208212000FFF790FF602209212000FFF78BFF60220A212000FFF786FF60220B21DE
:400880002000FFF781FF60220C212000FFF77CFF202215212000FFF777FF002070BDC046E400000870B58AB0050001911C0001002E4800F093F82E4B1B69DB0601D4012344
:4008C00000E00023002BF6D12A4806F059FE274E03A9300000F0D0F82900300000F080F8002227236B441A7037E0019B5A00D318DA00A01827236B441A78D2B21978013179
:4009000003AD4E007118495D5600B2181154019A51008918CA00A1181878C2B21878013046003018281840785600B2188A185070019A51008918CA00A6181978CAB2187876
:40094000411C480041186918897850008218B21891701A780132D2B21A7027236B441B78DBB2082BC1D900200AB070BDE4000008800232400C9D001010B584B003AC2170B0
:40098000064806F0FDFD064B0093012300222100044801F0ABFB04B010BDC046189D00107C5400080000634030B583B00C00084B009301230A000021064801F097FB0500D5
:4009C0002178054806F0DCFD280003B030BDC0467C54000800006340189D00107047C0467047C04610B502F051FD10BD10B580B202F066FD10BDC04602280CD002D80128C0
:400A000005D013E003280AD004280CD00EE01022074B9A600AE01022064B9A6006E04022034B9A6002E02022014B9A607047C046000532408002324002280CD002D80128E3
:400A400005D013E003280AD004280CD00EE01022074B5A600AE01022064B5A6006E04022034B5A6002E02022014B5A607047C0460005324080023240F0B585B00090FF2320
:400A80000193FA26B600002702ABD91D0098FFF78BFF0400164806F073FD002C1CD1FA24A4001449144801F0DDFB0500012002F0EDFC013CEB0701D5002CF2D186231B010B
:400AC0001D4209D102AB07331B78FF2B04D00137192F01D100230193012002F0D7FC013E182F01D8002ECFD1019805B0F0BDC0461C9D00107C5400080000634070B50100BE
:400B00000C48FFF739FF061E0ED1FA24A4000A490A4801F0A7FB0500012002F0B7FC013CEB0701D5002CF2D13100054806F028FDFF2070BDE40000087C540008000063402B
:400B40002C9D001010B504002100034801F06AF90028F9D010BDC04600006640C2239B00034AD358DB05F9D0D0239B00D058704700006640FEE7C046F0B50025002711E028
:400B8000BB00C658F3B2FF22964308E06A008A181478A419527822700135013BDBB2002BF4D10137022FEBD9F0BDC04610B50A00002106F067F810BD10B506F05AF810BD69
:400BC00030B587B09D49A022D2008B58032083438B509B4A116808688823CB58C31818689849084018601368186884241B59C01803681B021B0A80256D042B430360106825
:400C000005680359EB1818680140196013683E229A5C002A06D08948E02189004258753CA24342503E229A5C002A06D08348E021890042583024A24342503E229B5C002B2E
:400C400007D07E49E02292008B588020000603438B500021012000F02BFE0021022000F027FE0021032000F023FE0021042000F01FFE0021002000F01BFE01A8724903008D
:400C80000A0032CA32C312CA12C300F065FE002802D00420FFF76EFF68496C4A8B588020000603438B506A4800F010FF002802D00420FFF75FFF614C664BE158664A0A40EF
:400CC000E250E158654A0A40E250E25880252D062A43E250043BE158614A0A40E250E158604A0A40802189010A43E250E258802109020A43E2505C4A11685C4B0B40802120
:400D000049000B431360002002F0B6FC584BE2581543E550E158012291430A43E2506421002002F027FC464B1B683F229A5C022A06D970229A5C01210A404E49986842507F
:400D40009A6874215B5AD21851683E4B0B40B82149010B4353603A4B1B6873229A5C0321914070229A5C7220185C140084402143012002400A43802109060A438021C90023
:400D8000986842509A6852583F229A5C052A06D970229A5C02210A403749986842509A6874215B5AD2189168264B0B408C2189010B439360224B1B6873229A5C03219140B6
:400DC00070229A5C7220185C140084402143022002400A43802109060A438021C900986842509A6852583F229A5C092A03D90021224A986881509A6874215B5AD218116860
:400E0000104B0B40B02109010B4313600C4B1A687323D15C703B8B4019007023D35C7220105C83400B43802109060B438021C9009068435093685B5807B030BD00002640C9
:400E4000A0540008FF00FFFF3C9D0010087F0000400D030004050000FEFCFFFFFFFF00FFFFF0FFFFFF8FFFFF00002740FFFCFFFF0C050000080C0000140C0000240C00006D
:400E800070B58AB09621002002F074FB02F04AFB002801D102F036FB012002F095F93E4A516C3E4B0B40E82189010B435364536C1B0AFF2213403A2B07D1374A516C384B9F
:400EC0000B40E82189010B435364FFF779FE354A354B1A6000240CE0620012195300334AD318198B9A8AD88A00041043FFF75EFE01340B2CF0D900240AE06200121993009B
:400F00002A4AD3185A6E196ED86DFFF755FE0134112CF2D9264D2900343128004030FFF72BFE244A1368832149000B43136001AC22002B004C3343CB43C243CB43C243CB3C
:400F400043C221001C4801F027FD22002B00703323CB23C223CB23C223CB23C22100174801F01AFD2200164B143323CB23C223CB23C223CB23C22100124801F00DFD2422E2
:400F80000021200005F07EFE0F4BE36021000F4801F002FD0AB070BD00002740FF00FFFFFFC5FFDF0300FA05F00121403C9D00103C9E001000793440800232400003324010
:400FC000BC9E001080043240EEEE66060005324010B5002814D00B4BD8620B4B1B78002B08D10848094B436302F0EEFB0122064B1A7000E00020002803D102F013FC00E084
:40100000034810BDE8000008B82C0008349D00100100160010B50C4B1B78002B0CD10B4C0B4A0C49200000F011FF226A0A4B134023620122044B1A70044A136880210906BE
:401040000B43136010BDC046E02C0008000063407C540008F8A90010FFFFFFF370B505000C001A4B1B6828229A5C012A15D1820807211000884327D19200AD1AED00FF2053
:40108000A8401B6820339A181168AC4023004B40184004004C40146016E03A229B5EDBB2994203D176210A4802F016FA074B1B681B680722154080221206154380229201C2
:4010C00094466444A400E55070BDC046A05400082CAA001070B504000D000B4B9A680B4B9A420CD1002904D13821FF31084802F0F3F91034054BA400E058E55003E0103462
:40110000A400044BE05870BD00ED00E0000000082CAA001000000010F0B5474680B482B0061E01914AD04368032B03D93221264802F0D2F90023F05E002804DBB178FFF75A
:401140008DFF002400E0214C0023F15E7368002912DB88081E4FC0308000C55903221140C900FC3290468A4095439A01434613408B402B43C35116E089B20F220A40083AED
:4011800092080632920013481018476803221140C900FF252A008A4097439A012B0013408B403B4343600B4B9A680B4B9A4206D10023F05E0199FFF78DFF00E0034C200026
:4011C00002B004BC9046F0BD2CAA00100100560000E100E000ED00E00000000870B504000D000A4B1A68B423D3581B181B68002B0ADA0B0C03D00649064802F06DF92D0443
:401200002D0C6560002000E0034870BDA0540008D502000070AA001001008A0070B505000C000368002B01DA002300E0084B002B0BD1EA60230C03D00649074802F04CF98B
:401240002404240CAC60002000E0014870BDC04601008A00BB02000070AA001070B505000C1E03D19921084802F036F9074B1A68B423D3585B191B68002B03DAEB6823601E
:40128000002000E0024870BDB0AA0010A054000801008A0070B504000D00234B1A683123D35C834236D9002936D00B68DB0635D13123D35C984204D3C421FF311B4802F022
:4012C0000BF9194B1B681A6AB0215B5A5C431419174E34602B68DA080021686805F0D2FC00212000FFF77AFF3468002D03D111490E4802F0F1F82A0000212000FFF78EFF45
:4013000000280DD10A4B18680021FFF767FF002808D108E0084806E0074804E0064802E0064800E0054870BDA054000870AA0010E42C00089303000003018A0001018A003D
:4013400010B50400002A17D1002915D1124B1A683123D35C984204D3C421FF310F4802F0BBF80D4B1B681A6AB0215B5A5C4314190B4B1C6000200EE0002A09D0002909D0C9
:40138000074B59609A60191D2000FFF783FF02E0044800E0034810BDA054000870AA0010E42C000803018A00F0B583B00D001C4B1B68DC68236883422DD947097B01C01A59
:4013C000012383401E00002903D102F04EF9019001E000230193124B18680368002B01DA002300E00F4B002B0ED16368BF00DF193B68334203D133433B60002400E00A4CFB
:401400000021FFF7EBFE00E0084C002D04D1019802F02FF900E0064C200003B0F0BDC046E42C000801008A00020188000301880004018A00F0B583B00D001C4B1B68DC68AF
:40144000236883422DD947097B01C01A012383401E00002903D102F008F9019001E000230193124B18680368002B01DA002300E00F4B002B0ED16368BF00DF193B68334203
:4014800003D0B3433B60002400E00A4C0021FFF7A5FE00E0084C002D04D1019802F0E9F800E0064C200003B0F0BDC046E42C000801008A00020188000301880004018A0011
:4014C0000A4B1B68DA68136883420BD943095901401A0121814052689B009B580B4203D0034802E0034800E003487047E42C00080101880004018A0000018800034B1B687E
:40150000002B01D1014B18607047C046F02C0008F0B5474680B404000F0090461E002D4B1B68002B03D1B5212B4801F0D5FF294B1B682C2060431C18FF221500354025604A
:40154000330A13406360360CA660244B1A683123D35C9D4204D3C421FF31214801F0BCFF1E4B1A68B023D35A6B43116A8C466344236166683223D35C9E4204D3E021FF3131
:40158000174801F0A9FF154B1B681D6A80367601AD196561A668330C04D0FF214900104801F09AFF330C03D00E490D4801F094FF3604330C1E43AE604346E3612762002301
:4015C000A361069B002B02D000229B5EA38104BC9046F0BDF02C0008F0AA0010A054000870AA0010FF010000F0B58FB0041E03D15221294801F070FF6368032B03D954216B
:40160000254801F069FFE36A002B03D15821224801F062FF236B002B03D159211E4801F05BFF07AA1300210061C961C321C921C302AD290023001433C1CBC1C141CB41C14C
:401640000821535E0CAE3380144B1B6836215B5E07998C466344B370089B0D930B9B0A980096A26AE16AFFF753FF2B69E868002200920021FFF74CFF216B3000FFF74CFD40
:401680000023F25E002A05DB1F231A401E3B9340034A13600FB0F0BDF0AA0010A054000800E100E0F8B505000F0016001C00002A03D1FD21224801F00FFF224B1B68002BBF
:4016C00003D1FE211E4801F007FF1E4B1B682C2128004843181879435918012213004D68AB401B044568AA4015000269002A20D08F69002F1FD11268002A01DA002200E093
:40170000114A002A19D132681204120C134333600369DE6001238B614C6204692B0C03D00A490B4801F0D8FE2A04120CA260002004E0084802E0084800E00748F8BDC04679
:40174000F0AA0010F02C000801008A00BB02000070AA001004028A0007028A0070B504000D0016000F4B1B68002B04D1AF2149000D4801F0B1FE0B4B1B682C2060431C18D3
:40178000236A002B04D1B1214900074801F0A4FEE369B34204D9236AB6009D51002000E0024870BDF02C0008F0AA00100A028A0070B582B0040000230193002804D1D22173
:4017C000FF312D4801F088FE2369002B04D1E9214900294801F080FE6369002B04D1D421FF31254801F078FE236A002B04D1EA214900214801F070FE6269D5682B0C24D06D
:401800001B041360136820691C4B1A68B423D358C3181B68002B18DA01A9FFF71FFD00280ED1019803681E0CFF221340E269934207D29B00226AD358002B02D0984700E040
:40184000002631002069FFF7C9FC2D042D0C0FD063691D601B68636A002B03D098470023636203E0A36A002B00D098470023A36163691B6802B070BDF0AA0010A054000861
:4018800010B50400084B1B68002B04D1B221FF31064801F021FE044B1B682C2060431818FFF786FF10BDC046F02C0008F0AA0010134B1A683C23D35C83421DD9042904D9E8
:4018C0004B1EFF3B9BB2132B18D8FF290CD91F2319400C4A0300C0339B009950D03080000423835000200AE007231940D0308000044BC150002002E0034800E0024870473D
:40190000A05400080000264001004A0010B504000E4B1A683C23D35C834204D8912149000B4801F0D9FD2300D0339B00094A985807231840042807D1C034A400A3581B30AA
:40194000184080235B00184310BDC046A054000830AB00100000264070B5041E03D14A494A4801F0B9FDB023DB00494AD358002B00DA87E0474B22689A4203D946494348E9
:4019800001F0AAFD23689B039B0BE279002A02D08022520400E000221343B022D2003C498B50A2883D4B9A4204D984218900374801F092FD2289344B9A4203D9384933489F
:4019C00001F08AFDA388DB04D90C23891B04354A13400B43344A2E498B50A37A0F2B04D986218900294801F077FDE37A0F2B03D92E49264801F070FDA289284B9A4203D97F
:401A00002B49224801F068FDA37A0F211940E27A1201FF2313400B43A289120225490A401343A27B1207C02189050A401343B122D20017498B50A379042B03D91E4913483F
:401A400001F04AFD228A104B9A4204D9892189000E4801F041FD0E4818494558184B1D40A3791B02E022D20013402B4343504558144B1D40238A1B040A4A13402B43435074
:401A8000002000E0104870BDFF01000030AB001000002640FFFF030009020000FF1F0000110200000000FF0184050000190200001A02000000FF1F00230200008C0500007F
:401AC000FFF8FFFFFFFF00FE03004A0070B505003149324A8B588020000603438B502C0003E0012001F0ECFC013CB223DB002A4AD3585B0701D4002CF3D12749B122D2000D
:401B00008858274B03408020800503438B50002D01D0002C0CD02049B022D2008B588020000603438B5003E0012001F0C9FC013CB223DB00184AD358DB0701D4002CF3D132
:401B4000002D01D0002C08D01349B122D2008B58C020800503438B5013E00F4BB121C90058580F4A02408020800502435A5008395A58520052085A5008495A5852005208BA
:401B80005A50002D03D0002C03D0002002E0002000E0044870BDC046000026408C050000FFFFFFCF02004A00F0B5564CA04200D9A2E0A24200D9A1E0534B994200D99FE059
:401BC0000124524B1C70FF2805D80F2505400E340F26072321E04E4B984205D80F2303400F240026002518E0040A0F2323401D00484B984208D80001FF2318402B00034344
:401C0000FF240026002508E00402F020000120402B000343404C00260025FF2A0DD81201FF2002401543E020C0021843F0231E43F0231B0323439C4625E03548824207D886
:401C40001004F022120310401843224394461AE0100A0004F0273F03384018432D4B9A4209D81205F0231B0413401843FF231B0423439C4607E01206F0231B051A40104367
:401C8000264B23439C46264B1A68176AB023D45AE200131BFB181B68002BF4DA1B4B5B78002B04D01F4B204AD358002B18DA1F4A1F4B1A601F4A204B1A601B4AA324E40058
:401CC0001359B3431D4315511C4C13596546AB43184310510D4B5960124BD150002000E017480F4B1A68146AB023D15ACA00531AE31800225A6004E0114802E0104800E0E8
:401D00000F48F0BD0F060000FFFFFF00F42C0008FF040000FF0500000F0F000000000F0FA05400081C050000000026401F1F0000080126403D3D00000401264014050000F4
:401D400001004A0070B50022264B1A70264B1C68226AB023E55AEC00631BD3181C68002CF4DA224A1468224A944206D1214A1468214A944203D0002502E0002500E0012542
:401D8000A422D2001D4CA4582402240A00225A60002D24D0002C23D000280FD1114B58680A000023002103F083FB6208002380185941220003F05CFB040011E00A00002386
:401DC0002000002103F074FB064B5A685408002500196941002303F04BFB040000E00024200070BDF42C0008A0540008080126401F1F0000040126403D3D0000000026401C
:401E00000749C02252008B589B009B088020C00503438B508B588020000603438B5070470000264003681B0501D5802200E0402282239B00C358DB05DB0D934204D09023EC
:401E40009B00C150012000E000207047F8B505000C001700002800D133E1002900D132E10B78012B03D93F21994801F035FB6378012B07D9052B05D0022B03D040219448D9
:401E800001F02AFBA378032B03D94121904801F023FB2378012B07D16368023B0E2B03D943218B4801F018FB0F23A2699A4303D04421874801F010FBA368043B0C2B03D92D
:401EC0004521834801F008FBE368043B0C2B03D946217F4801F000FB6378022B07D0A368E268934203D04721794801F0F5FA6D23626A9A4303D04921754801F0EDFA732380
:401F0000E26A9A4303D04A21714801F0E5FA714B226B1A4203D04B216D4801F0DDFA6378A678012B05D0002B06D0022B03D0052B02D1022600E00026A368082B04D8E368BF
:401F4000082B03D9002302E0002300E00123002B02D08021090100E00021237F002B02D080235B0000E00023194363685A1E0F2313400B438022520413432B60226A2B6873
:401F80001B0501D5802300E040239A4203D358214F4801F0A1FAA26A2B681B0501D5802300E040239A4203D35921494801F094FA237D002B01D1013300E000236178052965
:401FC00001D1022200E000221343E27C002A01D0102200E000221343627C002A01D0202200E0002213432278012A02D18022120600E000221343B6000C2216403343A269D8
:402000001602F0221201164033430A06C02189040A4013432B62237C002B02D08021490000E00021A37C002B02D080239B0000E000231943A3685A1E0F2313400B43C02274
:402040009200AB50FF23226A1340C1229200AB50237C002B02D08021490000E00021E3685A1E0F2313400B4380229200AB50FF23A16A0B40812189006B506D23616A0B4012
:4020800015496B507323E16A0B4014496B50236B1A40F0231B01EA50226B80231B011340F4221201AB5000220D4BEA50002F0CD000233B60BB61FB60FB610A4B3B6200204D
:4020C00004E0094802E0084800E00020F8BDC046FCAB0010FFF5FFFFC80F0000880F0000C80E0000EFCDAB000140AA00F0B54F4680B482B006000F0001921D00089C002C4A
:4021000003D14D494D4801F0E7F94D4B226A9A4203D04C49494801F0DFF9002D0BD0002F04D1019B002B03D0002302E0002300E00123002B03D04449404801F0CDF92368E6
:40214000DB0774D433681B0502D58023994601E04023994601232360276165610023A361019A6260A560E3604B465C0833681B0501D5802300E040239C4204D3BA218900B8
:40218000324801F0A9F981229200B358FF218B432343B350336A002B23DA4D4501D9A51E00E0013D33681B0501D5802300E040239D4204D3A0218900244801F08DF9C1222C
:4021C0009200B358FF24A34325401D43B55000221F4BF25001231F4AB3501F4AB350002026E0A54201D9A51E00E0013D33681B0501D5802300E040239D4204D3A021890066
:40220000124801F069F9C1229200B358FF218B430D401D43B55080221201104BF25021220C4BF25020320C4BF250002000E00C4802B004BC9146F0BD55020000FCAB001060
:40224000EFCDAB005602000057020000B8AB0010080F0000C80F0000880F0000480F00000240AA0008687047F8B505000C001600002800D1BDE1002900D1BCE10B78022B32
:4022800003D93F21C14801F027F9637B023BDBB2062B03D94021BD4801F01EF9A37B002B07D0022B05D0032B03D04121B74801F013F92123E35C012B03D94221B34801F04A
:4022C0000BF92823E35C012B03D94321AF4801F003F92378012B06D86268083A082393429B415B4208E0A37F002B05D063685A1E062393429B415B42002B03D04521A348C3
:4023000001F0EAF8A368053B042B03D946219F4801F0E2F86369FF2B03D947219B4801F0DBF8A369FF2B03D94821984801F0D4F8A37C002B0FD02378002B07D1A368092B5C
:4023400006D1A37B002B05D0012304E0012302E0012300E00023002B03D04A218B4801F0BBF88B4B626B1A4203D04C21874801F0B3F8884BE26B1A4203D04D21834801F030
:40238000ABF82378022B02D1A37F002B02D063685A1E00E00022237F002B02D08021490200E00021A368082B02D880231B0100E0002319430F2313400B4380229204134358
:4023C0002B60226B2B681B0501D5802300E040239A4203D362216D4801F07EF8A26B2B681B0501D5802300E040239A4203D36321664801F071F8626A2B681B0501D5802353
:4024000000E040239A4203D36421604801F064F823781B06C022920413402B64637F002B01D0402200E00022A37C002B02D08023DB0000E000231A43237C002B02D080219E
:40244000490000E000210A43637C002B02D08021890000E000210A43E36A013B1B04F020000303401343627B013A07210A4013431900A27B120130231A400B001343AB64D7
:40248000237B002B02D08022520000E00022E37B002B04D12378022B03D1013B02E0012300E00023002B02D080239B0000E000231343A268013A0F273A401343C0229200F9
:4024C0009446AB50FF2260691040A3691A04FF2109040A400243C4239B00EA50E26A6346EB583B4003339A4201D3102A03D97A21264800F0F1FFE37F002B04D02378012B6B
:4025000003D0002302E0002300E00123002B02D08020400000E00020627B013A0723134001001943A27B120130231A400B0013436B64237B002B02D08021490000E000213A
:40254000A3685A1E0F2313400B432278012A02D18022520200E00022134380229200AB50FF23226B1340C1229200AB502023E35C002B02D08022920400E000222123E35C42
:40258000012B09D180235B0407E0C0467CAC001092F4FFFF8CF8FFFF002313432822A25C012A02D18022520200E000221343FF21626A0A4013432B65A36B0B408122920031
:4025C000AB500F4B626B13400E4AAB50E26B0E4B13400E4AAB50002E0FD0002373603360B360F3603362F3623363094B7363002004E0084802E0074800E00020F8BDC046E1
:402600006D0B0000C80F000073070000880F0000EFCDAB000160AA00C00543425841C0B27047C046214B984230D00ED8402831D004D800281FD010282AD031E080282BD048
:4026400080235B00984229D02AE0194B984229D007D8A0231B0698420DD0164B984212D01EE0154B98420AD0144B984209D0144B984215D101E0002016E0124814E01248CF
:4026800012E0124810E0A020C0030DE007480BE00F4809E00F4807E00F4805E0034803E00E4801E0A420C0037047C04606005200010000F0090000A0040000F0050000F0F6
:4026C000030000F0010052000200520003005200010050000200500005005200FF00520070B5124B1A683123D35C002B04D1C421FF310F4800F0F0FE0C4B1D682C00B423F0
:40270000EB582A6A944663441B68002B0BDB094B1868FFF787FF6B6801229A6063689B68002BFBD100E0044870BDC046A0540008BCAC0010002D00080200500010B50D4B31
:402740001861002805D002230370FD33437000234380094B1B6850229A5C002A08D051229B5C002B04D04F3A04490020FEF7F6FF10BDC046002D0008A0540008E9050008FE
:4027800010B502481430FFF7D9FF10BD002D000870B504000D00FFF73FFF002836D0002D36D0FDF765FE1B4B1B4A1A6000225A609C60DD60194B1B6852329A5C002A1FD000
:4027C0001A6884215B58D31819681A68120AFF2313405A1C0B0E01335343114C5C43114B1868FA21890002F0CDFC0100200002F0C9FC0D4BC1188020400007F051FA08E0DD
:4028000000218020400007F04BFA02E0074800E0064870BD002D000800010005A0540008C0EA2101C8000008482600000600520010B5FFF755FF10BD10B50400FFF7ECFEB1
:4028400000283ED0FDF714FEE02252051E4B1A601E4B1B78002B05D01B4A1368802149000B431360184B5C6000229A60DA60184B1B6854329A5C002A1ED01A6884215B5890
:40288000D31819681A68120AFF2313405A1C0B0E013353430F4C5C430F4B1868FA21890002F070FC0100200002F06CFC0B4BC118002007F0F5F905E00021002007F0F0F9B5
:4028C00000E0074810BDC046002D00080B000016A054000860F59000C8000008980800000600520070B504000D00FFF795FE002842D0002D42D0FDF7BBFDC022D204204BD0
:402900001A60204B1B78002B05D01D4A1368802149000B4313601A4B802252005A609C60DD60194B1B68AD3A9A5C002A1FD01A6884215B58D31819681A68120AFF23134010
:402940005A1C0B0E01335343104C5C43104B1868FA21890002F016FC0100200002F012FCE1239B00C118002007F09AF907E00021002007F095F902E0064800E0054870BD06
:40298000002D00080B000016A0540008808D5B00C80000080600520070B505000C0000285DD000295DD0FF230A689A4303D099212D4800F091FDFF2322699A4303D09A214B
:4029C000294800F089FDA3685B0D03D09B21264800F082FD63685B0A03D09C21224800F07BFDE3695B0F03D09D211F4800F074FD236A5B0F03D09E211B4800F06DFD1B4AC5
:402A000011688B69EB1ADB0949691B01CB18216829607D211068415C6918E06808607E211068415C6918206908607F211068415C6918606908607C211068415C6918A068D1
:402A400008606168A961116880228A5CAD18A2692A60E2691A60226A5A60002002E0044800E0034870BDC046FCAC0010A054000801005A0010B5B0235B059B899BB2002B66
:402A800004D0B0235B059B899BB201E080235B0080225200934215D1184C23681968683A9B58C9180B680F208343963A13430B6021680C689C23CB58E318196881430A43C5
:402AC0001A6019E00D4C2368196898229B58C918B02040050A4BC2580A4B13400A681343C022920013430B60226811689C23D358CB18054A82581A6010BDC046A054000805
:402B000048180000FFFCFFFF4418000030B5B0235B059B899BB2002B04D0B0235B059B899BB201E080235B0080225200934215D1184C23681968683A9B58C9180B680F209E
:402B40008343953A13430B6021680C689C23CB58E318196881430A431A6019E00D4D2B68196898229B58C918B0246405C12040012258094B13400A681343C0229200134312
:402B80000B602A6811689C23D358CB1822581A6030BDC046A0540008FFFCFFFFB0235B059B899BB2002B04D0B0235B059B899BB201E080235B008022520093420DD1104BCE
:402BC0001B681A6898215B58D21811680D4B0B40C021C9010B43136011E0094B1B68196898229B58C918084BB0225205D258074B13400A681343C022920013430B6070471C
:402C0000A0540008FF8FFFFF18180000FFFCFFFF30B5B0235B059B899BB2002B04D0B0235B059B899BB201E080235B008022520093420DD1134B1B681A6898215B58D21878
:402C40001168114B0B408021C9010B43136018E00C4D2B68196898229B58C918B02464050A4822580A4B13400A681343C022920013430B602A6811689C23D358CB18225815
:402C80001A6030BDA0540008FF8FFFFF4C180000FFFCFFFF10B5B0235B059B899BB2002B04D0B0235B059B899BB201E080235B0080225200934217D1002000F0FBFCB02352
:402CC0005B055B78002B04D0B0235B055B78DBB200E02123222B03D8002803D1013004E0012002E0002000E0012010BD10B50400012803D91049114800F0EEFB002C03D168
:402D00000F4B5869C00F00E000200E4B1A684423D35C002B0ED0012C0CD1094B9B695B0005D4074B9B69002B03DA012002E0012000E0002010BDC046620700007CAD0010A2
:402D400000002640A054000870B504000D00154B1A684423D35C002B22D0072803D91249124800F0B9FB0F4B1A684423D35C002B04D00F4B9B690722134000E00023210053
:402D80009C420DD00A4882690726B243344014438461002D04D0994202D9C82000F090FB70BDC046A0540008CC0700007CAD00100000264030B5021E22D0C368002B21D050
:402DC0000368002B20D00579A900104BCC582300002103E0934205D019005B69002BF9D1012000E0002000280FD0002C03D1AD00064BEA5000E04A6111610023536104E0EC
:402E0000002002E0002000E0002030BD182D000810B5021E28D00479A100144BC9580B0002E0934204D05B69002BFAD1002000E00120002819D08A420DD14B69002B05D0DB
:402E4000A4000A4AA35000221A610EE0A4000022064BE25009E01A69596951615A69002A03D01B69136100E0002010BD182D000830B585B004000D00022807D9042805D0AB
:402E8000032803D02A492B4800F026FB6B1EDBB2012B07D9042D05D0082D03D02649254800F01AFBA400254BE458042D13D0012D1CD112E0A3682B420BD1E3681A680292E6
:402EC0005B6801930393290002A8236898471B4B5C61646902E0002000E00020002C24D0174B9842E6D1012DE4D11EE0022D01D104E01C006369002BFBD104E00F4B5C69FB
:402F0000002C00D0246900200DE0A3682B4209D1E3681A6802925B6801930393290002A8236898472469002CEFD105B030BDC046B20900007CAD0010B3090000182D000800
:402F4000FF00420070B50500012804D9E02149001B4800F0C1FA1B4B1B68002B05D001210020FFF785FF040000E00024002C20D100F07BFB0600134B1B68002B03D004214E
:402F80000020FFF775FF104A136904218B431361012D01D030BF00E020BF300000F069FB084B1B68002B09D008210020FFF760FF04E002210020FFF75BFF044C200070BD8D
:402FC0007CAD0010182D000800ED00E0FF00420010B500F04AFB074B5A6807490A40E824A40122435A605A68114059605B6800F040FB10BD00002640FF00FC0FF8B507001A
:40300000012803D93D493E4800F066FAB0235B055B78002B04D0B0235B055B78DBB200E021239DB2B0235B059B899BB2002B04D0B0235B059E89B6B201E0802676000020A2
:4030400000F038FB002814D180235B009E4212D1222D12D82B4B1B685C682B4821582B4B19403B068022520413400B432350002404E0274C02E0264C00E0254C80235B0043
:403080009E4201D1222D03D880235B009E4232D01C4B1A683123D35C002B04D1C421FF311C4800F019FA174B1B681D6A80235B009E4203D1002F05D0174A06E0002F03D001
:4030C000164A02E0164A00E0164A01212800FEF7A5F800280FD10B4B1A68B423D3585B191B68002BF7DBEB681B0E1B06A0221206934200D100242000F8BDC0464C0A0000CA
:403100007CAD0010A054000818F00000FFFFFFFE04004200BCAC0010010100300300000C010000300100000C70B50400022805D0052803D02049214800F0CEF9FFF7AAFDCC
:40314000002836D000F091FA0600022C07D10120FFF754FF051E0FD1FFF78CFC0CE018494B6907229343043A13434B61342000F0A7F9FFF74DFD0025002D16D110494B6905
:40318000072293431A000723234013434B61022C02D1FFF703FD08E0912000F091F9FFF7B5FC0020FFF72AFF0500300000F061FA00E0044D280070BD020700007CAD00102F
:4031C0000000264003004200F8B50500012804D982210901294800F07FF9FFF75BFD002849D000F042FA0700002D11D10021244B244AD150E823DB00B0225205D65CF6B20D
:403200000120FFF7FBFE041E19D1FFF733FC16E0B02252051C4BD0581A4B194958501B49565CF6B21A481A581F218A4314390A431A50032000F044F9FFF7EAFC0024002C11
:4032400015D11049124A8B581F20834306401E438E50002D02D1FFF7A1FC08E0072000F02FF9FFF753FC0020FFF7C8FE0400380000F0FFF900E0074C2000F8BD7CAD001006
:40328000307F00000000264010180000410700001CFF00000300420010B5041E03D11549154800F019F9154B1A68D168F222D2018A5822601B68F022D201D9688A586260FE
:4032C0000F4AD9688A58A2600E4AD9688A58E2600D4AD9688A5822610C4AD9688A5862610B4AD9688A58A261DA680A4BD358E36110BDC046A10A00007CAD0010A054000826
:4033000004780000087800000C78000010780000147800001878000010B5041E03D11449144800F0D9F8144B1B68F022D201D96860688850114AD968A0688850104AD96875
:40334000E06888500F4AD968206988500E4AD968606988500D4AD968A06988500C4AD968E0698850DA682168F223DB01D15010BDC90A00007CAD0010A05400080478000099
:40338000087800000C78000010780000147800001878000070B50500012804D9A6218900354800F099F8354B5B68002B05D001210120FFF75DFD040000E00024002C53D1B9
:4033C00000F053F906002D4B5B68002B03D004210120FFF74DFD2A4B1B6843229A5C002A08D09A68E023D358DB0603D523481830FFF752FFB0235B059B899BB2002B04D0F1
:40340000B0235B059B899BB201E080235B0080225200934203D1280006F04AFC09E0194A116904230B431361012D01D030BF00E020BF134B1B6843229A5C002A08D09A686C
:40344000E023D358DB0603D50C481830FFF764FF300000F00EF9094B5B68002B09D008210120FFF705FD04E002210120FFF700FD054C200070BDC0467CAD0010182D0008A7
:40348000A054000800ED00E0FF00420010B5040006E0084B186800F0DFF8074B9C46644480231B029C42F4D8044B1868604300F0D3F810BDE00000080080FFFFDC0000082F
:4034C00010B5034B1B78584300F0C6F810BDC046D800000801BEFEE770B50D00044C18220100200004F01DF9A5610020FFF7F2FF880A0008024B1B685B6801229A60704791
:40350000A0540008054B802212069A649B6C002B01DB002000E002487047C0460000274003004600054B8022120198585B68FF221A4202D08023DB021843704700002640C3
:40354000FEE7C04610B50A4B0268DA6142681A6282685A62C2689A620269DA6242691A6382695A63C2699A63FFF7EAFF10BDC046880A0008F0B5474680B4002801D0192329
:4035800000E064238B429B415B42304D2C682268A826A45BA41822680327BA433B401A4322602C682268A45BA2181668284CA046264016602C682668AA229446A25A961931
:4035C0003268BA43134333602A6813686546525BD3181A68444614401C60002805D010291BD921291BD8012024E0184B1B6855229A5C914215D956229A5C914213D95722D9
:403600009A5C914211D958229A5C91420FD959229B5C99420DD804200CE000200AE0022008E0002006E0012004E0022002E0032000E00520054A1268526813680F218B4323
:403640000343136004BC9046F0BDC046A0540008FFFCFFFF000000000230800803D001300238FCD1C046C0467047EFF3108072B6704780F310887047042805D10B4A1168E8
:4036800004230B4313600FE0094B1A681168A023D358CB180006C022920410401860034A136804218B4313607047C04610E000E0A054000810B50400094B1B689B6CC3406C
:4036C000DB0703D4BE210748FFF706FF044B1B681B691034A402E3580F20184010BDC046A0540008BCAD0010014B18607047C046A054000870B5012902D0082944D049E092
:40370000294B1B78012B47D00320FDF7D9FE274B984243D001F0CEFC012841D0022008F0F0FF0500FFF7A1FF214B186029F040FC0400062817D0022D0AD1022016F036FDA2
:40374000032C01D0052C10D1002810D0194C13E0012016F02BFD022C0BD000280BD1FFF7F1FB144C08E0002406E0124C04E0002402E0104C00E00F4C0E4B9C4211D10C4BF8
:403780001868FFF776FF0CE0094B1868FFF771FF002406E0074C04E0064C02E0054C00E0044C200070BDC046A854000801018800502D0008FF00420010B50248FFF728FB33
:4037C00010BDC0460802000810B5002817D00D4B5860C36A002B01D00A4A936000240A4B1C700A4B1C700A4B1C600A4B1C7000F0BBFB094B1C70094B1C70002000E0084842
:4038000010BDC046502D0008BC540008C0540008C4540008C1540008A7540008AC5400080100160070B59AB016AE102510222F49300003F01EFA03AC4C220021200003F0FF
:4038400021FA2B4B0393A6602A4BA3810423A373294A526812692261284A62611B2222836283183A227763770332A277E5771A32A3541D33E55452322333E252713A0433F3
:40388000E2541F48FFF796FA08F035FF09A808F09DFF002827D11B4B0493174B5B68996B002904D022222E30684403F0E2F903A808F034FF002813D10122134B1A70002305
:4038C000124A1370124A13700B4B5B6801A81A6A01929B6ADB8883800923C38010F0F8FC00220C4B1A601AB070BDC0466CAF00103943001048200000502D0008F6070000D2
:4039000008020008C40A0008A8540008B0540008B1540008C4540008014B024AD050704778F0010000003C4010B51DF06DFA044B1B68002B02D0002800D0984710BDC0465C
:403940005C2D000810B5002809D0FA23FF33994207D80A00044903F08CF9002002E0034800E0024810BDC0460708001601001600F0B55F4656464D464446F0B4B14CA54405
:4039800081460E00904605930B00AF4A914204D942468A18AD498A4211D9AD4A934204D94246B218AB498A4209D9AB4A934200D823E14346F318A94A934200D922E1A84BCC
:4039C0005B695B0010D5A64B5B6907241C40022C25D10520FFF7A8FB0190A24B9842F8D003940123049324E09F4B9D4AD3581F221A40E823DB00B0214905CB5C9B1A5A1E3F
:403A00009341DBB20493002B0FD10120FFF7DCFB944B9842F9D001900523039309E00394012304930023019303E005230393002301938E4B019A9A4204D1D621FF318C485A
:403A4000FFF74AFDF0231B069C466644730A9A465C0200210320FDF7A7FC0028F9D100250023029399E0B4421BD3BD4219D24A4652191078804606A84146C1545946002942
:403A80000DD1802149058846A044414609786846017001781278914201D001229346013505E080225205A218127806A8C2540134013304E0002100238B46844647466D4A31
:403AC0009342D0D959466046B846002962D0019B002B5FD1059B002B51D1C83300951D00B3465646A24680231B03F7187F023800FEF7A2FE0400013D0120FFF7E1FCA42381
:403B0000DB0322001A409A4201D1002DEBD122000294009D5446B2465E46574B9A4205D1FEF786FE554B9842FAD00290029B002B19D1C83300971F00A34606A90098FEF7DE
:403B4000D1FE0400013F0120FFF7BAFCA423DB0322001A409A4204D1002FEED102945C4601E002945C46444B029A9A4211D1FEF75FFE424B9842FAD0029001200AE08020AB
:403B800000035044400206A9FEF702FE0290012000E0012001239C46E244029B019A134301D1454586D3002801D0FFF7A3FC00210320FDF73FFC0028F9D1019B002B25D1B5
:403BC000274B5B695B0009D5039B022B06D10220FFF7AAFA0190234B9842F8D0204B1B681B0213D4049B002B10D10020FFF7ECFA01901C4B9842F8D008E000230193204B1A
:403C0000029303E0002301931D4B0293019B002B0CD11C4B029999420AD0194B994207D0002901D1002004E0174802E0174800E0174887239B009D443CBC90469946A2464E
:403C4000AB46F0BDE4FDFFFFFFFFFF0F00001010FFFFFF1300800014FF070016000A001600002640040042001CFF0000030042007CB00010FF0100000100500002005000D0
:403C8000060052000200520013001600120016000100160010B500280AD0FA23FF33994208D8F93BFF3B0A000349FFF761FE02E0024800E0014810BD0708001601001600A8
:403CC00070B5C0B005000C001600802252000849684602F0CEFF05E02A7872406B469E5C0135013C002CF7D1300040B070BDC0467CAF001010B50022FFF7E2FF10BDC046EC
:403D00000020704710B50C000088AE235843044B9C4660440A2101F035FA208010BDC04691FCFFFF10B50C000023C05E044B5843044901F0B1FABD23181A208010BDC0465F
:403D40004B280000102700000020704710B516F075F810BD10B5FFF7B3FB10BD064B1B685B6B00229A5E002A05DB1F231A401E3B9340024A13607047542D000800E100E041
:403D8000094B1B685B6B00229A5E002A0ADB1F231A401E3B9340802204498B50BFF34F8FBFF36F8F7047C046542D000800E100E0A023DB00024AD358032018407047C04617
:403DC00000002640024B034AD058C00F7047C0461C0500000000264010B5FDF7B3FF10BD70B504000D0016000320FDF769FB054B984205D0320029002000FDF7D5FE00E068
:403E0000014870BD0101880003004A0070B5431ADC171B196340934227D3164B164CE458A405A40D884208D9401A51084018110001F0A8F9201A0ED50AE0081A510840188E
:403E4000110001F09FF900190C4B984202D802E0002000E00A48084D06496B589B0A9B028205920D13436B5001E000240020201A70BDC0463C05000000002640FE03000036
:403E8000FF03000010B5034B1A6880210902FFF7BDFF10BD2002000810B500F0A7FF0220FFF73AFD094C2368586B0949FDF734F923685B6B00229A5E002A05DB1F231A4045
:403EC0001E3B9340034A136010BDC046542D00082939001000E100E00420704710B5FFF7C4FB10BD10B5FFF7C4FB10BD10B5FFF729F810BD10B50021FEF726FF10BDC04662
:403F00007047C0467047C04600207047004870471100160000487047110016000048704711001600004870471100160000487047110016000048704711001600004870474D
:403F40001100160000487047110016000048704711001600004870471100160000487047110016007047C04610B5024800F0A8FD10BDC0460402000870B5022875D800297B
:403F800075D10022002306E03C4CE45C012C01D90132D2B20133002BF6D0012A0CD1384B1B681C688A0052189300E3185B681B79023BDBB2012B5CD8324B1B78002B5AD1EA
:403FC000314B197000281DD12D4E34688B005B189A0023689D18CB00591A4B006168C918898829822168891849686468E45A0C8031680C68A446624452684968CB185B8889
:4040000053801FE001281DD11D4D2C688B005B189A0023689E18CB00591A4B006168C91889893182216889184E686168C9180989318029680C68A446624452684968CB1818
:404040005B895380114B18700D4B1B6818680E4B1B789A00D3189A0080180CF09FF800280AD10122074B1A7006E0094804E0084802E0084800E0084870BDC046B054000806
:40408000542D0008B1540008A6540008C15400080100160002001600FF00160070B5002907D1154B1B681B689968CE7F002300250FE0114B1B681B68D968CE7FF6E7CA5C03
:4040C000002A0AD00133CC5C1B2C01D09B1800E00125B34201D2002DF1D0002D0BD001338279CA54002204E0D4180134855C0D550132052AF8D970BD542D000870B5050007
:4041000010F004F9041E24D1134B19682B899A00D2189300143B0A6A944663445A68920117D5EA7B1B695B68C8691B1A90008018C0180A4BC018AA88296802F09AFDEB7B4B
:40414000074AD35C012B04D1064A117802230B431370200070BDC046542D0008B4540008AC540008A754000870B586B004000289164B1B685B699B889A4223D101A80300C7
:40418000220062CA62C300238381A389C38140230374FFF7B3FF051E0ED123681B789B0705D50B4B1B6821000A48984704E0084B1B68210008489847084A137801218B43D5
:4041C000137000E00025280006B070BD542D0008582D00080500010006000100BC54000810B54288531E9BB2132B1CD84478002C1BD1104B196893009A189300143B0A6A27
:40420000944663445A68920111D51B695868C969411AA3001C19641807496118022202F028FD002004E0012002E0012000E0002010BDC046542D0008B454000830B583B0ED
:4042400004000D0006220021684602F01BFDA3896A4613802389538012231371074B1B78DB0709D4002D04D0557168460FF08AF902E0E0680FF0B6F903B030BDBC5400085A
:4042800010B5002811D00023002406E09A0011495258904200D1012401330E4A1279934206D2002CF2D0002303E000240A4B00E00023002B0CD1002C0AD1064A1279002A55
:4042C00005D104499400605001320A7100E0034B180010BDC8540008010016000300160070B506000D000020002406E0A200074BD3582900300098470134044B1B799C4293
:4043000003D2034B1B78DB07F0D470BDC8540008BC5400088379002B06D000200AE0C25C002A06D1013300E00023052BF7D9002000E001207047C046F0B5474680B48CB0DB
:4043400004000D00C54A117801230B43DBB21370C34B984200D178E232D8C24B984200D1DAE015D8C04B984200D1FEE007D8023B984265D0BD4B984200D1F2E085E3BC4BE3
:40438000984200D12FE1BB4B984200D178E37CE3B94B98424BD008D8B84B984200D1ADE0B74B984200D1A9E06FE3B64B984200D14FE200D9FEE1B44B984200D127E164E3AD
:4043C000B24B984200D1FBE216D8B14B984200D17FE208D8AF4B984200D1E7E1AE4B984200D1E7E151E3AD4B984200D1C4E2AC4B984200D1DCE248E3AA4B984200D109E3F5
:4044000008D8A94B984200D1FCE2A84B984200D1FCE23AE3A64B984200D103E3A54B984200D152E2A44B984200D02EE3F6E2280008F016FB894A137801218B43137024E3AA
:404440009E4B1E683000FFF765FF00280CD030000CF082FE994E00213068FFF71FFE30680121FFF71BFE37E0954B19688B6A1B79002B22D0B0204005924BC35C3F22134034
:40448000914E865D324092011A43904BC65C1F2333401B031343C022D200805C7F220240520413430A6B1370854A1168096B180A48701268126B1B0C9370814E3368186BF7
:4044C0000CF04AFE3368186B0021FFF7E7FD3368186B0121FFF7E2FD794B1B68986A02300DF0EAF908227A4905A802F0C2FB05A80CF056FE0222774B1A70C6E20023754AAF
:404500001370754A1370754A13705D4B9C4200D0BBE2FFF751F9B8E2714B1B68DB0700D5B3E205AE03220021300002F0ABFB644F3B689B6A1B785BB2337030000CF04AFE49
:404540003B689B6A5B785BB2337001277770FF23B37030000CF03EFE614B1A6817431F6093E22900FFF7BCFE8FE26B78984602225749083105A802F07CFB00261DE002AFE6
:4045800073005849C9180222380002F072FB7B78002B02D1544AD35C00E00023012B0BD97300504A9B5C984506D17300D118022205A802F05EFB02E00136002EDFD005ABA4
:4045C0005B78FF2B04D103D148494948FEF784FF05AB1B8808AA138007AA13801B0A2978444AD15451E22B78002B00D04DE22B7A002B06D1404B0022DA809A803F4A1A605B
:404600006B60164A137801218B4313703DE26B79984602222E49083105A802F02AFB00266FE003AF73002F49C9180222380002F020FB7B78002B02D12B4AD35C00E00023E4
:40464000012B5DD97300274A9B5C984558D17300D118022205A802F00CFB54E0BC540008084000000420000002100000011000000310000004100000193000000130000055
:404680001230000006400000044000000C500000015000000A400000104000000250000003500000105000000E5000000F50000017500000016000001450000024020008CB
:4046C000542D0008040600000506000003060000B8B00010A8540008B1540008742D0008C4540008A4540008B0540008CA030000C4B00010C05400087C2D00080C2B000858
:404700000136002E8DD005AB5B78FF2B04D103D1C849C948FEF7E0FE05AA138809A90B8013801B0A6978C54AD154EB78002B00D0ABE16B7998460222C149083105A802F066
:4047400098FA00261DE004AF7300BE49C9180222380002F08EFA7B78002B02D1BA4AD35C00E00023012B0BD97300B64A9B5C984506D176009119022205A802F07AFA02E012
:404780000136002EDFD005AB5B78FF2B04D103D1A849A948FEF7A0FE05AA13880AA90B8013801B0A0121A94AD1546EE12900FFF797FD6AE1AB7E002B43D12B7E012B02D143
:4047C0000022A34B1A70EB7E984602229C49083104A802F04EFA00261DE005AF73009949C9180222380002F044FA7B78002B02D1954AD35C00E00023012B0BD97300914AB7
:404800009B5C984506D176009119022204A802F030FA02E00136002EDFD004AB5B78FF2B04D103D183498448FEF756FE04AA13880BA90B8013801B0AFF2B02D0297E854AE3
:40484000D1540222844B1A701FE10222824B1A701BE12900FFF744FD804B1B78DB0700D413E17B4B1B78012B03D10222784B1A700BE1032B03D10022754B1A7005E1022B80
:4048800000D002E10022724B1A70754B1B685868744B1978CA00531A5B00C3189A79002A00D1F2E09B88002B00D1EEE06E4B1B78002B00D0E9E00120FFF75EFB002800D0D7
:4048C000E3E00122624B1A70DFE02900FFF708FDDBE002222900684602F0CBF96B465B78002B03D10221584AD15405E0002B03D15E495148FEF7F0FD68784000514B1818ED
:404900000222290002F0B5F96B780021584AD1549800C018574E8019514B1B6819692B789A00D318FE22D20094466344C9180631052202F09EF96B789800C01880190421FC
:40494000FFF7D8F96B789A00D318F618337998420DD0494B1B680021484898476B789800C318444818180522002102F08BF929002000FFF7B5FC88E001AE0222290030009C
:4049800002F077F97378002B03D100212E4AD15405E0002B03D135492748FEF79DFD6B7800212A4AD15429002000FFF799FC6CE005A82B880380172343800EF0F1FD64E0C0
:4049C0002A89531E9BB2132B0ED905A8AB890380428012230371012646710EF0D3FD1F4A1378B343137050E02800FFF7BDFB011E04D129002000FFF773FC01002800FFF772
:404A00001DFC42E02900FFF76BFC3EE02900FFF767FC3AE02900FFF763FC36E02900FFF75FFC32E02800FFF7DBFB29002000FFF757FC2AE0CA030000C4B00010AC540008F2
:404A4000B8B00010A4540008B0540008742D0008B1540008782D0008A8540008BC540008542D0008A6540008C154000886030000C0540008B4540008582D00080400010044
:404A80000B4A117801230B4313700A4B1A7811231A4209D0074A137801218B431370064B1B682900200098470CB004BC9046F0BDA7540008BC540008582D0008002070470A
:404AC00010B5002805D0044B18600448FFF7D8FB00E0034810BDC046882D0008BD4A00100100160070B50D000F4B184300040F4BD861FA24A40003E0013C0120FEF7E0FCDD
:404B00000A4B1B6CDB0701D4002CF5D1002C08D0064B196C01220A431A64DB6A2B80002000E0034870BDC0460080FFFF00003C400400160010B500040E4B184001430E4B8F
:404B4000D961FA24A40003E0013C0120FEF7B8FC094B1B6CDB0701D4002CF5D1002C06D0054A116C01230B431364002000E0034810BDC0460000FF7F00003C4004001600E2
:404B8000F0B583B006000A24C02149017548FFF7D1FF002804D16B46991D7248FFF7A2FF002C01D0013C00E06F48002805D16B46DA88C0235B019A42E6D1002825D16B4603
:404BC000991D6A48FFF78EFF00281ED16B4606331B885B0519D40A248021C9006348FFF7A9FF002804D16B46991D6048FFF77AFF002C01D0013C00E05B48002805D16B4611
:404C0000DA888023DB009A42E6D1002804D16B46991D5748FFF766FF002844D16B4606331B883F229343B278012A15D1F178012904D88FB20222D21B95B201E00025022730
:404C4000402213439BB2302213436A46D380494BCB40494A136013E0F178002904D18FB20122D21B95B201E00025012740229343102213436A46D380404BCB403E4A13606B
:404C80006B469C1DD9883943D9803948FFF752FFF378DB1B03221340AA0092B213432380374A38498B50B0235B055B78002B04D0B0235B055B78DBB200E02123212B4FD0C8
:404CC000314BB0225205D35A9BB2002B48D0002804D16B46991D2D48FFF704FF002824D16B469A1DDB8860218B4318001380B0256D05254C2B5B60310B405B08034324496E
:404D00000B401380295BC901F020C00001400B43204919401180285BC0239B000340DB00194311801948FFF705FF002804D16B46991D1948FFF7D6FE002811D16B469A1D2D
:404D4000D988C023994311800F4BB0204005C05A302303409B00194311800F48FFF7EAFE03B0F0BD021E000004001600031E0000091E00000048E801C40000080024F400AF
:404D800064F0010000003C4016180000071E00007FF5FFFFFFE7FFFF061E000070B50C004000084901430848FFF7C4FE051E04D106490748FFF7BEFE05006001FEF780FB29
:404DC000280070BD01100000081E0000376800000F1E00000349044A8858102303438B507047C04600003C4070F00100F0B59DB013A9144B0A00180070C870C270C870C2F0
:404E000070C870C20AAD28001A002432D0CAD0C0D0CAD0C0D0CAD0C001AC22004833C1CBC1C2C1CBC1C2C1CBC1C20748FDF7B4FD29000648FDF7B0FD21000548FDF7ACFDAD
:404E40001DB0F0BDFCB00010000132408001324000023240F8B5051E00D1DDE0734B5B689B0301D5FEF7B4F8714C03E0013C0120FEF726FB6F4B704AD358002B01D0002C53
:404E8000F4D16E4B6C4AD358DB0704D56C4BD358DB0700D5C2E0674B674AD358002B00D0BEE0FFF7A3FF644B6649674A99502A78A02109030A4365495A506549654A99508C
:404EC000802252009B58DB0700D5ABE0624B1B6F1B0709D4614B1868614B984206D9190000F050F9013802E0012000E00020524B1B68002803D040035A4A104300E05A485D
:404F000018434D4B1860494B5B695B0017D501210320FDF719FF454B5B699B0F01221340524A116844228A5C002A0ED0002B0CD03E4A93698021C9050B43936105E03E4991
:404F40004B4A8858032303438B503B4C3B4AA658484B3343A3504020FEF7B2FA464BE358DB070BD42700444C01233B514020FEF7A7FA03233B514020FEF7A2FA3F4F3740DC
:404F80003F4E3E432D4B2C4AD650FA24E40003E0013C0120FEF794FA3A4B3B4AD358DB0601D4002CF4D1002C01D0002400E0374C002C23D12049364A8858082303438B5074
:404FC0000120FDF793FE002801D1324E3E43324B1E4001231E43194B174AD650144E03E0013E0120FEF76CFA154B134AD358DB0701D4002EF4D1002E00D1244C002C03D1C4
:405000002800FFF7BDFD0400002C0CD168782978FFF7C4FE040006E0204C04E0204C02E01F4C00E01F4C2000F8BDC04600002640F07E0E006CF0010000003C40A0F00100ED
:40504000B4F0010006000001A4F00100A8F0010001000100ACF0010000F03D40CC00000800093D00041A0080040A0080A0540008C4F0010030000300B0F00100EFFFFEFF94
:405080002000020010400000000032400400160068F0010028000200FFFFFBFF010016000300160002001600014B18687047C046C400000810B5002405E02000FCF726FCD7
:4050C000032804D00134042CF7D9002000E0012010BDC046A023DB00064AD35803221340012B03D0032B03D1012002E0012000E0002070470000264070B50D001600002944
:4051000007D1002408E02878FBF71CFD0135013400E00024B442F6DB200070BD70B50D00160000290CD100240DE0FBF717FDC0B2287001340A2806D00D2804D0013500E092
:405140000024B442F1DB200070BDC04610B5094B1B78002B07D1084A08490948FDF784F80122044B1A70064A1368802109060B43136010BD8C2D0008D054000868B10010C8
:4051800000006640002243088B4274D303098B425FD3030A8B4244D3030B8B4228D3030C8B420DD3FF22090212BA030C8B4202D31212090265D0030B8B4219D300E0090A73
:4051C000C30B8B4201D3CB03C01A5241830B8B4201D38B03C01A5241430B8B4201D34B03C01A5241030B8B4201D30B03C01A5241C30A8B4201D3CB02C01A5241830A8B4205
:4052000001D38B02C01A5241430A8B4201D34B02C01A5241030A8B4201D30B02C01A5241CDD2C3098B4201D3CB01C01A524183098B4201D38B01C01A524143098B4201D378
:405240004B01C01A524103098B4201D30B01C01A5241C3088B4201D3CB00C01A524183088B4201D38B00C01A524143088B4201D34B00C01A5241411A00D201465241104686
:405280007047FFE701B5002000F0F0F802BDC0460029F7D076E7704703460B437FD4002243088B4274D303098B425FD3030A8B4244D3030B8B4228D3030C8B420DD3FF22C0
:4052C000090212BA030C8B4202D31212090265D0030B8B4219D300E0090AC30B8B4201D3CB03C01A5241830B8B4201D38B03C01A5241430B8B4201D34B03C01A5241030B7C
:405300008B4201D30B03C01A5241C30A8B4201D3CB02C01A5241830A8B4201D38B02C01A5241430A8B4201D34B02C01A5241030A8B4201D30B02C01A5241CDD2C3098B4279
:4053400001D3CB01C01A524183098B4201D38B01C01A524143098B4201D34B01C01A524103098B4201D30B01C01A5241C3088B4201D3CB00C01A524183088B4201D38B00D3
:40538000C01A524143088B4201D34B00C01A5241411A00D201465241104670475DE0CA0F00D04942031000D34042534000229C4603098B422DD3030A8B4212D3FC22890118
:4053C00012BA030A8B420CD3890192118B4208D3890192118B4204D389013AD0921100E08909C3098B4201D3CB01C01A524183098B4201D38B01C01A524143098B4201D320
:405400004B01C01A524103098B4201D30B01C01A5241C3088B4201D3CB00C01A524183088B4201D38B00C01A5241D9D243088B4201D34B00C01A5241411A00D20146634659
:4054400052415B10104601D34042002B00D54942704763465B1000D3404201B5002000F005F802BD0029F8D016E770477047C046002B11D1002A0FD1002900D1002802D0E8
:405480000021C943081C07B4024802A14018029003BDC046D9FFFFFF03B4684601B5029800F050F8019B9E4602B00CBC7047C046F0B54F464646C0B41604360C9946330021
:4054C00005042C0C070C150C63437E436F4365431C0CAD1964199C46A64203D980235B02984647446346250CEF191D044B464A4343432D0C240464199918C91920000CBCFC
:4055000090469946F0BDC04670B500220C4B04000D0001F05DFA002804D12000290001F0B5F970BD064B00222000290000F05AFE01F0ACF980231B069C466044F1E7C04638
:405540000000E041F0B54D46564644465F46F0B4924683B004000D0099468B422FD82CD04946504601F05CFA29000600200001F057FA331A9846203B9B4600D574E0534672
:405580005A4693401F005346424693401E00AF4229D826D05B46A41BBD41002B00DA79E0002200230092019301235A4693400193012342469340009319E08242D0D9002273
:4055C0000023009201930C9B002B01D01C605D600098019903B03CBC90469946A246AB46F0BDA342D6D900220023009201934346002BE8D0FB0772081A4346467B080EE02D
:40560000AB4201D1A2420CD8A41A9D41012024196D410021013E24184D41002E06D0AB42EED9013E24196D41002EF8D15B460098019900196941002B22DB2B005A46D3409C
:405640002A004446E2401C005B461500002B2CDB26009E40330026004746BE403200801A994100900191AEE7424620239B1A5246DA40414613004A468A4017001F4382E703
:40568000424620239B1A2A0046469A402300F3401343D5E74246202300219B1A0022009101920122DA40019282E74246202326009B1ADE402F00B446974066463B00334331
:4056C000C9E7C046F0B556464D4644465F46F0B41D000E034C00CB0F87B0070092468146360B640D98466AD06D4B9C4235D08022430F12041343F6001E43C3009946694BAA
:4057000000279C460023644402932B0368001B0BED0F51469B46400D009500D178E0604B98426CD05B46DA004B0F802109040B4313439B465346D9005A4B9C46002360443C
:405740004246201A6A40924601901F430F2F00D9B0E05548BF00C0598746374300D088E0002399460233082700260293CDE74346B34649460093029B009A9246022B00D0D2
:40578000BFE1002153460122002689461A40444B002136030C0D2405360B2643434C1B0526401E437600D207760816434846310007B03CBC90469946A246AB46F0BD3300D0
:4057C00003434FD0002E00D1BCE1300001F00AF903000B3B1C2B00DDADE11D220100D31A08393A008F408E40DA40B9461643304B00279C46002360444442029385E7534667
:405800005A4613432CD1002300219B46023397E70B4320D05B46002B00D19EE1584601F0E1F803000B3B1C2B00DD8FE102005946083A91408B461D21CB1A5146D9400B009B
:4058400059460B4351469B469140194B9C4660444042002374E7002300219B4601336FE703236DE70023994601330427002602934BE703230C27029347E70122D51A382DFE
:4058800000DCB0E153461A4000210023002689467EE700238026994600223603004B77E7FF07000001FCFFFF7CC10010FFFF0F80F30300005E4500D972E100D16DE1019BE3
:4058C0004D46013B01930023340002935B461E020B0E1E430B020393330C994633041B0C494620000093FFF74DFC009B370043430600494620009846FFF7CAFC2C0C090492
:405900000C43A04509D9E419731EA74200D95CE1A04500D859E1023EE4194346E41A49462000FFF72FFC0300009A80465343494620009B46FFF7ACFC2A040904120C0A436C
:4059400093450DD94346D219013B974200D93AE1934500D837E102235B429C46D219E0445B46D21A4346360433439B460399180C0B0C1D00059309045B46090C0C001B0450
:405980001B0C4443049159436B4368431B190D0CEB189C4203D980246402A44660441C0C09041B04090C20185D18824200D2DEE000D1D7E0161A029B9C465D1BAC459B4127
:4059C0005B42F61AB74200D106E149463000FFF7D9FB009B04004343494630009846FFF757FC2E0C09040E43B04509D9F619631EB74200D9F3E0B04500D8F0E0023CF61927
:405A00004346F31A494618000293FFF7BBFB009B06004343494602989846FFF739FC2D0409042D0C0D43A84509D9ED19731EAF4200D9D6E0A84500D8D3E0023EED192404FC
:405A4000210043463143049E059A3000ED1A0B040C0C1B0C58436643534354439A19030C9B189E4203D980225202944664441A0C00041B04000C14191B18A54250D34DD04C
:405A800001231943964A019B94466344002B00DCF3E64A0709D00F220A40042A05D00A1D8A42894149428B4411005A46D20108D55A468C4B1A4093468022D2009446019BD5
:405AC0006344894A934200DD5BE65A46C908500708435602514601225B058146360B5B0D0A4055E680231B031E4211D05A461A420ED15E461E433603360B2A0089467B4BA4
:405B000046E6032B00D1E1E0012BBBD11A40BBE61E433603360B4246744B39E6002BB1D07D194A1EAF4252D91100A542A8D1039A9A42A5D1A6E703003E00283B9E4000232D
:405B4000994654E600F04EFF203041E603005246283B9A400021934677E6504600F042FF20305EE6029B0026AB4200D323E7039E0299B44661448846B045B6415B46764253
:405B8000F619B218013B0291974213D290424FD800D18EE0161A9B460DE7894500D28EE674084B46F60735005B081D434B46DB0702938BE69742EDD10399029CA142E5D941
:405BC0003E1A9B46F7E69846CAE61E00A5E6AC423ED874D0110053E70121494252E71C000EE71E002BE71F2D3CDC20230A0058465B1B9840EA4099400243481E81415E46ED
:405C00001143EE404B0709D00F230B40042B05D00B00191D99429B415B42F61833023CD55346012200211A40002601238946AFE502235B429C46039CE344A446029B6344D1
:405C40009846A045B6417642F6190293B218B1E603988A1E41008142B6417642F619AD19039161E71F225242D31A5A46DA401300202D29D040225846551BA8400143481E2F
:405C8000814107200B4318400026002809D00F2200261A401900042ABBD10B0070077602360BDB0803439946012253461A4000236EE502998D42BBD89B4600267BE60398DB
:405CC0009842C5D3110032E70020D7E780265B4636031E433603360B009A8946034B57E5FF030000FFFFFFFEFE070000FF070000F0B55F4656464D464446F0B40D0399463E
:405D00004E002B0B87B00700924680469B46760DCC0F002E69D06D4B9E4235D05B468022DD001204430F13432B439B46C3009846674B00279C460023664401934A4615032E
:405D40005000D20F53462D0B400D914600D176E05E4A90426CD080225B0F120413435C4AED0094461D4353460022DB00604449463618701C6140029017430F2F00D9AFE005
:405D80005448BF00C759BF465B461F4300D088E000239B469846023308270193CEE74946022A6AD0032A00D109E2012A00D0BBE111400022002300259046CCB200212D03C4
:405DC0000A0D12052D0B1543434A1B0515401D436D00E4076D0825434046290007B03CBC90469946A246AB46F0BD034352D05B46002B00D18AE1584600F0F4FD03000B3B7D
:405E00001C2B00DD7BE11D22D31A3A0001005D46DA4008398D4013008F402B439B46B8462E4B00279C46002360444642019385E752462A432CD100250023022297E752462C
:405E40002A4321D0002D00D154E1280000F0CAFD03000B3B1C2B00DD46E11D21CB1A51460200D9405346083A954093400D431B4A944660444042002279E7012400220C40FC
:405E8000124B0025904699E70025002301226EE703226CE700239B4698460133042701934CE703230C27019348E700238025984600242D03054B81E75D464346019A6FE7DF
:405EC0005D4643462100019A6AE7C046FF07000001FCFFFFBCC10010FFFF0F80F30300004246120C91461A0C9446424617044A461B041B0C5A43604690464A46424310001E
:405F0000039262461C003F0C7A437C4342440192220C9246019A5244904506D98246802040028046C24450460390100C049048462404240C1204121905922A0C2D042D0C90
:405F400068432C00824648467C4350438146200C8046574357444744BA4503D9802040028046C144380C3F04B84648442404240C01900498A044404404905846000C81469E
:405F800058460404200C8246070048465F434C464343604660436446834650464443380C8446E4186444A34203D980235B029C46E34448463F04230C3F0C2404E419574696
:405FC00068436F4384464D46504655434243380C814662444A445B44944503D9802040028446654403983F04834604983F0C8446E344C34580414042824610048446019843
:40600000674484466744A344BC46A345A4419946D44464428742BF41D4458041E144A04699459B417F424042C8440743120CBA18A045A4415F423B0064422343D7184346D2
:406040007D19DB0D6D021D435B465A02059B1A43531E9A415B46DB0D1A4343465B021343EA0107D501225C0813402343EA07029E13436D08574AB218002A4BDD580709D013
:406080000F201840042805D0181D98429B415B42ED180300E80104D54F4A15408022D200B2184E48824200DDE7E60124DB08680718436D02530580462D0B5B0D0C407DE628
:4060C000802259461203114208D0154206D115432D0398462D0B4C46414B6FE65D4615432D032D0B3E4B69E603005546283B9D400023BCE6504600F075FC2030A8E603002A
:40610000283B9F400023BB46984689E600F06AFC203073E60124A61A382E07DD00220C4000230025904649E6029EA3E71F2E20DC20222C001800921BF040944093400443FF
:40614000581E83411C43F540630709D00F232340042B05D023001C1D9C4292415242AD182B021FD5012400220C4001230025904624E61F202C004042821AD440202E1CD05B
:406180004022961BB5402B43581E83410720234318400025002809D00F2200251A401C00042AD8D1230068076D022D0B0124DB08034398460C40002300E60025E3E7802236
:4061C0000124120315432D0398462D0B0C40044BF4E5C046FF030000FFFFFFFEFE070000FF070000F0B557464E464546E0B40E001100F20F9246C500420F18033703740079
:40620000400A4E0F7F0A3043CF4E17435A00640D520DDB0FC900B24200D1E5E001267340A61AB446534500D1AFE0002E00DC0DE1002A3AD103000B4300D0E4E06B0709D0F4
:406240000F232B40042B05D02B1DAB42AD416D427F191D003B0200D488E0BB4B01349C4200D110E13A00B94B51461A4001235007ED08520264050543120B640D0B40002104
:40628000280012030D0D120B64052D0515436208AF4CDB072C401443640064081C4321001CBC90469946A246F0BDA74B9C42C5D080231B0418436346382B00DDFDE01F2B69
:4062C00000DD30E1624620239B1A02009A40664690460A009940F24046464B1E99413243114363460200DA40691A8D429B410D00BA1A5B42D71A3B0235D57A02530A9846A5
:406300004346002B00D1C4E0404600F06BFB0300083B1F2B00DDC5E020222900D21A4746D1409F400A009D403A439C4200DDC0E01C1B631C1F2B00DDE4E020211400280095
:40634000C91AD8408C408D400443DA40681E854117002543002471E7424663461A4300D14CE2674645466B0700D069E7012351467807ED08FA080B40054373498C4238D034
:4063800012036405120B640D79E7002E00DC9AE0002A47D06C4A944200D14FE78022120410436246382A00DC08E10143481E81410022C9B24919D219A942BF410D007F4230
:4063C000BF183A0200D442E15F4A0134944200D14EE101205D4A69083A4028400843D507054357089A4629E706000E4300D017E714E72900114300D1F9E1802109030A43C4
:406400001203120B3BE701235B429846C4446346002B72D1691A8D429B413F1A5B42FF1A0D0068E702000A4300D107E7012252429046C4446246002A00D0E6E06918A9423A
:40644000B6413F187642F7190D00BAE7002E00D080E0621C5205520D012A00DCF9E06A1A91464D45B6413A1A7642921B9046120200D499E04D1BA9428941C71B49427A1AF4
:4064800090469A463CE752460123002513400022F5E6280000F0A6FA20300300083B1F2B00DC39E72A002838824000259C4200DC3EE7264FE41A1740C0E60143481E814112
:4064C0000022C9B210E7002E00D0F1E0621C94465205520D012A00DCA0E01B4A944500D1C5E06918A94292413F185242D2194908D5070D4357086446A0E6134B9C4200D0C3
:40650000D9E69BE611001F3CE1400C00202B00D180E04021CB1A9A4015436A1E95410027254300241FE763460200203BDA406346202B71D0402366469B1B98400143481EDB
:40654000814111430022CFE6FF070000FFFF7FFFFFFF0F80002C48D0CA4CA24200D1A2E07442A1468024240427434C46382C00DDDBE01F2C00DD44E14E462024A41B3E000B
:40658000A640A246B0464C462E00E640B4464646644626435446A5406C1EA54134002C434D46EF400D1B28E04A4643464D461A4300D0A5E6002300240025DEE61F2A5ADC01
:4065C00066462022921B060096409146B04662460E00D640424616434A4691404A1E9141020060463143C240E4E63C002C435AD0F443A146002C52D14D1BA9428941C71BE6
:4066000049427F1A14009A4675E69E4A944200D0C7E613E600227FE700208FE7002C00D0C8E03B002B4300D10FE103000B4300D104E66918A9429B413F185B42DF193B020A
:4066400000D41AE1904B0D001F406446F6E59A4689E63A002A43002C5CD1002A75D102000A4300D1CAE007000D009A46E6E564460022002581E662460600203AD640624619
:40668000B046202A00D1B7E040226646921B904001434246481E8141114300228AE6794CA24200D061E707000D0014009A46C5E5002C41D13C002C4378D0F443A146002CDF
:4066C00020D0704CA24271D04C46382C00DDB2E01F2C00DDBCE02026341BA2463C005646B4404E46A0462C00F440A446444666463443A4465446A54064466E1EB5412543E9
:406700004C46E7406D188D4289413F184942CF19140056E6002A2FD102000A4300D184E007000D009A46574C88E53D436F1EBD41ECB200270D1B60E7524CA24236D0744239
:4067400080263604A1463743BEE702000A4300D174E56A1A90464545B6413A1A7642921B9446120200D4F7E54D1BA9428941C71B49427F1A9A4661E502000A433AD0ED08F1
:406780007C072C438025FA082D032A4208D0C7082F4205D145072C003A009A46C9080C43670FD200E5001743364C47E507000D00140043E53A002A4343D002000A4319D08D
:4067C000ED087C072C438025FA082D032A4207D0C6082E4204D147073C003200C9080C43D700620FE50017439A46264C26E50022002544E5234C21E5002049E70023002548
:40680000BBE54C463E00203CE6404C46B446202C31D040244E46A61BB7403D436C1EA54164462C4300270D1BE7E6802200231203144C0025A1E53D436F1EBD410027EDB202
:4068400060E707000D000F4CF8E407000D00F5E44E463C00203EF440A0464C46202C0ED040244E46A41BA7403D436F1EBD4144460027254346E70027CFE70D0073E500273D
:40688000F2E7C046FF070000FFFF7FFF0B0330B5134D1A0B4B005B0DC90F0024AB4211DD104CA34210DC8024640322430E4CE41A1F2C0CDD0D48C31ADA4013005C42002926
:4068C00000D11C00200030BD094BCC18FAE7E040084CA44663449A4013000343EEE7C046FE0300001D0400003304000013040000FFFFFF7FEDFBFFFF70B5051E28D000F070
:4069000071F8154B154A1B1AD21A1F2A16DD2C00134A0025D21A94405A052403240B520D002124030B0D240B1B0523430D4C1205234013435B002800590870BD0B212C00A9
:40694000081AC440954024035A05240B520DE7E700220024E4E7C0461E0400003304000013040000FFFF0F808446101C62468C46191C634600E0C0461FB500F001F900280C
:4069800001D40021C8421FBD10B500F055F84042013010BD10B500F0F3F8002801DB002010BD012010BDC04610B500F0E9F8002801DD002010BD012010BDC04610B500F0C2
:4069C0007BF8002801DC002010BD012010BDC04610B500F071F8002801DA002010BD012010BDC0461C2101231B04984201D3000C10391B0A984201D3000A08391B0998429D
:406A000001D30009043902A2105C40187047C0460403020201010101000000000000000010B5002903D1FFF7DDFF203002E0081CFFF7D8FF10BDC046F0B55F4656464D4605
:406A40004446F0B41F035C00DB0F9A46194B0E034D00C90F8046360B6D0D8B4691463F0B640D9D4219D0134B9C421BD00123A54206D018003CBC90469946A246AB46F0BD07
:406A8000BE42F6D1C845F4D1D34510D0002DF0D1304303005A1E9341EBE7310001230143E7D1E0E73A430123002AE2D1DEE70023DFE7C046FF070000F0B55F464446564603
:406AC0004D46F0B41F033C0B2C4F0E034D00A3465C008446360B6D0DC90F9046640DDB0FBD422BD0254FBC422ED0002D0ED130430700814678427841002C17D15F463A43EA
:406B000014D14B460020002B0AD006E0002C02D15846024301D099421AD00123484218433CBC90469946A246AB46F0BD0028F2D058425841012240421043F1E737000743B2
:406B4000D0D002204042EBE75F461743CDD0F8E7A542E2DC05DB5E45DFD808D000205E45DED248424841012340421843D8E7C445D3D80020C445F4D3D2E7C046FF0700001E
:406B8000F0B55F464D4644465646F0B41C03240BA4462F4C0F034D005E00C90F80463F0B6D0D8B469146760DDB0FA54220D0284CA64222D0002D12D1384344424441002E5E
:406BC00020D0002C0DD05C42634101245B421C4320003CBC90469946A246AB46F0BD002E17D05B4519D05B465C4201231C43EFE7390002240143EBD1D9E761460224114370
:406C0000E6D1D7E761460A43DBD100240028DFD0E9E761460A43E4D1E5E7B54203DD01225C421443D4E7B542CDDB6745DBD809D000246745CCD259464C4261410124494291
:406C40000C43C5E7C845CED80024C845F3D3BFE7FF07000030B50024A24208D0035D651C0C5DA34201D0181B02E02C00F4E7002030BD002310B59A4203D0CC5CC4540133CA
:406C8000F9E710BD03008218934202D019700133FAE77047F0B58BB014001D1E129906DA802424061B191D0014002D2300E000230B702023149E03229E43462E07D033005A
:406CC000453B59424B411099013ACB18109309AB049308AB0393139B00920293109B220001932B0000F0B6FD0700472E02D1119BDB072DD5109BFB180793462E14D13B78A8
:406D0000302B0CD10022002320002900FFF73CFE002804D10123109A9B1A139A1360139B079A1B68D31807930022002320002900FFF72AFE3022002802D0079B099307E049
:406D4000099B0799994203D9591C09911A70F7E73800099B159ADB1B13600BB0F0BDF7B52B2307000C000270861C002901DA2D234C427B70092C1CDD6B46DD1D20000A2133
:406D8000FEF770FB013D3031297020000A21FEF783FA04000928F1DC013D30342C706B4607333000AB4209D92B78013533700136F5E73023E4183370B01C7470C01BFEBD8D
:406DC000F0B595B00C000A920B931A9D099001F08FFC036818000D9300F09CFC0023129323680E900C930C99277E2B680722C90501D59B1800E0073393431A0008322A6031
:406E00001A685B68A264E3640122E56CA66C6B005B080F935242C04B30000F9902F0A4FE002819D10122BC4B524230000F99FFF7BBFD002810D10022002330002900FFF7CC
:406E4000A9FD002803D023002D2243331A70B34D472F0ED8B24D0CE032002B003000290002F082FE002800D19AE1AE4D472F00D8AD4D03230C9A236101339A4322600026D0
:406E800042E0672F00D193E1472F00D190E10C9A0021134312AA059211AA0392232223600691019308A9636852180292009332002B0004970998FFF7EDFE20233A00050061
:406EC0009A43472A00D18EE11199652F00D996E1200001393A0050301191FFF740FF129A060083182361012A00DD85E12268D20700D581E1232308AA9B181B78002B03D076
:406F000023002D2243331A700B9B13AA009321000A9B099800F0A4F9431C02D1012040429BE12268530501D4236964E0652F00D8CCE0A06CE16C00220023FFF725FD002827
:406F40002CD00123794A0A9909980B9DA847431CE4D0119B129A934208DB2368DB0705D4236800259B0700D50FE113E10B9D0E9B0D9A0A990998A8470025431CCED0129BE5
:406F8000013B9D42ECDA220001231A320A9909980B9EB047431CC1D00135F0E7119B002B2BDC0123614A0A9909980B9EB047431CB4D0119B002B05D1129B002B02D1236826
:406FC000DB07CDD50B9E0E9B0D9A0A990998B0470026431CA2D0119B5B429E420ADA220001231A320A9909980B9FB847431C95D00136F0E7129B2A00ACE0A36D129E9E4281
:4070000000DD1E00002E05DC00230C93F343DB170F9315E033002A000A9909980B9FB847431CF1D17AE7220001231A320A9909980B9FB847431C00D170E70C9B01330C9379
:407040000F9BA26D0C993340D31A9942EBDBAE18119B129A93420DDB2368DB070AD4129B119AED18AD1B9B1A9D4200DD1D00002D09DC11E00E9B0D9A0A9909980B9FB84798
:40708000431CECD14AE72B0032000A9909980B9EB047431C00D141E7EF43FB1700260C930AE0220001231A320A9909980B9FB847431C00D132E70136119A129B0C999B1A46
:4070C0002A000A409B1A9E42EBDB49E7129B012B02DC01231A4245D001232A000A9909980B9FB847431C00D118E70E9B0D9A0A9909980B9FB847431C00D10FE7A06CE16C1F
:4071000000220023FFF740FC002801D000251AE0129B6A1C013B26E0FFFFEF7F08C2001004C2001010C200100CC2001014C20010220001231A320A9909980B9FB847431CAB
:4071400000D1EBE60135129B013B9D42F0DB2200330050320A9909980B9DA847431C00D0FEE6DBE62A000A9909980B9DA847431CEDD1D3E62200012319320A9909980B9EC5
:40718000B047431C00D1C9E60135E368139A9B1A9D42EFDB139BE06898425EDA18005CE080236268DB00511C00D06AE6073202E0002A02D10122626069E60C9908A80B434D
:4071C0000021069112A9059111A90391232109182360019300922B000497029132000998FFF758FD0500119BDA1C02DB626893421CDD023FFFB267E6013323617AE6662FAB
:4072000015D16368002909DD2161002B02D12268D2071ED50133591821611AE0002B03D101222168114213D09A1C11E06727119B129A934206DB22682361D20709D501337A
