:020000041008E2
:4000000000780408EB0208100D00000051030810510308105103081051030810000000000000000000000000000000004D0308104D030810000000004D0308104D030810DA
:400040004D0308104D0308104D0308104D0308104D0308104D0308104D0308104D0308104D0308104D0308104D0308104D0308104D0308104D0308104D0308104D03081000
:400080004D0308104D0308104D0308104D0308104D0308104D0308104D0308104D0308104D0308104D0308104D0308104D0308104D0308104D0308104D0308104D030810C0
:4000C0004D0308104D0308104D0308104D0308104D0308104D0308104D0308104D0308104D0308104D0308104D0308104D0308104D0308104D0308104D0308104D03081080
:400100004D0308104D0308104D0308104D0308104D0308104D0308104D0308104D0308104D0308104D0308104D0308104D0308104D0308104D0308104D0308104D0308103F
:400140004D0308104D0308104D0308104D0308104D0308104D0308104D0308104D0308104D0308104D0308104D0308104D0308104D0308104D0308104D0308104D030810FF
:400180004D0308104D0308104D0308104D0308104D0308104D0308104D0308104D0308104D0308104D0308104D0308104D0308104D0308104D0308104D0308104D030810BF
:4001C0004D0308104D0308104D0308104D0308104D0308104D0308104D0308104D0308104D0308104D0308104D0308104D0308104D0308104D0308104D0308104D0308107F
:400200004D0308104D0308104D0308104D0308104D0308104D0308104D0308104D0308104D0308104D0308104D0308104D0308104D0308104D0308104D0308104D0308103E
:400240004D0308104D0308104D0308104D0308104D0308104D0308104D0308104D0308104D0308104D0308104D0308104D0308104D0308104D0308104D0308104D030810FE
:400280004D0308104D0308104D03081010B5054C237833B9044B13B10448AFF300800123237010BDB46D020800000000ECA00810084B10B51BB108490848AFF3008008489E
:4002C000036803B910BD074B002BFBD0BDE81040184700BF00000000B86D0208ECA0081038470208000000007047FFF7FDFF72B6104C114DAC4209DA21686268A368043B5A
:40030000A2BFC858D050FAE70C34F3E70B490C4A00209142BCBF41F8040BFAE709480A490860BFF34F8F00F08BFA00F065FA00F0D7F8FEE7F8C00A1010C10A10B46D0208F4
:40034000A89702080040020808ED00E0FEE7FEE700B504207146084202D0EFF3098001E0EFF30880043003F0DFF8FEE770B582B005460E46084C0146204600F08DFC02A8EC
:4003800000F8046D012100F08DFC2946204600F05BFC002002B070BDB042020800B58FB01E4B1B88ADF804309DF8053013B91C4AD35C00E00023022B2CD11223ADF83430B3
:4003C000184B0B931423ADF8303006AB0EAA12E9070083E807000022ADF824200F490988ADF826108DF82820184612F051F80E4B1B687BB102AB0EAA12E9070083E80700BD
:40040000064A1288ADF81420184611F07FF9074B5A881A800FB05DF804FB00BF409702084C97020804970208009702088C42020810B586B044F2080398420ED00C4603D875
:40044000B0F5805F09D046E045F2010398420BD045F20C0398420AD03DE000201F4B1860014603F001FD36E0FFF798FF33E00B89122B13D101AB07C983E807000022ADF898
:400480001020A289ADF8122040228DF81420184611F0FEFF10B9E06811F046F92389132B19D101AB94E8070083E807000022ADF81020A289ADF8122040228DF8142018465B
:4004C00011F0E6FF23681B7803F00103034A1360E06811F029F906B010BD00BF0097020870B500F0BFFC62B6514B1B689D6893F87320032000FA02F493F8701093F872208E
:4005000001FA02F2224342F00042C5F800249C68D4F8002493F87310884093F8702093F8721002FA01F1014302F001020A4342F00042C4F800249B68D3F8003404F01AFD4B
:400540003C4C3D49204601F0F9F93C4B1868002302221946406805F061FF394800F058FC3849204601F0EAF90121002000F0CEF9002000F081FA08210020FFF7F7FE102111
:400580000020FFF7F3FE002514E000EB400105EB4504E3000B442C490B4400219954013200E00022022AF0DD013000E000200728F7DD0135FF2DF9DD244BEE221A70D52218
:4005C0005A700025204B224A0021084600F066FA00242AE0E3B21D4A9370D5700135EDB2002213E0161D1B4B83FB0213A3EBE27303EB840103EB4303D01A01EB4101124BEF
:4006000019440B5CDBB211498B5501320B2AE9DD0E4BAD221A74FA225A74FFF7BFFE2BF0F3F8002002F0BCFE0134012CD2DDC9E73C9702080000664040850810F446020877
:400640003104081048850810007F020804970208FC7E02085655555508B5012000F0C2FF08BD00BF704700BF5C4AD2F8803303F00F0303F1D00152F8212002F00702032A18
:4006800004D0042A05D092B9554914E0554A116811E003F1C002514951F8222002F01F02112A06D0132A04D04FF4FA4103E04E4901E04FF400418BBB484BD3F8902502F0C5
:4006C0000100D3F88825C2F30172D3F8883513F0405F07D0414BD3F88835C3F30173012B02D102E0012300E0002303B108B9032A46D13A48D0F88025C2F31103D0F8842530
:40070000C2F30C02D0F88005C0F300600130B1FBF2F202FB03F2B2FBF0F131E0012B2FD12E4BD3F8402602F00100D3F80026C2F30172D3F8003613F0405F07D0274BD3F8AB
:400740000036C3F30173012B02D102E0012300E0002303B108B9032A12D12048D0F8002602F07F02D0F80036C3F30423D0F80006C0F3044002FB01F2B2FBF3F2B2FBF0F113
:40078000164BD3F88033C3F3011321FA03F215494A601648D0F89030C3F3072301330069000E0130B2FBF0F08860B2FBF3F3CB600B6103F5742202F23F220D48A0FB020260
:4007C000C2F387420A7503F2E7330A4AA2FB03239B098B61DB03CB61704700BF0000264000127A009042020800366E010000214083DE1B43D34D621008B50D4802F012FF8C
:40080000FFF730FFFFF730FF00221146042000F06DFC084800F044FD074B1B6893F8513013B1064800F0ACFD02F008F808BD00BF5C8C0810D06D02083C97020858850810DC
:4008400008B502F0CEFE074AD2F8883043F47003C2F88830BFF34F8FBFF36F8F02F0C5FE08BD00BF00ED00E0F0B583B005460F461C4C0146204600F00FFA02AE112306F860
:40088000083D0121304600F00DFA2946204600F0DBF92946204600F0FFF90A238DF800300121304600F0FEF92946204600F0CCF92946204600F0F0F947F020078DF804701E
:4008C00000268DF80560FF238DF80630032101A800F0E8F92946204600F0B6F9304603B0F0BD00BFB042020810B582B041F040018DF8041000248DF805408DF806200321A9
:4009000001A800F0CFF9204602B010BD2DE9F04182B004468846062000F070F9012000F06DF9042000F06AF94FF47A7002F0C0FD042000F08FF94FF47A7002F0B9FD042002
:4009400000F05CF90A2002F0B3FD4FF47A7002F0AFFD474D2146284600F09EF94FF47A7002F0A6FD2146284600F06EF94FF4FA7002F09EFD2146284600F08EF902AE112353
:4009800006F8083D0121304600F08CF92146284600F05AF90A2002F08BFD2146284600F07BF90A278DF800700121304600F07AF92146284600F048F9384602F079FDB8F13C
:4009C000000F43D0002214212046FFF78DFF962201212046FFF788FFD02202212046FFF783FF842203212046FFF77EFF962000F001F9202205212046FFF776FF2022062101
:400A00002046FFF771FFA02207212046FFF76CFFA02208212046FFF767FFA02209212046FFF762FFA02239462046FFF75DFFA0220B212046FFF758FFA0220C212046FFF7FE
:400A400053FF202215212046FFF74EFF642002F02FFD01AA03210020FFF706FF9DF80410044805F0C3FC002002B0BDE8F08100BFB04202088C85081010B5044603220421A9
:400A8000FFF732FF022217212046FFF72DFFFF220F212046FFF728FF002010BD2DE9F0418AB00546019190461C4601464F4800F0F3F84F4B1B6913F0100F01D1012300E005
:400AC0000023002BF5D0494E2946304600F0E4F80AAF0A2307F8203D0121384600F0E2F82946304600F0B0F81B2103A800F018F92946304600F0A8F82946304600F0CCF87C
:400B000008238DF808300121384600F0CBF82946304600F099F89DF80D3088F800309DF80E3088F801309DF80F3088F8023000238DF8273051E0019B03EB4303DA00A118F5
:400B40009DF827209DF8273003EB430304330AA8034413F81C3C02EB42028B54019B03EB4303DA00A1189DF827209DF8273003EB43030533034413F81C3C02EB42020A4416
:400B800053709DF82730DBB2072B0CD1019A02EB4202D300E2189DF8273003EB43031344FF229A7013E0019B03EB4303DA00A1189DF827209DF8273003EB430306330AA872
:400BC000034413F81C3C02EB42020A4493709DF827300133DBB28DF827309DF82730DBB2072BA8D900200AB0BDE8F081B04202088002324008B502F05BFC08BD0138052803
:400C00001BD8DFE800F003070B0F131710220B4B9A60704710220A4B9A6070474022074B9A6070472022054B9A6070470822054B9A6070474022024B9A60704700053240A1
:400C4000800232408004324008B50520FFF7D6FF08BD00BF0138042817D8DFE800F003070B0F13001022094B5A6070471022084B5A6070474022054B5A6070472022034B77
:400C80005A6070470822034B5A60704700053240800232408004324008B50520FFF7DAFF08BD00BF2DE9F04782B002AF82460E46CB1D23F00703ADEB030D0DF108094FF0FD
:400CC000FF08154B009333464A465146134801F045F8D0B94FF47A740F49104801F0F0F80546012002F0E4FB013C15F0010F01D0002CF1D115F4066F07D10749074801F05A
:400D0000DDF8864201D14FF00008B8F1000FD8D14046BD46BDE8F08718970208000063402DE9F04385B080460F464FF0FF0900238DF80E304FF47A75FF2600238DF80F3097
:400D4000214B009301230DF10E020DF10F011F4801F004F8C0B94FF47A741B491B4801F0AFF8013C10F0010F01D0002CF5D110F4066F09D19DF80E3008F806300136F6B28C
:400D8000BE4201D14FF00009012002F091FB013DBE4201D2002DD0D1B9F1000FC7D10C4805F024FB002405E018F80410094805F01DFB0134BC42F7DB074805F017FB48466E
:400DC00005B0BDE8F08300BF18970208000063409C85081098850810A485081010B504462146034800F064FD0028F9D010BD00BF00006640054BD3F80833C3F30803002BE5
:400E0000F8D0024BD3F84003704700BF0000664098B108B50A4AD0620A4B1B7843B91046094B536302F06CFC0122064B1A7000E0002020B902F08EFC08BD0448704708BD69
:400E4000B4420208506F0208C48508100100160008B50249024801F035F808BD189702080000634010B5144B1B7883B9134C144A1449204600F03EFE236A23F04063236239
:400E80001149124800F04AF801220B4B1A700F4BB3F90030002B08DB590903F01F03012202FA03F30A4A42F82130044A136843F00043136010BD00BF786F020800006340C8
:400EC00018970208A0870810510E0810BC85081000E100E038B50D4B9A680D4B9A420FD10D46044621B940F237110A4802F004FB04F11003064A52F8230042F8235038BD73
:400F00001030054B53F8200038BD00BF00ED00E000400208D48708100000081048B338B504460D464368072B03D93221134802F0E3FAB4F900306268002B08DB5201D2B219
:400F400003F1604303F5614383F8002305E003F00F035201D2B20A49CA540A4B9A680A4B9A4208D12946B4F90000FFF7B3FF002038BD06487047002038BD00BFD4870810E8
:400F800014ED00E000ED00E0004002080100560038B50B4B1B68D3F8B4301B58002B0DDA0D4604460B0C1B0423B140F2D521054802F0A2FAA9B26160002038BD024838BDCE
:400FC0003C9702081888081001008A0038B50368002B01DA002300E0094B73B90D460446C2600B0C1B0423B140F2BB21054802F083FAA9B2A160002038BD014838BD00BFEF
:4010000001008A001888081038B504460D4619B99921084802F070FA074B1B68D3F8B4301B59002B03DAE3682B60002038BD034838BD00BF588808103C97020801008A0061
:40104000254B1B6893F8313083423AD900293AD00B6813F01F0F38D170B50D4604461E4B1B6893F83130984204D340F2C3111B4802F042FA184B1B68186AB3F8B03004FB05
:401080000304174E34602A68D2080021686804F033FD00212046FFF77BFF346825B940F293310E4802F028FA2A4600212046FFF78DFF60B900210A4B1868FFF769FF40B9FF
:4010C00070BD084870470748704706487047064870BD054870BD00BF3C970208188808107C6F020803018A0001018A0010B504461346B2B9A9B9124B1B6893F8313098427E
:4011000004D340F2C3110F4802F0F6F90C4B1B681A6AB3F8B03004FB03240B4B1C60002010BD43B149B1084A51609360111D2046FFF786FF10BD054810BD044810BD00BF1A
:401140003C970208188808107C6F020803018A002DE9F0411B4B1B68DC68236883422CD90D464609A0EB4610012303FA00F819B902F037FA074600E00027124B1868036861
:40118000002B01DA002300E00F4B83B9626852F8263018EA030F05D148EA030342F82630002400E0094C0021FFF7F2FE00E0084C25B9384602F019FA00E0064C2046BDE842
:4011C000F08100BF7C6F020801008A00020188000301880004018A002DE9F0411B4B1B68DC68236883422CD90D464609A0EB4610012303FA00F819B902F0F3F9074600E057
:401200000027124B18680368002B01DA002300E00F4B83B9626852F8263018EA030F05D023EA080342F82630002400E0094C0021FFF7AEFE00E0084C25B9384602F0D5F939
:4012400000E0064C2046BDE8F08100BF7C6F020801008A00020188000301880004018A000B4B1B68DB681A6882420CD94109A0EB4110012202FA00F05B6853F821301842A6
:4012800003D004487047044870470448704700BF7C6F02080101880004018A0000018800024B1B680BB9014B18607047886F02082DE9F8430446884691461D46089F2C4B2B
:4012C0001B681BB9B5212B4802F016F9284B1B682C2000FB04F01C18EEB21E50C5F3072363602D0CA560244B1B6893F831309E4204D340F2C311214802F0FEF81E4B1B681F
:40130000196AB3F8B02006FB02162661666893F832309E4204D340F2DF11184802F0ECF8154B1B681D6A803605EB46156561A668330C1B0423B14FF4FF71104802F0DCF803
:40134000330C1B0423B140F2FF110C4802F0D4F8B3B243EA0646AE60C4F81C90C4F820800023A36117B1B7F90030A381BDE8F883886F0208988808103C9702081888081056
:40138000F0B58FB0044618B95221274802F0B4F8A369072B03D95621234802F0ADF8E36A1BB95821204802F0A7F8236B1BB959211D4802F0A1F807AD04F114060FCE0FC548
:4013C00037682F6002AD26460FCE0FC533682B60164B1B68B3F93620079B1344ADF83030089B0D93A26AE16A0CAD00953B460A98FFF75EFF00210091069B0A460598FFF755
:4014000057FF216B2846FFF789FDBDF93030002B08DB590903F01F03012202FA03F3044A42F821300FB0F0BD988808103C97020800E100E0F8B506460F461D4614461AB937
:40144000FD211F4802F058F81E4B1B681BB9FE211B4802F051F81B4B1B682C2101FB063001FB07314B68012202FA03F31B04466802FA06F60269EAB18F69EFB91268002AB5
:4014800001DA002200E0104AC2B92288134323600369DC6001238B614D620469330C1B0423B140F2BB21094802F026F8B2B2A2600020F8BD0648F8BD0648F8BD0548F8BD3F
:4014C00098880810886F020801008A001888081004028A0007028A00F8B505460F4616460E4B1B6823B94FF4AF710D4802F004F80A4B1B682C2404FB0534236A23B94FF43A
:40150000B171074801F0F8FFE369B34204D9236A43F826700020F8BD0248F8BD886F0208988808100A028A0070B582B000230193044620B940F2D111284801F0DDFF236925
:4015400023B94FF4E971254801F0D6FF636923B940F2D311214801F0CFFF236A23B94FF4EA711E4801F0C8FF6369DD682A0C20D012041A601B682069194B1B68D3F8B4304B
:40158000C358002B15DA01A9FFF73EFD60B9019803681E0CDBB2E269934206D2226A52F8233013B1984700E0002631462069FFF7EFFCADB275B16369ADB21D601B68636A1F
:4015C0001BB198470023636202E0A36A03B198470023A36163691B6802B070BD988808103C97020810B50446074B1B6823B940F2B111064801F080FF034B1B682C2000FBE2
:401600000430FFF791FF10BD886F02089888081010B504460D4B1B6893F83C30834204D84FF491710A4801F067FF04F1D003094A52F8230000F00700042806D1C03452F8BA
:40164000240000F01F0040F4807010BD3C970208D888081000002640B0F5C26F80F09B80B2F5C26F80F09980B1F1807F80F09780F0B401244C4B1C70FF2805D800F00F00B2
:401680000F26374607231DE0B0F5A06F05D200F00F030F260027384614E0C0F30325B0F5C06F07D20001C4B245EA0403FF260027384607E0030203F470632B4340F60F7618
:4016C00000273846FF2A09D81201D2B2104343F4E02347F0F00746F4702620E0B2F5A06F06D2120402F47022134346F4702616E0140A240404F470241C43B2F5C06F06D2F2
:40170000130503F47003234346F47F0607E0120602F07063234346F0706646F47026234A1268156AB2F8B020C2EBC202AA58002AF5DA1D4A527822B11D4AD2F81C25002A10
:401740001DDA41F61F741B4A146043F63D54043A1460A2F58272D2F8184524EA07073843C2F81805D2F8140520EA06063343C2F814350D4B5960C2F81C15002000E00E486F
:401780000A4B1A68116AB2F8B030C3EBC3030B4400225A6005E0084870470748704706487047F0BC704700BF8C6F02083C970208000026400801264001004A0070B5054623
:4017C0000022214B1A70214B1B681A6AB3F8B030C3EBC303D418D358002BF4DA1C4B1A6841F61F739A4207D11A4B1A6843F63D539A4203D0002602E0002600E00126164BF4
:40180000D3F8202522F07F4000226260D6B1D0B165B90D4B5E684408002502460023E1FB06452046294603F0C1FF70BD064B5A68540800250023E1FB00452046294603F047
:40184000B5FF70BD002070BD8C6F02083C97020808012640040126400000264010B4D0F8003303F00F03072B06D900230DE0D0F84043CC54013300E000239342F7D306E00C
:40188000D0F8404321F8134001339342F8D35DF8044B704710B51446D0F80833C3F308039A4200D31C462246FFF7D8FF204610BD036813F4006F01D0802200E04022D0F888
:4018C0000832C3F30803934203D0C0F84012012070470020704700BF10B4D0F8003203F00F03072B06D900230DE0CC5CC0F84042013300E000239342F7D306E031F813404F
:40190000C0F8404201339342F8D35DF8044B704710B51446036813F4006F01D0802200E04022D0F80832C3F30803D31AA34200D81C462246FFF7D0FF204610BD30B403680B
:4019400013F4006F01D0802200E04022002408E0D0F80832C3F308039A42F9D0C0F8405201340D5D002DF3D130BC704702E0C0F84012013A002AFAD1704700BF02E0D0F80F
:40198000403301390029FAD1704700BFF8B506460D46036813F4006F01D0802400E04024D6F80832C3F30803E41A6B699C4200D91C46AA692244AA611B1B6B612F6977B130
:4019C000224639463046FFF787FFD6F8003203F00F03072B00D9640027442F6105E022464FF6FF713046FFF7C1FF6B69BBB92B6843F002032B60D6F8883F23F0010423F40F
:401A0000EE6323F0030323B140F22A41044801F073FDC6F8884FEB690BB101209847F8BD60890810F8B506460D46D0F80843C4F308048B68A34200D21C46EA682244EA6093
:401A40001B1BAB606F6877B1224639463046FFF705FFD6F8003303F00F03072B00D9640027446F6003E021463046FFF787FFAB6883B9D6F8C83F23F0010423F4366323F0E5
:401A80000D0323B140F29A31194801F035FDC6F8C84FF8BD326A002A07DA326812F4006F01D0802209E0402207E0326812F4006F01D0802200E0402252089A4216D95C1E79
:401AC000336813F4006F01D0802300E040239C4204D34FF42071064801F00EFDD6F8043323F0FF02E3B21343C6F80433F8BD00BF60890810002800F02481F8B505460029FF
:401B000000F0218117460C460B78012B03D93F218F4801F0F1FC6378012B07D9052B05D0022B03D040218A4801F0E6FCA378032B03D94121864801F0DFFC2378012B07D112
:401B40006368023B0E2B03D94321814801F0D4FCA36933F00F0303D044217D4801F0CCFCA368043B0C2B03D94521794801F0C4FCE368043B0C2B03D94621754801F0BCFCC4
:401B80006378022B07D0A268E3689A4203D047216F4801F0B1FC636A33F06D0303D049216B4801F0A9FCE36A33F0730303D04A21674801F0A1FC236B33F4206303D04B21C7
:401BC000634801F099FC6378A678052B07D8DFE803F0060305060603022600E00026A368082B04D8E368082B03D9002302E0002300E0012313B14FF4006200E00022237FFA
:401C000013B14FF4807300E000231A436368013B03F00F03134343F080732B60226A2B6813F4006F01D0802300E040239A4203D35821474801F060FCA26A2B6813F4006FCF
:401C400001D0802300E040239A4203D35921404801F052FC237D0BB9012100E000216278052A01D1022300E000230B43E17C09B1102100E000210B43617C09B1202100E093
:401C800000210B432178012902D14FF0004100E000210B43B60006F00C063343A169090201F470610B43120602F0407213432B62237C13B14FF4807200E00022A37C13B1D7
:401CC0004FF4007300E000231A43A368013B03F00F031343C5F8003394F82030C5F80433237C13B14FF4807200E00022E368013B03F00F031343C5F8003294F82830C5F860
:401D00000432636A03F06D03C5F8C83FE36A03F07303C5F8883F236B03F40073C5F8003F236B03F40063C5F8403F0023C5F8C83E5FB118463B60BB61FB60FB61054B3B6278
:401D4000F8BD054870470448F8BD0020F8BD00BFA4890810EFCDAB000140AA002DE9F84306460F4690461D46089C24B940F255214E4801F0C1FB226A4D4B9A4204D040F2E1
:401D800056214A4801F0B8FB4DB127B9B8F1000F03D0002302E0002300E0012323B140F25721424801F0A8FB236813F0010F79D1336813F4006F02D04FF0800901E04FF092
:401DC000400901232360276165610023A361C4F80480A560E3604FEA5904336813F4006F01D0802300E040239C4204D34FF43A71304801F081FBD6F8043223F0FF03234391
:401E0000C6F80432336A002B24DA4D4501D9A51E00E0013D336813F4006F01D0802300E040239D4204D34FF42071224801F064FBD6F8044324F0FF04EDB22543C6F8045347
:401E40000020C6F8080F0123C6F8C83FC6F8883FBDE8F883A54201D9A51E00E0013D336813F4006F01D0802300E040239D4204D34FF420710F4801F03FFBD6F8043323F051
:401E8000FF03EDB21D43C6F804534FF40063C6F8483F2123C6F8C83F4123C6F8883F0020BDE8F8830448BDE8F88300BFA4890810EFCDAB00608908100240AA00C868704744
:401EC0000868704738B504460D46D0F8CC3E13F0010F04D00123C0F8C03ED0F8C03ED4F84C3F13F4006F0BD02B6843F400632B604FF40063C4F8403FD4F8403F012300E048
:401F00000023D4F8CC2F12F0200F09D02B6843F020032B602023C4F8C03FD4F8C03F0123D4F88C2F12F0400F09D02B6843F040032B604023C4F8803FD4F8803F01231BB1AE
:401F4000EB690BB104209847D4F8CC3F13F0010F08D029462046FFF765FD0123C4F8C03FD4F8C03FD4F88C3F13F0010F08D029462046FFF70BFD0123C4F8803FD4F8803F36
:401F80002B6813F0010F0BD0AB684BB96B693BB92B6823F001032B60EB690BB10220984738BD00BF2DE9F84305460C46036813F4006F02D04FF0800801E04FF04008D5F82A
:401FC000007207F00F07A26A012A19D9D4F82490E262561EB9F1000F00D026B940F27351254801F089FA324649462846FFF790FCA36A1B1AA362072F00D9400048446062E7
:40200000D5F80832C3F30803984533D0A36A012B30D10023A362072F02D8636A1E7801E0636A1E8801F0DDFAC5F840624FF40073C5F8803FD5F8803F01F0D7FAD5F8883F94
:4020400023F4007222F0010242F4007623F4EE6323F0030323B140F22A41084801F04CFAC5F8886F236843F002032360236B0BB101209847BDE8F883E489081060890810B3
:402080002DE9F04105460C46036813F4006F01D0802600E040267608A769D4F81C8017B1B8F1000F04D14FF49961314801F024FA424639462846FFF7EDFB236A03442362E2
:4020C000E3691B1AE36173BBA368FBB1E3689E4201D8013E00E05E1E2B6813F4006F01D0802300E040239E4204D34FF42071214801F002FAD5F8043323F0FF03F6B21E43D4
:40210000C5F804630123C5F8C83F02E00023C5F8C83F636823F001036360236B33B304209847BDE8F081A169D5F8002302F00F02072A00D940000844A0619E4216D95C1EBB
:402140002B6813F4006F01D0802300E040239C4204D34FF42071074801F0CEF9D5F8043323F0FF02E3B21343C5F80433BDE8F081E489081060890810002800F0A48170B51A
:402180000546002900F0A18116460C460B78022B03D93F21A24801F0AFF9637B023BDBB2062B03D940219E4801F0A6F9A37B3BB1022B05D0032B03D04121994801F09CF91A
:4021C00094F82130012B03D94221954801F094F994F82830012B03D94321914801F08CF92378012B06D86368083B082B94BF0023012307E0A37F2BB16368013B062B94BFAD
:40220000002301231BB14521854801F075F9A368053B042B03D94621814801F06DF96369FF2B03D947217E4801F066F9A369FF2B03D948217A4801F05FF9A37C6BB1237870
:4022400033B9A368092B05D1A37B2BB1012304E0012302E0012300E000231BB14A21704801F04AF9636B23F4366323F00D031BB14C216B4801F040F9E36B23F4EE6323F08B
:4022800003031BB14D21664801F036F92378022B01D1A37F13B16268013A00E00022237F13B14FF4803100E00021A368082B02D84FF4006300E000230B4302F00F021343C6
:4022C00043F000732B60226B2B6813F4006F01D0802300E040239A4203D36221504801F00BF9A26B2B6813F4006F01D0802300E040239A4203D36321494801F0FDF8626A58
:402300002B6813F4006F01D0802300E040239A4203D36421424801F0EFF823781B0603F040732B64637F0BB1402200E00022A37C13B14FF4806300E000231343227C12B18E
:402340004FF4807200E000221343627C12B14FF4007200E000221A43E36A013B1B0403F470231343627B013A02F007021343A27B120102F030021343AB64237B13B14FF4CC
:40238000807200E00022E37B23B92378022B03D1012302E0012300E0002313B14FF4007300E000231A43A368013B03F00F031343C5F80033227DA3691B0403F47F03134321
:4023C000C5F81033E26AD5F8003303F00F0303339A4201D3102A03D97A21114801F08CF8E37F23B12378012B03D0002302E0002300E0012313B14FF4807200E00022637B52
:40240000013B03F007031A43A37B1B0103F0300313436B64237B2BB14FF4807203E000BF248A08100022A368013B03F00F0313432278012A02D14FF4803200E000221343C1
:40244000C5F8003294F83030C5F8043394F8203013B14FF0007200E0002294F82130012B02D14FF0807300E00023134394F82820012A02D14FF4803200E00022134394F828
:40248000242013432B6594F83830C5F80432636B23F4926323F002031B051B0DC5F8C83FE36B23F08C035B055B0DC5F8883F76B1002070603060B060F0603062F062306353
:4024C000044B736370BD04487047034870BD002070BD00BFEFCDAB000160AA000B694A69934202D34869181A7047CA694869101A184470472DE9F04107460D46036813F4AC
:40250000006F02D04FF0800801E04FF040084FEA5808D7F80863C6F308062C6926E00134EB689C4200D100246B699C420FD12B6B0BB1082098476B699C4208D10023C7F843
:40254000C83F0CB1013C13E0EC68013C10E0D7F84023D7F8003303F00F03072B02D8AB681A5502E0AB6823F81420013E002ED6D12C61EC6829463846FFF7B0FF201A804555
:4025800019D908B1441E00E000243B6813F4006F01D0802300E040239C4204D34FF42071064800F0A9FFD7F8040320F0FF03E0B21843C7F80403BDE8F08100BF608908105A
:4025C00038B504460D46D0F8003E13F0080F35D0D0F8CC3F13F448730AD04A681A434A60C0F8C03FD0F8C03F0B6B0BB110209847D4F8CC3F13F4006F09D06B6843F40063B2
:402600006B604FF40063C4F8C03FD4F8C03FD4F8CC3F13F0010F11D0EB6923B129462046FFF72EFD05E0AB681BB129462046FFF761FF0123C4F8C03FD4F8C03FD4F8003E17
:4026400013F0040F2ED0D4F88C3F13F4A0630AD02A681A432A60C4F8803FD4F8803F2B6B0BB120209847D4F88C3F13F0010F08D029462046FFF796FC0123C4F8803FD4F891
:40268000803FD4F88C3F13F4007F0BD00022C4F8882F2B6823F001032B60EA622B6B0BB10220984738BD00BFC0F30800B0FA80F0400970471F4B98422DD00CD840282ED0E6
:4026C00003D8E8B1102828D02FE0802829D0B0F5807F28D029E0184B984228D006D8B0F1204F0DD0154B984212D01EE0144B98420AD00133984209D0023B984215D101E0EF
:40270000002070470F4870470F4870470F4870474FF4A0007047074870470D4870470D4870470D487047034870470C4870474FF4A400704706005200010000F0090000A037
:40274000040000F0010052000200520003005200010050000200500005005200FF00520038B5124B1B6893F83130012B04D840F2C3110F4800F0C0FE0C4B1D682A6AB5F835
:40278000B03013442C46D5F8B420D358002B0BDB084B1868FFF78EFF6B6801229A6063689B68002BFBD138BD034838BD3C970208648A0810986F0208020050001A4B18612F
:4027C00028B102230370FF23437000234380174B1B6893F850202AB300B583B0B3F93830ADF800300023019311496846FEF796FBBDF90030002B08DB590903F01F0301224C
:4028000002FA03F30B4A42F82130084B1B6893F8513023B1022208490120FEF75DFE03B05DF804FB704700BF986F02083C970208A947020800E100E06148020808B502484A
:40284000FFF7BCFF08BD00BFAC6F020838B505460C46FFF729FF002833D0002C33D0FDF703FF1A4B1A4A1A6000225A609D60DC60184B1B6893F85220EAB11968D3F8843030
:40288000CA58CB58C3F30721120E531C01FB0333114901FB03F3114A12681149A1FB02218909B3FBF1F101F5195108314FF4807005F036FE38BD00214FF4807005F030FE77
:4028C00038BD084838BD074838BD00BF986F0208000100053C970208C0EA210194420208D34D62100600520008B5FFF739FF08BD10B50446FFF7D8FE00283AD0FDF7B4FEAE
:402900004FF0E0521C4B1A601C4B1B7813F0FF0F04D0194A136843F480731360164B5C6000229A60DA60164B1B6893F85420DAB11968D3F88430CA58CB58C3F30721120EC7
:40294000531C01FB03330F4901FB03F30E4A12680E49A1FB02218909B3FBF1F101F69801002005F0DDFD10BD0021084605F0D8FD10BD074810BD00BF986F02080B00001603
:402980003C97020860F5900094420208D34D62100600520038B505460C46FFF785FE00283DD0002C3DD0FDF75FFE4FF0C0621E4B1A601E4B1B7813F0FF0F04D01A4A1368C5
:4029C00043F480731360184B4FF480725A609D60DC60174B1B6893F85320DAB11968D3F88430CA58CB58C3F30721120E531C01FB0333104901FB03F30F4A12680F49A1FB4B
:402A000002218909B3FBF1F101F56171002005F087FD38BD0021084605F082FD38BD084838BD074838BD00BF986F02080B0000163C970208808D5B0094420208D34D6210F2
:402A400006005200002861D0F8B5054600295FD00C460B6833F0FF0303D099212D4800F04BFD236933F0FF0303D09A21294800F043FDA3685B0D5B051BB19B21254800F099
:402A80003BFD636823F4FF7323F001031BB19C21204800F031FDE36913F0604F03D09D211C4800F029FD236A13F0604F03D09E21184800F021FD184A11688B69EB1ADB0964
:402AC00049691B01C81826682E60166896F87D60E768AF51166896F87E602769AF51166896F87F606769AF51166896F87C60A768AF516668AE61126892F88020A669AE501A
:402B0000E269CA50236A43600020F8BD034870470248F8BDA48A08103C97020801005A004FF0B0539B899BB223B14FF0B0539B899BB201E04FF48073B3F5807F15D1174A6D
:402B400013681868D3F89810435823F00F0343F00203435013681968D3F89C208B5823F00F0343F002038B50704710B40B490B681C68D3F898000A4B1B6823F44073225879
:402B8000134343F4407323500B681A68D3F89C3004490968D1505DF8044B70473C97020848180016441800164FF0B0539B899BB223B14FF0B0539B899BB201E04FF4807386
:402BC000B3F5807F15D1164A13681868D3F89810435823F00F0343F00303435013681968D3F89C208B5823F00F0343F003038B50704730B40A4803681D68D3F8984009497D
:402C00000B6823F440732A59134343F440732B5103681A68D3F89C300968D15030BC70473C970208201800164FF0B0539B899BB223B14FF0B0539B899BB201E04FF48073E3
:402C4000B3F5807F0BD10D4B1B681968D3F898208B5823F4E04343F4C0438B507047074B1B681868D3F89810054B1B6823F440734258134343F44073435070473C970208A3
:402C8000181800164FF0B0539B899BB223B14FF0B0539B899BB201E04FF48073B3F5807F0BD1114B1B681968D3F898208B5823F4E04343F480438B50704730B40A480368CD
:402CC0001D68D3F8984009490B6823F440732A59134343F440732B5103681A68D3F89C300968D15030BC70473C9702084C18001608B54FF0B0539B899BB223B14FF0B05348
:402D00009B899BB201E04FF48073B3F5807F17D10E2000F06DFC4FF0B0535B7813F0FF0F04D04FF0B0535B78DBB200E02123222B02D818B9012008BD012008BD002008BD8C
:402D4000012008BD10B50446012804D940F262710F4800F0D1FB1CB90E4B5869C00F00E000200D4B1B6893F844307BB1012C0DD1084B9B6913F0804F05D1064B9B69002BF2
:402D800003DA012010BD012010BD002010BD00BF248B0810000026403C97020838B5154B1B6893F8443023B30D460446072804D940F2CC71104800F09FFB0E4B1B6893F89E
:402DC000443023B10D4B9B6903F0070300E00023DBB29C420DD00948826922F0070104F007020A43826125B19C4202D9C82000F077FB38BD3C970208248B0810000026408C
:402E000010B30246C3680BB303680BB330B40579114B03EB85035C682346002103E0934205D019465B69002BF9D1012000E0002080B124B9084B03EB85056A6000E04A61FF
:402E400011610023536105E000207047002070470020704730BC7047B06F020850B310B402460479164B03EB840359680B4602E0934204D05B69002BFAD1002000E00120F9
:402E8000D0B18A420ED14B6933B10D4A02EB8404636000221A610FE0094B03EB84040023636009E01A69596951615A6922B11B69136101E0002070475DF8044B704700BF43
:402EC000B06F020830B583B004460D46022808D9042806D0032804D040F6B211284800F00BFB6B1EDBB2012B08D9042D06D0082D04D040F6B311224800F0FEFA214800EBB6
:402F000084004468042D12D0012D1AD111E0A3681D420AD1E3681A6800925B6801932368294668469847174B9C61646902E0002000E0002014B3144B9842E8D1012DE6D1F6
:402F40001CE0022D01D104E01C466369002BFBD103E00C4B9C6904B1246900200CE0A3681D4208D1E3681A6800925B68019323682946684698472469002CF0D103B030BD24
:402F8000248B0810B06F0208FF00420070B50546012804D94FF4E0711D4800F0ADFA1D4B5B682BB101210020FFF78CFF044600E000242CBB00F015FB0646164B5B681BB19F
:402FC00004210020FFF77EFF134A136923F004031361012D01D030BF07E020BF0D4B1B7803B120BF01220B4B1A70304600F0FDFA084B5B684BB108210020FFF763FF04E089
:4030000002210020FFF75EFF044C204670BD00BF248B0810B06F020800ED00E0FF00420008B500F0DEFA074B5A6807490A4042F468525A605A68114059605B6800F0D5FA2F
:4030400008BD00BF00002640FF00FC0FF8B50546012804D940F64C21394800F04DFA4FF0B0535B7813F0FF0F04D04FF0B0535B78DBB200E021239CB24FF0B0539B899BB242
:4030800023B14FF0B0539F89BFB201E04FF480770E2000F0ADFA98B9B7F5807F12D1222C12D8284B1B6858684FF21801435823F080722B0603F0807313434350002604E0B0
:4030C000214E02E0204E00E01F4EB7F5807F01D1222C02D8B7F5807F2FD01A4B1B6893F83130012B04D840F2C311184800F004FA144B1B681C6AB3F8B0301C44B7F5807F47
:4031000002D125B1124A05E01DB1124A02E0124A00E0124A01212046FDF758FF68B9094B1B68D3F8B4301B59002BF8DBE36803F07F43B3F1204F00D100263046F8BD00BF21
:40314000248B08103C97020804004200648A0810010100300300000C010000300100000C70B50446022806D0052804D040F202711E4800F0C1F9FFF7BBFDA0B300F031FA9F
:403180000646022C07D10120FFF760FF054678B9FFF7C6FC0CE0164A536923F0070343F003035361342000F09BF9FFF76BFD0025ADB90F494B6923F0070204F007031343C4
:4031C0004B61022C02D1FFF72FFD08E0912000F087F9FFF7E9FC0020FFF738FF0546304600F003FA00E0034D284670BD248B08100000264003004200F8B50446012804D9E7
:403200004FF402612A4800F077F9FFF771FD00284AD000F0E6F907468CB9002147F63073244AD1504FF0B05393F84067F6B20120FFF70CFF0546D8B9FFF772FC18E01E4BA0
:4032400019681C4A47F63073D1504FF0B05393F84167F6B24FF61C71535823F01F0343F00B035350032000F03BF9FFF70BFD0025B5B910494FF61C728B5823F01F0306F0A1
:403280001F061E438E5014B9FFF7CEFC08E0072000F026F9FFF788FC0020FFF7D7FE0546384600F0A2F900E0044D2846F8BD00BF248B081000002640101800160300420083
:4032C00010B5044620B940F6A121174800F014F9164A1368DB6803F5F2431B6823601368DA6802F5F04212686260D96847F604028A58A260D96847F608028A58E260D968CA
:4033000047F60C028A582261D96847F610028A586261D96847F614028A58A261DA6847F61803D358E36110BD248B08103C97020810B5044620B940F6C921174800F0DCF88A
:40334000164B1B68DA68616802F5F0421160D968A06847F604028850D968E06847F608028850D968206947F60C028850D968606947F610028850D968A06947F61402885025
:40338000D968E06947F618028850DB68226803F5F2431A6010BD00BF248B08103C97020870B50446012804D94FF426713A4800F0A3F83A4B9B682BB101210846FFF782FD0B
:4033C000054600E00025002D5ED100F00AF90646324B9B681BB104210120FFF773FD304B1B6893F8432042B19B68D3F8E03013F0100F02D02B48FFF763FF4FF0B0539B8908
:403400009BB223B14FF0B0539B899BB201E04FF48073B3F5807F03D1204605F089F81AE0214A136943F004031361012C01D030BF07E020BF194B1B7803B120BF0122174BF9
:403440001A70174B1B681A68D3F89430D35803F00303022BE4D0124B1B6893F8432042B19B68D3F8E03013F0100F02D00D48FFF75FFF304600F0B9F8084B9B684BB10821F9
:403480000120FFF71FFD04E002210120FFF71AFD064D284670BD00BF248B0810B06F02083C970208CC6F020800ED00E0FF00420010B5044605E0084B186800F089F8A4F506
:4034C0000044B4F5004FF6D8044B186800FB04F000F07EF810BD00BFAC420208A842020808B5034B1B7800FB03F000F071F808BDA442020801BEFEE738B50D46044C18221E
:403500000146204603F03CF8A5610020FFF7F2FFD84C0208024B1B685B6801229A6070473C970208FEE700BF08B50268254BDA6142681A6282685A62C2689A620269DA6229
:4035400042691A6382695A63C2699A631E4A916AD963D16A1964516A5964516B9964926BDA64F1EE103A13F0900F27D0026A154B1A65426A5A65826A9A65C26ADA65026B55
:403580001A66426B5A66826B9A66C26BDA66026C1A67426C5A67826C9A67C26CDA67026DC3F88020426DC3F88420826DC3F88820C26DC3F88C20026EC3F89020FFF7B2FFC6
:4035C00008BD00BFD84C020800ED00E0000000000230800803D001300238FCD100BF00BF7047EFF3108072B6704780F31088704710B50446094B1B689B6CC34013F0010F3C
:4036000003D1BE210648FFF777FF044B1B681B691034A402185900F00F0010BD3C970208648B0810014B1860704700BF3C97020838B5012902D0082942D047E0284B1B784C
:40364000012B45D00320FDF70BFE264B984241D001F03CFC01283FD0022006F0C7FE0546FFF7BFFF204B186028F0D0F80446062815D0022D09D1022014F082FF032C01D080
:40368000052C0ED178B1194C12E0012014F078FF022C0AD058B9FFF779FC144C08E0002406E0124C04E0002402E0104C00E00F4C0E4B9C4211D10C4B1868FFF796FF0CE0C2
:4036C000094B1868FFF791FF002406E0074C04E0064C02E0054C00E0044C204638BD00BF4497020801018800EC6F0208FF00420008B50248FFF7B2FB08BD00BFD043020800
:40370000B0B110B50B4A5060C36A03B193600024094B1C70094B1C70094B1C60094B1C7000F09AFB084B1C70084B1C70204610BD07487047EC6F0208589702085C9702081F
:40374000609702085D97020843970208489702080100160070B59AB03E4B16AC186859689A68DB680FC44C22002103A802F0C4F9394B039316AB059342F24803ADF818308B
:4037800004238DF81A30354A52681269079240F2F67208921B22ADF82420ADF8262003228DF828208DF8293006228DF82A2010228DF82B208DF82C308DF82D207223ADF8CB
:4037C000503001238DF854302548FFF719FB06F006FE09A806F06EFE0346002836D1214B04931E4B5B68996B89B10B460DF12E0220311E685D689C68D86816605560946035
:40380000D060103310328B42F3D11B88138003A806F0F8FD0346B0B90122134B1A700023124A1370124A13700C4B5B681A6A01929B6ADB88ADF808300823ADF80A3001A8AF
:403840000EF00CFE034600210A4A116018461AB070BD00BF148D081025420810EC6F0208D04302086C4D0208449702084C9702084D97020860970208014B9867704700BFFE
:4038800000F03D4008B51BF07DFD034B1B680BB100B1984708BD00BFF86F020848B108B5B1F5FD7F07D20A46044902F01AF9002008BD03487047024808BD00BF070800161A
:4038C000010016002DE9F04FADF5077DB1F1805F03D38D189D4CA54210D9B1F1A05F03D38D189B4CA54209D99A4CA14240F20F818D1804F20124A54200F20E81049317460E
:403900000E468046944B5B6913F0804F10D0924B5C6904F00704022C24D10520FFF720FC00908E4B9842F8D002940123039323E04FF61C73884AD35803F01F034FF0B05298
:4039400092F84027D2B2D31A18BF012303937BB90120FFF751FC814B9842F9D000900523029309E00294012303930023009303E00523029300230093794B009A9A4204D1AC
:4039800040F2D5117748FFF7B7FD06F17046730A01935C0200210320FDF7DAFB0028F9D10546824683E0B44213D3BD4211D218F805200DF1180E0EF8032041B904F18052F4
:4039C0001278D2B218F805E0724500D00121013506E004F1805212780DF1180E0EF803200134013301E000210B46B3F5007FDAD3002959D0009B002B56D1049B002B48D1AF
:403A00004FF0C80B05955D46DDF804B00BF500294FEA49294846FEF76BFF8246013D0120FFF75EFD0AF4A403B3F5A40F01D1002DECD1059D4C4B9A4505D1FEF755FF4B4BEC
:403A40009842FAD08246BAF1000F17D14FF0C80B5B46A3461C4606A94846FEF79BFF8246013C0120FFF73CFD0AF4A403B3F5A40F03D1002CEFD15C4600E05C463A4B9A45D1
:403A800011D1FEF731FF394B9842FAD0824601200AE0019B03F5002006A94002FEF7D6FE8246012000E00120019B01330193009B23B9BAF1000F01D1BD4294D308B1FFF730
:403AC00029FD00210320FDF787FB0028F9D1009B33BB214B5B6913F0804F09D0029B022B06D10220FFF73CFB00901C4B9842F8D0194B1B6813F4000F12D1039B83B900202D
:403B0000FFF77AFB0090154B9842F8D008E000230093DFF86CA003E000230093DFF860A0009B63B9124B9A450BD004339A4508D0BAF1000F01D1002004E00E4802E00E48BD
:403B400000E00E480DF5077DBDE8F08F0000101000800014FF070016000026400400420003004200248E08100100500002005000020052001300160012001600010016007B
:403B80000600520048B108B5B1F5FD7F07D20A4601230449FFF796FE08BD03487047024808BD00BF070800160100160070B5C0B006460C4615464FF480720849684601F02D
:403BC00090FF05E016F8012B6A401DF80250013C002CF7D1284640B070BD00BF248D081008B50022FFF7E2FF08BD00BF002070470288AE2303FB02F3A3F26F33024AA2FB43
:403C00000323DB080B807047CDCCCCCCB0F9002042F64B0303FB02F3044A82FB0302DB17C3EB2233C3F1BD030B807047AD8BDB680020704708B514F0E7FA08BD08B5FFF7DF
:403C40004FFC08BD084B1B685B6BB3F90030002B08DB590903F01F03012202FA03F3034A42F82130704700BFF06F020800E100E00A4B1B685B6BB3F90030002B0DDB5A09BA
:403C800003F01F03012101FA03F32032044941F82230BFF34F8FBFF36F8F7047F06F020800E100E0024BD3F8000500F00300704700002640024BD3F81C05C00F704700BFE6
:403CC0000000264008B5FDF779FD08BD70B504460D4616460320FDF7C3FA054B984205D0324629462046FDF7B7FC70BD014870BD0101880003004A00431A002BB8BF5B4277
:403D000093422BD310B4194BD3F83C35C3F30903884207D9411A01EB5201B1FBF2F29A1A0FD50AE0091A01EB5201B1FBF2F21A4440F2FE318A4202D803E0002201E040F2C5
:403D4000FF320A4CD4F83C1521F47F7121F00301C2F309000143C4F83C1502E00023D81A7047981A5DF8044B704700BF0000264008B5034B1A684FF40041FFF7BDFF08BD0E
:403D8000E843020810B500F055FF0220FFF774FD0A4C23680A49586BFDF7C0F823685B6BB3F90030002B08DB590903F01F03012202FA03F3034A42F8213010BDF06F0208C4
:403DC0008538081000E100E00420704708B5FFF708FC08BD08B5FFF708FC08BD08B5FFF7D5F808BD08B50021FEF7D8FF08BD00BF704700BF704700BF002070470048704725
:403E00001100160000487047110016000048704711001600004870471100160000487047110016000048704711001600004870471100160000487047110016000048704752
:403E40001100160000487047110016000048704711001600704700BF08B5024800F068FD08BD00BFCC430208F8B5022872D8002972D10022134606E03B4CE45C012C01D9A4
:403E80000132D2B20133002BF6D0012A0CD1374B1B681C6801EB8102930023445B681B79023BDBB2012B59D8314B1B78002B57D1304B1970E0B92D4F3C68236801EB810592
:403EC000AA009D186668C1EBC1014B001E44B18829822168114449686468E45A0C8039680C682244526849680B445B8853801EE001281CD11D4F3C68236801EB8105AA00BB
:403F00009D186668C1EBC1014B001E44B1892982216811444D68616819440989298039680C682244526849680B445B895380124B18700E4B1B6818680E4B1B7803EB83037D
:403F40009A0010440AF032F8034650B90121084A117006E0094B04E0084B02E0084B00E0084B1846F8BD00BF4C970208F06F02084D970208429702085D9702080100160001
:403F800002001600FF00160070B439B9144B1B681B689968CE7F00231D460EE0104B1B681B68D968CE7FF6E7CA5C52B10133CC5C1B2C01D0134400E00125B34201D2002DDC
:403FC000F2D05DB101338279CA54002204E0D4180134855C0D550132052AF8D970BC7047F06F020870B504460EF052FA054620BB134B1968086A228902EB82029300143B8D
:4040000003445A6812F0007F17D0E67B1B695A68CB69D21A06EB8606B318A28821680948184401F05EFDE37B074AD35C012B04D1064A137843F002031370284670BD00BF85
:40404000F06F020850970208489702084397020830B587B002891A4B1B685B699B889A4229D1044601AB07C883E807000022ADF81020A289ADF8122040228DF81420184624
:40408000FFF7B0FF054680B923681B7803F002039BB22BB10B4B1B6821460B48984704E0084B1B68214609489847094A137803F0FE03137000E00025284607B030BD00BFAA
:4040C000F06F0208F46F02080500010006000100589702084288531E9BB2132B1AD84178D1B910B40F4B1868046A02EB82029300143B23445A6812F0007F0FD01B695A68BB
:40410000C369D31A01EB81011944074B5B5A1380002004E0012070470120704700205DF8044B7047F06F02085097020800B583B00023ADF804308389ADF800300389ADF882
:40414000023012238DF80430084B1B7813F0010F09D129B18DF8051068460DF0B7FA02E0C0680DF0E1FA03B05DF804FB5897020810B4044688B10023194606E0104A52F847
:404180002320944200D1012101330D4A1279934206D20029F2D0002003E00021094800E0002050B949B9064B1B792BB9044A42F823400133137100E003485DF8044B7047D3
:4041C00064970208010016000300160070B506460D460020044606E0084B53F824302946304698470134054B1B799C4204D2044B1B7813F0010FEFD170BD00BF649702084D
:404200005897020883792BB100207047C25C32B9013300E00023052BF8D9002070470120704700BF70B58CB004460D46BF4A137843F00103137044F20803984200F04C8202
:404240003CD842F20403984200F0F08019D841F20203984200F0178108D8B0F5805F79D041F20103984200F00B8147E341F20303984200F0418141F20403984200F0398341
:404280003CE343F2190398425BD00AD843F20103984200F0BC8043F21203984200F0B7802CE344F20603984200F01A8200F2CD8144F20403984200F032811FE345F20C0327
:4042C000984200F0DB821BD845F20103984200F046820AD844F20A03984200F0B38144F21003984200F0B18108E345F20203984200F07F8245F20303984200F09382FDE282
:4043000045F21003984200F0E6820AD845F20E03984200F0DA8245F20F03984200F0D882ECE245F21703984200F0DB8246F20103984200F0118245F21403984240F0DE82AD
:40434000CCE2084606F0FAF9784A137803F0FE031370D3E2764B1E683046FFF753FF60B130460AF011FE724E00213068FFF70CFE01213068FFF708FE37E06E4B1A68936ACC
:404380001B791BB34FF0B05191F8043603F03F0391F8050600F03F0043EA801391F8030600F01F0043EA003391F8001601F07F0143EA4143126B13705E4A1168096BC3F3D3
:4043C000072048701268126B1B0C9370594E3368186B0AF0D9FD33680021186BFFF7D4FD33680121186BFFF7CFFD524B1B68986A02300BF0DFF9504A05AB1068516803C3B8
:4044000005A80AF0E5FD02224C4B1A7076E200234A4A13704A4A13704A4A137043F212039C4240F06B82FFF763F967E2464B1B6813F0010F40F062820023ADF814308DF842
:4044400016303C4E33689B6A93F900308DF8143005A80AF0D7FD33689B6A93F901308DF8143001238DF81530FF238DF8163005A80AF0C8FD344A136843F0010313603DE29D
:40448000FFF7A4FE3AE24978304B1B88ADF81430002319E02E4A32F81320ADF808209DF8092012B92B48825C00E00022012A0AD9274A12F81320914205D1254A32F81330A5
:4044C000ADF8143002E00133002BE3D09DF81530FF2B05D104D140F2CA311F48FFF70CF8BDF81430ADF82030ADF81C30C3F3072329781A4AD15401E20B78002B40F0FE8179
:404500000B7A33B9164B0022DA809A80154A1A604B60064A137803F0FE031370EEE149790A4B1B88ADF81430002337E058970208EC430208F06F0208608E0810449702080B
:404540004D9702081070020860970208688E0810409702084C9702086C8E08105C97020818700208B46D0208B34A32F81320ADF80C209DF80D2012B9B048825C00E000228A
:40458000012A0AD9AC4A12F81320914205D1AA4A32F81330ADF8143002E00133002BE3D09DF81530FF2B05D104D140F2CA31A448FEF7A2FFBDF81430ADF82430ADF814309A
:4045C000C3F3072369789F4AD154EB78002B40F0958169799C4B1B88ADF81430002319E0954A32F81320ADF810209DF8112012B99248825C00E00022012A0AD98E4A12F85B
:404600001320914205D18C4A32F81330ADF8143002E00133002BE3D09DF81530FF2B05D104D140F2CA318648FEF766FFBDF81430ADF82830ADF81430C3F307230121834ACC
:40464000D1545BE1FFF7C2FD58E1AB7E002B3FD12B7E012B02D100227D4B1A70E97E7A4B1B88ADF81030002319E0734A32F81320ADF814209DF8152012B97048825C00E09D
:404680000022012A0AD96C4A12F81320914205D1694A32F81330ADF8103002E00133002BE3D09DF81130FF2B05D104D140F2CA316348FEF721FFBDF81030ADF82C30ADF802
:4046C0001030C3F30723FF2B02D0297E614AD1540222614B1A7011E102225F4B1A700DE1FFF774FD5D4B1B7813F0010F00F00681574B1B78012B03D10222554B1A70FDE009
:40470000032B03D10022524B1A70F7E0022B40F0F58000224E4B1A70514B1B685B68514A1178C1EBC10203EB42039A79002A00F0E5809B88002B00F0E1804B4B1B78002B13
:4047400040F0DC800120FFF78FFB002840F0D68001223F4B1A70D1E0FFF738FDCEE00B88ADF800309DF801301BB90221334AD15405E023B940F286313148FEF7BDFE6A7821
:4047800029882D4B23F812106B780021374AD15403EB8301364E8819314B1B681B692A7802EB820202F5FE62134453F8062F8A511B790371687800EB800004213044FFF7D1
:4047C0000FFA6B7803EB830333441B7998420BD0284B1B680021284898476B7803EB8303981900229A51027129462046FFF7EEFC84E00B88ADF804309DF805301BB9002167
:404800000E4AD15405E023B940F286310C48FEF773FE6B7800210D4AD15429462046FFF7D5FC6BE00B88ADF814301723ADF8163005A80CF057FF61E0409702084C97020881
:404840006C8E081048970208688E0810107002084D970208147002084497020858970208F06F0208429702085D9702085C97020850970208F46F0208040001000A89531E9D
:404880009BB2132B13D98B89ADF81430ADF8162012238DF8183001238DF8193005A80CF015FF1F4A137803F0FE03137026E00846FFF7CEFB014620B929462046FFF786FC0D
:4048C00001462846FFF732FC18E0FFF77FFC15E0FFF77CFC12E0FFF779FC0FE0FFF776FC0CE00846FFF7F6FB29462046FFF76EFC04E00C4A137843F001031370084B1B78A4
:4049000013F0110F09D0064A137803F0FE031370054B1B682946204698470CB070BD00BF5897020843970208F46F02080020704730B108B5034A10600348FFF719FC08BD63
:4049400002487047247002082D4908100100160038B50D4640F4004000040E4BD8614FF47A7403E0013C0120FEF7BAFD094B1B6C13F0010F01D1002CF4D144B1054B1A6C0F
:4049800042F001021A64DB6A2B80002038BD024838BD00BF00003C400400160010B50F4B03EA004001430E4AD1614FF47A7403E0013C0120FEF794FD094B1B6C13F0010FAB
:4049C00001D1002CF4D134B1054A136C43F001031364002010BD034810BD00BF0000FF7F00003C400400160070B582B005460A244FF4C05141F60260FFF7D0FF034630B907
:404A00000DF1060141F60260FFF7A2FF03460CB1013C00E0714B23B9BDF80620B2F5C05FE6D13BBB0DF1060141F60360FFF790FF0346F8B9BDF8062002F4806292B2CAB9A0
:404A40000A244FF4806141F60360FFF7A7FF034630B90DF1060141F60360FFF779FF03460CB1013C00E05D4B23B9BDF80620B2F5806FE6D133B90DF1060141F60960FFF719
:404A800067FF0346002B43D1BDF8063023F03F039BB2AA78012A12D1E978012904D88EB2C6F1020294B201E00024022643F07003ADF806304A4BCB404A4A136012E0E978FB
:404AC00021B98EB2C6F1010294B201E00024012623F0400343F01003ADF80630424BCB40404A1360BDF80610314389B2ADF8061041F60960FFF752FF0346EA78961B06F0F6
:404B00000306A20092B23243ADF8062037494A664FF0B052527812F0FF0F04D04FF0B0525278D2B200E02122212A53D0304A128892B2002A4ED033B90DF1060141F60760D8
:404B4000FFF706FF034643BBBDF8063023F060039BB2ADF8063026490A88C2F3811243EA421323F428639AB2ADF806200B889BB2DB0103F4F063134323F4C0539BB2ADF86E
:404B800006300988C1F3012143EAC121ADF8061041F60760FFF702FF034633B90DF1060141F60660FFF7D4FE03469BB9BDF8061021F0C0018BB2ADF806300D4A1188C1F364
:404BC000011143EA8111ADF8061041F60660FFF7E5FE0346184602B070BD00BF040016000048E801904202080024F40000F03D401618001638B50D4641F2010141EA40019D
:404C000041F60860FFF7CAFE044630B946F6370141F60F60FFF7C2FE04466801FEF760FC204638BD024A136F43F010031367704700F03D4070B59CB0134C13AD26460FCE2A
:404C40000FC50FCE0FC533682B600AAD04F124060FCE0FC50FCE0FC533682B6001AD48340FCC0FC50FCC0FC523682B6013A90748FDF7E8FE0AA90648FDF7E4FE01A90548DA
:404C8000FDF7E0FE1CB070BDA48E0810000132408001324000023240F8B5002800F0E7800546774B5B6813F4003F01D0FEF7B8F9744C03E0013C0120FEF712FC724BDB6E42
:404CC0000BB1002CF6D1704BD3F8A03013F0010F06D06D4BD3F8B43013F0010F40F0C980694BDB6E002B40F0C680FFF7A3FF674901F5F833664AC3F8A4202A7842F4202283
:404D0000C3F8A8204FF00112C3F8AC20D1F8003113F0010F40F0B1805B4B1B6F13F0080F0AD15C4B1B685C4A934207D95B4AA2FB03231B0D013B02E0012300E00023534A8D
:404D400012681BB1564941EA433300E0554B13434E4A13604A4B5B6913F0804F13D001210320FEF71BF8464B5B69C3F380734E4A126892F844206AB163B1414A936943F08A
:404D80008043936106E0404AD2F8C43043F00303C2F8C4303C4CD4F8A07047F4403343F03003C4F8A0304020FEF79AFBD4F8B03013F0010F0BD10123C4F8B0304020FEF789
:404DC0008FFB0323C4F8B0304020FEF789FB27F4803727F0100747F4003646F020062A4BC3F8A0604FF4FA6403E0013C0120FEF777FB44F210032D4AD35813F0100F01D169
:404E0000002CF2D10CB1002400E0294C1CBB1E4A936E43F0080393660120FDF793FF18B947F4003646F0280626F4802343F00103154AC2F8A030134E03E0013E0120FEF713
:404E40004FFB114BD3F8B43013F0010F01D1002EF3D106B9164C1CB92846FFF7C5FD044664B929786878FFF7C5FE044606E0114C04E0114C02E0104C00E0104C2046F8BDE6
:404E800000002640F07E0E0000F03D4000003C40060000019842020800093D0083DE1B43041A0080040A00803C97020800003240040016000100160003001600020016005A
:404EC000014B1868704700BF9042020810B5002405E02046FCF79CFB032804D00134042CF7D9002010BD012010BD00BF074BD3F8003503F00303012B03D0032B03D101209B
:404F00007047012070470020704700BF0000264070B539B900240AE015F8010BFBF75EFF013402E016460D460024B442F4DB204670BD00BF70B561B900240FE0FBF75AFFBB
:404F4000C0B2287001340A2808D00D2806D0013502E016460D460024B442EFDB204670BD08B502490248FDF72BFB08BD6C9702080000664008B5114B1B785BB9104A114947
:404F80001148FDF7F9F811491148FBF7C7FF01220A4B1A700E4BB3F90030002B08DB590903F01F03012202FA03F30A4A42F82130054A136843F00043136008BD287002087E
:404FC0006C970208108F081000006640614F0810B485081000E100E081F0004102E000BF83F0004330B54FEA41044FEA430594EA050F08BF90EA020F1FBF54EA000C55EA35
:40500000020C7FEA645C7FEA655C00F0E2804FEA5454D4EB5555B8BF6D420CDD2C4480EA020281EA030382EA000083EA010180EA020281EA0303362D88BF30BD11F0004F74
:405040004FEA01314FF4801C4CEA113102D0404261EB410113F0004F4FEA03334CEA133302D0524263EB430394EA050F00F0A780A4F10104D5F1200E0DDB02FA0EFC22FA14
:4050800005F2801841F1000103FA0EF2801843FA05F359410EE0A5F120050EF1200E012A03FA0EFC28BF4CF0020C43FA05F3C01851EBE37101F0004507D54FF0000EDCF1C8
:4050C000000C7EEB00006EEB0101B1F5801F1BD3B1F5001F0CD349085FEA30004FEA3C0C04F101044FEA445212F5800F80F09A80BCF1004F08BF5FEA500C50F1000041EB00
:40510000045141EA050130BD5FEA4C0C404141EB010111F4801FA4F10104E9D191F0000F04BF01460020B1FA81F308BF2033A3F10B03B3F120020CDA0C3208DD02F1140C3D
:40514000C2F10C0201FA0CF021FA02F10CE002F11402D8BFC2F1200C01FA02F120FA0CFCDCBF41EA0C019040E41AA2BF01EB0451294330BD6FEA04041F3C1CDA0C340EDC76
:4051800004F11404C4F1200220FA04F001FA02F340EA030021FA04F345EA030130BDC4F10C04C4F1200220FA02F001FA04F340EA0300294630BD21FA04F0294630BD94F09C
:4051C000000F83F4801306BF81F480110134013D4EE77FEA645C18BF7FEA655C29D094EA050F08BF90EA020F05D054EA000C04BF1946104630BD91EA030F1EBF00210020ED
:4052000030BD5FEA545C05D14000494128BF41F0004130BD14F580043CBF01F5801130BD01F0004545F0FE4141F470014FF0000030BD7FEA645C1ABF194610467FEA655C49
:405240001CBF0B46024650EA013406BF52EA033591EA030F41F4002130BD00BF90F0000F04BF0021704730B54FF4806404F132044FF000054FF0000150E700BF90F0000F19
:4052800004BF0021704730B54FF4806404F1320410F0004548BF40424FF000013EE700BF42004FEAE2014FEA31014FEA02701FBF12F07F4393F07F4F81F06051704792F068
:4052C000000F14BF93F07F4F704730B54FF4607401F0004521F0004120E700BF50EA010208BF704730B54FF000050AE050EA010208BF704730B511F0004502D5404261EB21
:4053000041014FF4806404F132045FEA915C3FF4DCAE4FF003025FEADC0C18BF03325FEADC0C18BF033202EBDC02C2F1200300FA03FC20FA02F001FA03FE40EA0E0021FA33
:4053400002F11444C1E600BF70B54FF0FF0C4CF4E06C1CEA11541DBF1CEA135594EA0C0F95EA0C0F00F0DEF82C4481EA030621EA4C5123EA4C5350EA013518BF52EA0335E0
:4053800041F4801143F4801338D0A0FB02CE4FF00005E1FB02E506F00042E0FB03E54FF00006E1FB03569CF0000F18BF4EF0010EA4F1FF04B6F5007F64F5407404D25FEAC1
:4053C0004E0E6D4146EB060642EAC62141EA55514FEAC52040EA5E504FEACE2EB4F1FD0C88BFBCF5E06F1ED8BEF1004F08BF5FEA500E50F1000041EB045170BD06F00046D5
:4054000046EA010140EA020081EA0301B4EB5C04C2BFD4EB0C0541EA045170BD41F480114FF0000E013C00F3AB8014F1360FDEBF002001F0004170BDC4F10004203C35DAAA
:405440000C341BDC04F11404C4F1200500FA05F320FA04F001FA05F240EA020001F0004221F0004110EBD37021FA04F642EB06015EEA430E08BF20EAD37070BDC4F10C0445
:40548000C4F1200500FA04F320FA05F001FA04F240EA020001F0004110EBD37041F100015EEA430E08BF20EAD37070BDC4F1200500FA05F24EEA020E20FA04F301FA05F262
:4054C00043EA020321FA04F001F0004121FA04F220EA020000EBD3705EEA430E08BF20EAD37070BD94F0000F0FD101F00046400041EB010111F4801F08BF013CF7D041EA62
:40550000060195F0000F18BF704703F00046520043EB030313F4801F08BF013DF7D043EA0603704794EA0C0F0CEA135518BF95EA0C0F0CD050EA410618BF52EA4306D1D161
:4055400081EA030101F000414FF0000070BD50EA410606BF1046194652EA430619D094EA0C0F02D150EA013613D195EA0C0F05D152EA03361CBF104619460AD181EA030135
:4055800001F0004141F0FE4141F470014FF0000070BD41F0FE4141F4780170BD70B54FF0FF0C4CF4E06C1CEA11541DBF1CEA135594EA0C0F95EA0C0F00F0A7F8A4EB0504E2
:4055C00081EA030E52EA03354FEA013100F088804FEA03334FF0805545EA131343EA12634FEA022245EA111545EA10654FEA00260EF000419D4208BF964244F1FD0404F53D
:40560000407402D25B084FEA3202B61A65EB03055B084FEA32024FF480104FF4002CB6EB020E75EB030E22BFB61A754640EA0C005B084FEA3202B6EB020E75EB030E22BF41
:40564000B61A754640EA5C005B084FEA3202B6EB020E75EB030E22BFB61A754640EA9C005B084FEA3202B6EB020E75EB030E22BFB61A754640EADC0055EA060E18D04FEA1D
:40568000051545EA16754FEA06164FEAC30343EA52734FEAC2025FEA1C1CC0D111F4801F0BD141EA00014FF000004FF0004CB6E711F4801F04BF01430020B4F1FD0C88BFEE
:4056C000BCF5E06F3FF6AFAEB5EB030C04BFB6EB020C5FEA500C50F1000041EB045170BD0EF0004E4EEA113114EB5C04C2BFD4EB0C0541EA045170BD41F480114FF0000E2D
:40570000013C90E645EA060E8DE60CEA135594EA0C0F08BF95EA0C0F3FF43BAF94EA0C0F0AD150EA01347FF434AF95EA0C0F7FF425AF104619462CE795EA0C0F06D152EAFC
:4057400003353FF4FDAE1046194622E750EA410618BF52EA43067FF4C5AE50EA41047FF40DAF52EA43057FF4EBAE12E74A0011D212F5001211D20DD56FF47873B3EB6252B0
:405780000ED44FEAC12343F0004343EA505323FA02F070474FF00000704750EA013002D14FF0FF3070474FF00000704753B94AB9002908BF00281CBF4FF0FF314FF0FF30B0
:4057C00000F07EB9ADF1080C6DE904CE00F006F8DDF804E0DDE9022304B070472DE9F0478C460E460446089D002B50D18A4217466CD9B2FA82FEBEF1000F0BD0CEF12004E7
:4058000020FA04F401FA0EF644EA060C02FA0EF700FA0EF44FEA1749220CBCFBF9F01FFA87F809FB10C642EA064600FB08F3B34209D9F61900F1FF3280F02281B34240F291
:405840001F8102383E44F61AA2B2B6FBF9F309FB136642EA064403FB08F8A04509D9E41903F1FF3280F00A81A04540F20781023B3C44C8EB040443EA00400021002D62D0F2
:4058800024FA0EF400232C606B60BDE8F0878B4207D9002D55D0002185E841000846BDE8F087B3FA83F1002940F09080B34202D3824200F2F880841A66EB03060120B44665
:4058C000002D40D085E81010BDE8F08712B90127B7FBF2F7B7FA87FEBEF1000F35D1F31B4FEA17481FFA87FC0121B3FBF8F0220C08FB103642EA06460CFB00F3B34207D982
:40590000F61900F1FF3202D2B34200F2CE801046F61AA2B2B6FBF8F308FB136642EA06440CFB03FCA44507D9E41903F1FF3202D2A44500F2B5801346CCEB040443EA00408B
:405940009CE729462846BDE8F087CEF1200106FA0EF307FA0EF720FA01F94FEA1748CE4049EA0309B6FBF8FA4FEA194408FB1A661FFA87FC44EA06430AFB0CF29A4200FA23
:405980000EF40AD9DB190AF1FF3180F087809A4240F28480AAF1020A3B449B1A1FFA89F9B3FBF8F108FB113349EA034301FB0CF69E4207D9DB1901F1FF326BD29E4269D959
:4059C00002393B449B1B41EA0A418EE7C1F1200E22FA0EF48B40234320FA0EF706FA01F44FEA134C26FA0EF63C43B6FBFCF9270C0CFB19661FFA83F847EA064609FB08F75B
:405A0000B74202FA01F200FA01FA08D9F61809F1FF3041D2B7423FD9A9F102091E44F61BA0B2B6FBFCF40CFB146640EA064704FB08F8B84507D9FF1804F1FF3028D2B8453C
:405A400026D9023C1F4444EA0940C8EB0707A0FB02894F4544464E4614D329D065B3BAEB040367EB060707FA0EFECB40CF404EEA030385E888000021BDE8F0871346F8E6A5
:405A80001046E0E6B8EB020469EB03060138E5E70446D8E7114695E78146C0E78A467CE7023B3C4448E708460AE702383E442FE7C245E7D33E46D1E72946BDE8F08700BFFE
:405AC000704700BF10B501390244904207D010F8013B11F8014FA342F7D0181B10BD002010BD10B5431E0A44914204D011F8014B03F8014FF8E710BD02440346934202D06F
:405B000003F8011BFAE770472DE9F04788B0002B149F1299109EDDF84CA01D4627F02007BBBF03F100431D4600232D231446B8BF1446462F0B7003D0452F03D1013601E0C3
:405B4000032300E0022307AA049206AA03928DE8480422462B4600F0B7FD472F804602D1119BDB0728D5462F08EB060911D198F80030302B0AD1002200232046294602F03B
:405B800023FC18B9C6F10106CAF80060DAF800309944002200232046294602F015FC08B9302202E0CDF81C9006E0079B994503D9591C07911A70F8E7079B159AC8EB0303F1
:405BC0004046136008B0BDE8F08773B503460029B8BF494203F8022BB4BF2D222B220929427019DD0DF1070216460A2591FBF5F405FB14113031092C02F8011D2146F5DC19
:405C00003031541E02F8011CB4421A460AD214F8012B03F8012BF7E730241A46214402F8024B5970101A02B070BD00002DE9F04F91B00C46DDF8688016461F46054601F037
:405C40005BFC03680893184600F092FC00230E93D8F800300990073323F0070303F1080294F818A0D4F800B0C8F80020D3E90023C4E91223D4E9128929F000430B93CDF8C1
:405C800028804FF0FF32A74BDDE90A0102F0CEFBA0B94FF0FF32A34BDDE90A0102F0A8FB60B9002200234046494602F097FB10B12D2384F843309C4B9C4A0AE042464B466A
:405CC0004046494602F0B2FB002800F09281984B984ABAF1470F8CBF90469846032323612BF0040323604FF000093DE0BAF1670F00F08A81BAF1470F00F086812360002194
:405D00000DF133020193636805900292009342464B460691CDF810A0CDF80CE02846FFF7F3FE0AF0DF03472B804600F08481BAF1650F0D9900F28D810139524604F1500005
:405D40000D91FFF742FF0E9A8318012A8146236100F37C812268D10700F178819DF8333013B12D2384F84330009733460FAA2146284600F09FF9013002D14FF0FF3096E14F
:405D800023685A0501D4236965E0BAF1650F40F2D58000220023D4E9120102F015FB78B30123654A31462846B8470130E5D00E9B0D9A9A420BDB2368D80708D423689B0749
:405DC00040F111814FF0000804F1190906E1099B089A31462846B8470130CED04FF0000804F11A090E9B013B9845E7DA01234A4631462846B8470130BFD008F10108F1E78E
:405E00000D9B002B29DC01234B4A31462846B8470130B2D00D9B23B90E9B13B92368D907CCD5099B089A31462846B8470130A4D04FF0000904F11A0A0D9B5B42994509DAFF
:405E40000123524631462846B847013095D009F10109F1E70E9B4246A7E00E9AA36D9A42A8BF1A46002A914606DC4FF0000A29EAE97904F11A0B11E013463146424628468B
:405E8000B8470130F1D178E701235A4631462846B84701303FF471AF0AF1010AA36DC9EB03029245F0DB08EB03090D9A0E9B9A420FDB2368DA070CD40E9B0D9A9844C9EBB3
:405EC00008089B1A9845A8BF9846B8F1000F08DC0FE0099B089A31462846B8470130EBD14BE743464A4631462846B84701303FF444AF4FF0000928EAE87804F11A0A09E0D7
:405F00000123524631462846B84701303FF435AF09F101090D9A0E9B9B1AC8EB03039945EEDB4BE7FFFFEF7F2C9F0810309F0810349F0810389F08103C9F08100E9A012A08
:405F400001DCDB0738D50123424631462846B84701303FF412AF099B089A31462846B84701303FF40AAF00220023D4E9120102F02BFA20B14FF0000804F11A0A0EE00E9B65
:405F800008F10102013B19E00123524631462846B84701303FF4F1AE08F101080E9B013B9845F1DB4B4604F1500231462846B84701307FF403AFE0E6012342463146284614
:405FC000B8470130EED1D8E601234A4631462846B84701303FF4D1AE08F10108E3680F9A9B1A9845F0DBE0680F9B9842B8BF18465DE06268531C0EA84BF480630DF1340EF7
:406000007FF474AE062201E012B90122626075E6002106910DF133018DE80C00236005904246CDF810A0CDF80CE002914B462846FFF76AFD80460D9BD81C02DB62689342B9
:406040001DDDAAF1020A5FFA8AFA70E60133236184E6BAF1660F14D10029636807DD216113B92268D2071DD501330B4419E013B92268D00701D5023313E0012311E04FF0AF
:40608000670A0D9B0E9A934205DB22682361D10708D5013305E0002BD4BFC3F102030123134423610D9BA3654FF0000956E611B0BDE8F08F2DE9F04791461F460A698B6810
:4060C000DDF820809342B8BF1346C9F8003091F8432006460C4612B10133C9F800302368990642BFD9F800300233C9F80030256815F0060510D104F1190A07E00123524698
:4061000039463046C04701301AD00135E368D9F800209B1A9D42F1DB94F843302268003318BF012392060FD5E1185A1C302081F84300224494F8451082F84310023303E09C
:406140004FF0FF30BDE8F08704F1430239463046C0470130F4D02268D9F80050E36802F00602042A08BF5D1B2269A3680CBF25EAE57500259342C4BF9B1AED184FF00009C4
:406180001A344D4509D00123224639463046C0470130D5D009F10109F3E70020BDE8F0872DE9F04317460A7E85B06E2A984606460C460C9B01F1430E00F0AE8011D8632AB9
:4061C00022D009D8002A00F0BB80582A40F0CA8081F84520834955E0642A1ED0692A1CD0C0E0732A00F0B08009D86F2A2ED0702A40F0B8800A6842F020020A603EE0752ADD
:4062000024D0782A3AD0ADE01A6801F14205111D1960136884F84230A8E021681A6811F0800F02D0111D196008E011F0400F02F10401196002D0B2F9003000E01368002BEE
:406240003CDA2D225B4284F8432037E021681A6811F0800F02D0111D196007E011F0400F02F10401196001D0138800E01368227E5C496F2A14BF0A2208221BE078225A4964
:4062800084F845202268186812F0800F00F104051D6003D1550601D5038800E00368D00744BF42F0200222601BB9226822F0200222601022002084F8430001E049490A229C
:4062C0006568A560002D08DB206820F0040020602BB9002D7DD175460CE0002B79D07546B3FBF2F002FB1033CB5C05F8013D03460028F5D1082A0BD12368DA0708D523691F
:4063000062689A42DEBF302305F8013C05F1FF35C5EB0E0323612EE008681A68496910F0800F03D0101D1860136808E010F0400F02F104001860136801D0198000E0196006
:4063400000232361754616E01A68111D1960156862680021284601F03BF908B1401B6060636804E004F1420584F8422001232361002384F84330CDF800803B4603AA214670
:406380003046FFF797FE013002D14FF0FF3026E023692A4639463046C0470130F5D023689B0710D5002504F1190907E001234A4639463046C0470130E7D00135E368039A8B
:4063C0009B1A9D42F2DBE068039B9842B8BF184605E00B7884F8423004F142058AE705B0BDE8F0833E9F08104F9F08100FB40A4B13B51C6824B1A36913B9204600F0F2FF84
:4064000005AB049AA1680193204601F0EBFC02B0BDE8104004B07047F44602082DE9F7431D464F4B1E6804460F46904626B1B36913B9304600F0D6FF4A4B9C4201D174687A
:4064400008E0494B9C4201D1B46803E0474B9C4208BFF468B8F1020F04D0B8F1010F79D8002D77DB2146304600F052FF616B41B104F14403994202D0304601F0DDFB002320
:4064800063630023A3616360A3891B0603D52169304601F0D1FBA38923F44A6323F00303B8F1020FA3811ED001AB6A462146304601F026F8A3891843A0810DB9009D00E042
:4064C0002FBB284601F07CF80746D0B9DDF80090A94502D14FF0FF3006E0484601F070F8074678B9F6E70020A38943F00203A3810023A36004F14703236023610123636151
:406500002AE0A946A38943F08003A3814D46B36913B9304600F066FFB8F1010F08BFA389276004BF43F00103A381A389276103F0080080B2656158B113F001034FF00000CF
:406540001DBF6D42A060A561A56008BF184603E0A06001E04FF0FF3003B0BDE8F08300BFF4460208709F0810909F0810B09F0810034613F8012B002AFBD1181A01387047F3
:4065800010B5034642B111F8014B03F8014B013A002CF7D11A4400E010BD934202D003F8014BFAE710BD2DE9F74F03690C699C42804600F38380013C01F114074FEA840E7C
:4065C00000F1140657F8245006EB0E030193013556F82430B3FBF5F507EB0E09002D39D04FF0000A3846B446D34650F8042B93B205FB03A34FEA134A9BB2C3EB0B03120C8F
:40660000BCF800B005FB02A213FA8BF34FEA124A1FFA82FBDCF80020CBEB124202EB23429BB243EA024381454FEA224B4CF8043BDBD256F80E306BB9019B043B9E421A4626
:4066400002D3C8F8104005E01268043B002AF8D1013CF3E7404601F018FA00282CDB013530464FF0000E57F8041BD0F800C08AB2C2EB0E03090C13FA8CF3C1EB1C4202EB54
:4066800023429BB243EA0243B9454FEA224E40F8043BE8D256F8242006EB840362B9043B9E421A4602D3C8F8104005E01268043B002AF8D1013CF3E7284600E0002003B08C
:4066C000BDE8F08F000000002DE9F04F456A97B08246239CCDE9022345B9102000F070FFCAF82400456085600560C560DAF82430196859B15A684A60012393408B605046AD
:4067000000F0EBFFDAF8243000221A60039BA04A002BBFBF01232360039B23F00043B8BF0393DDF80C80A4BF0023236028F000431B0D1B0593421DD1229A42F20F7313602F
:40674000029B43B9934A944BC8F31300002814BF1846104600E09048249B002B00F04A85C37813B100F1080300E0C31C249A136000F040BDDDE902450022002320462946E7
:4067800001F022FE074658B1229A01231360249B002B00F0228581481860013800F02ABD14AB019315AB009322462B46504601F0E7F9C8F30A56059056B1C5F3130343F0AF
:4067C0007F51204641F44011A6F2FF3611971DE0159B149E1E4406F23243202B0ADD029A06F21240C3F1400322FA00F008FA03F3184304E0C3F12000029B03FA00F0FEF795
:406800002DFD0123A1F1F871013E11930022644BFEF7E6FB58A3D3E90023FEF795FD58A3D3E90023FEF7DEFB044630460D46FEF725FD55A3D3E90023FEF786FD02460B466A
:4068400020462946FEF7CEFB04460D4601F004FE0022834600232046294601F0BFFD58B15846FEF70BFD02460B462046294601F0ABFD08B90BF1FF3BBBF1160F0DD849497B
:4068800001EBCB01DDE90223D1E9000101F0C4FD30B10BF1FF3B002300E00123109300E01090149B9E1B731E089343BFC3F10009002308934FF00009BBF1000F07DB089BCE
:4068C000CDF834B05B4408930023099306E0CBF1000309930023CBEB09090D93209B092B27D8052BC4BF043B2093209BA3F10203CCBF00250125032B20D8DFE803F0060E79
:406900000204012302E0012308E000230C93219B002B1CDD069398461EE000230C93219B5B4403F1010806934346012BB8BF012312E00125002320930C9501E001230C93F2
:406940004FF0FF33069398460022122303E00123069398461A462192DAF8244000226260042101F114029A421ED86268013262604900F6E7AFF3008061436F63A787D23F72
:40698000B3C8608B288AC63FFB799F501344D33F0000F07F609F0810699F08103D9F08100000F83F10A008106168504600F060FEDAF8243020601B680793B8F10E0F00F22D
:4069C0005D81002D00F05A819DED027BBBF1000F8DED0E7B31DDA04A0BF00F0302EBC30393ED007B4FEA2B14E2068DED0A7B0CD59A4BDDE90E01D3E90823FEF7CFFD04F0B3
:406A00000F04CDE90201032600E00226934D6CB1E30708D5DDE90A01D5E90023FEF794FCCDE90A01013664100835F0E7DDE90A23DDE90201FEF7B2FD20E0CBF1000404B307
:406A4000854B864D04F00F0203EBC203D3E90023DDE90E01FEF778FCCDE9020124110023022654B1E70705D5D5E90023FEF76CFC0136012364100835F3E71BB1CDE90201EF
:406A800000E00226109BEBB1DDE902450022744B2046294601F0A2FCA0B1B8F1000F11D0069B002B40F3E6800BF1FF330A9300226C4B20462946FEF747FC0136CDE9020145
:406AC000069F02E0CDF828B047463046FEF7D6FBDDE90223FEF738FC0022634BFEF782FA0446A1F15075CFB90022604BDDE90201FEF776FA22462B46CDE9020101F08CFC25
:406B0000002840F04182224605F10043DDE9020101F064FC002840F02E82ABE00C9A4E4B791E002A4AD003EBC103D3E9002300204F49FEF733FD22462B46FEF751FA079CA8
:406B400005460E46DDE9020101F086FC1290FEF795FB02460B46DDE90201FEF741FA129B303304F8013B2A463346CDE9020101F035FC002840F02183DDE9022300203849ED
:406B8000FEF72EFA2A46334601F028FC002840F0D280079BE31ABB426CDA0022314B28463146FEF7D1FB002205460E462D4BDDE90201FEF7C9FBCDE90201C3E703EBC1011C
:406BC00022462B46D1E90001FEF7BEFB079BCDE91201DC191D46DDE9020101F03DFC0646FEF74CFB303602460B46DDE90201FEF7F7F905F8016BAC42CDE902014FF0000217
:406C000023D11B4BDDE91201FEF7ECF902460B46DDE9020101F000FC002840F08C80DDE9122300201249FEF7DBF902460B46DDE9020101F0D3FBE8B114F8013C302B04F102
:406C4000FF3240F0BA821446F6E7064BFEF77CFBCDE90201BFE700BF10A00810E89F08100000F03F0000244000001C40000014400000E03FDDE90E34CDE90234159B002BCD
:406C80007CDBBBF10E0F79DC8F4B03EBCB03D3E90067219B002B14DAB8F1000F11DC40F06C810022894B30463946FEF74DFBDDE9022301F0A7FB45464646002840F05F811A
:406CC00066E1079C32463B46DDE90201FEF766FC01F0C2FB0546FEF7D1FA32463B46FEF733FB0B460246DDE90201FEF779F905F1300E04F801EB079BC3EB040EF045CDE98A
:406D000002012ED102460B46FEF76CF98046894602460B463046394601F060FB78B942464B463046394601F04FFB002800F04782E90704D443E2DDF828B000E01C4614F8AC
:406D4000012C392A04F1FF3307D1079A9A42F5D1079930220BF1010B0A701A7801321A702DE200225A4BFEF7EFFA00220023CDE9020101F029FB0028A4D020E20C9A002A49
:406D80002DD0209A012A0ADC119A12B103F2334302E0149BC3F13603099D4C4615E0099B08F1FF35AB42BFBF099B0995EA1A0D9BB7BF9B185D1B0D930025B8F1000FB9BFC7
:406DC000C8EB090400234C464346089A01211A4450469944089200F01FFD064602E0099D0C9E4C465CB1089B002B08DDA342089AA8BF2346C3EB0909E41AD31A0893099B49
:406E0000002B1DDD0C9BABB185B131462A46504600F09CFD059A01460646504600F005FD05990746504600F058FC0597099B5A1B06D000E0099A0599504600F087FD059024
:406E40000121504600F0E8FC0D9B05465BB31A460146504600F07AFD209B012B054618DC029B83B9039BC3F3130373B9039B23F000473F0D3F054FB1089B013309F10109E9
:406E80000893012702E0002700E0029F0D9B73B100E000272B6905EB8303186900F06FFCC0F1200004E0209B012BD9DD0D9F0120089B184410F01F000ED0C0F12003042BAE
:406EC00008DDC0F11C0008E010A00810000014400000244006D018461C30089B0344814404440893B9F1000F05DD4A460599504600F07AFD0590089B002B05DD29461A468C
:406F0000504600F071FD0546109BEBB12946059800F0BBFD002817DA00230A220599504600F0F2FB0C9B05900BF1FF3B002B00F05881002331460A22504600F0E5FB069B6B
:406F4000002B064637DC33E0B8F1000F2ADC209B022B27DDCDF81880069B83B929460522504600F0D1FB01460546059800F08DFD00280DDC03E03D4600E000252E46219B53
:406F8000079C6FEA030B0AE0DDF828B03D463E46079B079A5C1C312313700BF1010BB0460026F7E00C9BCDF8188023B9079CB1E0209B022BD0DC002C05DD31462246504671
:406FC00000F012FD06469FB17168504600F050FB326902320446920006F10C010C30FEF780FD01222146504600F0FEFC804600E0B046029BDDF81C9003F00103089329462A
:407000000598FFF7D0FA3146044600F13007059800F03BFD424602902946504600F051FDC36802463BB901460990059800F02DFD099A034600E0012311465046099300F081
:407040004CFB099B4BB9209A3AB9089A2AB9392F28D0029B002B1ADC1BE0029A002A04DB1AD1209AC2B9089AB2B9002B11DD01220599504600F0B8FC2946059000F005FDFA
:40708000002802DC05D1FA0703D5392F0AD004F1310709F101040CE0002B09F101040BDD392F05D1392389F8003009F1010954E0013789F800706DE0079B069A04F8017CFB
:4070C000E31A9342A1463AD000230A220599504600F01AFB464505904FF000034FF00A023146504604D100F00FFB0646804686E700F00AFB4146064600230A22504600F0A0
:4071000003FB80467BE700230A220599504600F0FBFA059029460598FFF745FA00F1300704F8017B079B069AE31A9342EBDB079B012AACBF9B180133B04699460026012234
:407140000599504600F050FC2946059000F09DFC002802DC15D1FB0713D54C4614F8013C392B04F1FF3209D1079B934204D10BF1010B3123079A02E01446EFE701331370EB
:4071800008E04C4614F8013C302B04F1FF3201D11446F7E72946504600F09FFAB8F1000F0DD02EB1464503D03146504600F095FA4146504600F091FA01E0DDF828B00599D1
:4071C000504600F08AFA0023229A23700BF101031360249B1BB11C6001E008480AE0079808E0069B002B3FF7E1AE209B022B7FF7DDAEB1E617B0BDE8F08F00BF3C9F081049
:407200008A892DE9F041054610070C4659D44B68002B02DC0B6C002B17DDE66AAEB102F48052002392B22F682B600AB1606D15E0216A01232846B047411C0FD12B686BB144
