:020000041000EA
:4000000000400208230100100D00000085010010000000000000000000000000000000000000000000000000000000008101001000000000000000008101001081010010E9
:400040008101001081010010810100108101001081010010810100108101001081010010810100108101001081010010810100108101001081010010810100108101001060
:400080008101001081010010810100108101001081010010810100108101001081010010810100108101001081010010810100108101001081010010810100108101001020
:4000C00010B5064C2378002B07D1054B002B02D0044800E000BF0123237010BD3C060008000000008C2D0010084B10B5002B03D00749084800E000BF07480368002B00D171
:4001000010BD064B002BFBD09847F9E700000000400600088C2D0010E8000008000000007047FFF7FDFF72B60F4C104DAC4209DA21686268A368043B02DBC858D050FAE7F0
:400140000C34F3E70A490B4A0020521A02DD043A8850FCDC084809490860BFF34F8F00F005F900F01DF8FEE7902D0010A82D00103C060008140800080000000808ED00E0F5
:40018000FEE7FEE700B504207146084202D0EFF3098001E0EFF30880043001F0ADFCFEE710B562B6014800F067F9FEE70000081010B5002000F088FF10BDC04670B56249EE
:4001C000E0239B00CB580F2213401A00D0329200525807210A40032A05D0042A06D0002A12D15A4814E05A4A106811E01A00C0329200554952581F210A40112A06D0132A7C
:4002000004D0FA20C00103E0524801E080200002002B36D14C4BB222D2009A5801211140B125ED005A59120F032422405B591B0F1C4207D0444C63591B0F03242340012BDC
:4002400002D102E0012300E00023002B01D0002901D1032A4BD13C4BB022D2009D58AD03AD0B3D495958C904C90C9C58240E01231C40013401F016FD6843210001F012FD56
:4002800035E0012B33D1304BC822D2009A5801251540C024E4001A59120F03210A401B591B0F194207D028490B591B0F03210B40012B02D102E0012300E00023002B01D049
:4002C000002D01D1032A12D11F4DC022D200AB587F210B40A958090A1F263140AC58240C3440584301F0DEFC210001F0DBFCE0239B00154AD3581B0903221340D840144CE4
:400300006060164B1D692D0AFC32154001351969090E013101F0C6FCA060290001F0C2FC0500E06020610E4BC0180E4901F0BAFC20750D4BE818FA21890001F0B3FCA061A9
:40034000C003E06170BDC0460000264000127A00C000000800366E0184050000000021403F420F0040420F00E703000010B5284801F092FC274CB022D200A3585B005B086E
:40038000A350E0218900635830208343635080235B04A350204A214BE250A02292010433E250FF221E4BE25000F0FCFFC0225200A35801218B43A35000F012FAFFF7FEFEDA
:4003C000B0235B055B78002B04D0B0235B055B78DBB200E02123212B03D1124B0022DA605A60114C22008021042000F013FC2000103000F0A7FC0D4B1A685123D35C002BD0
:4004000002D00B4800F014FD01F08CF810BDC046D42C00100000264001000200840500008C050000E000234058060008100800081C1E00108023024AD3580320184070475C
:400440000000214010B501F0E8FB084980228C58074B2340074C23438B508823034AD358DB06FAD501F0DDFB10BDC04600002140FCFF00000100FA0570B50500830504D011
:40048000E821FF310F4801F009FB01F0C6FB0400FFF7D0FF032801D1FFF7D4FF0A4AB0239B00D55080215058084B03400848034353508823044AD358DB06FAD5200001F092
:4004C000B0FB70BD501E001000002140FCFF00000300FA05FEE7C046F0B50025002711E0BB00C658F3B2FF22964308E06A008A181478A419527822700135013BDBB2002B40
:40050000F4D10137022FEBD9F0BDC04610B50A00002101F05CFC10BD10B501F04FFC10BD30B587B09D49A022D2008B58032083438B509B4A116808688823CB58C31818680E
:400540009849084018601368186884241B59C01803681B021B0A80256D042B430360106805680359EB1818680140196013683E229A5C002A06D08948E02189004258753C62
:40058000A24342503E229A5C002A06D08348E021890042583024A24342503E229B5C002B07D07E49E02292008B588020000603438B500021012000F09FFD0021022000F055
:4005C0009BFD0021032000F097FD0021042000F093FD0021002000F08FFD01A8724903000A0032CA32C312CA12C300F0B3FD002802D00420FFF76EFF68496C4A8B588020FB
:40060000000603438B506A4800F05EFE002802D00420FFF75FFF614C664BE158664A0A40E250E158654A0A40E250E25880252D062A43E250043BE158614A0A40E250E15873
:40064000604A0A40802189010A43E250E258802109020A43E2505C4A11685C4B0B40802149000B431360002001F0DEFA584BE2581543E550E158012291430A43E250642134
:40068000002001F051FA464B1B683F229A5C022A06D970229A5C01210A404E49986842509A6874215B5AD21851683E4B0B40B02109010B4353603A4B1B6873229A5C0321F5
:4006C000914070229A5C7220185C140084402143012002400A43802109060A438021C900986842509A6852583F229A5C052A06D970229A5C02210A403749986842509A689C
:4007000074215B5AD2189168264B0B408C2189010B439360224B1B6873229A5C0321914070229A5C7220185C140084402143022002400A43802109060A438021C900986806
:4007400042509A6852583F229A5C092A03D90021224A986881509A6874215B5AD2181168104B0B40B02109010B4313600C4B1A687323D15C703B8B4019007023D35C722007
:40078000105C83400B43802109060B438021C9009068435093685B5807B030BD0000264010080008FF00FFFF681E0010087F0000400D030004050000FEFCFFFFFFFF00FF89
:4007C000FFF0FFFFFF8FFFFF00002740FFFCFFFF0C050000080C0000140C0000240C000070B58AB09621002001F09EF901F074F9002801D101F060F9012001F0DBF83E4ADE
:40080000516C3E4B0B40E82189010B435364536C1B0AFF2213403A2B07D1374A516C384B0B40E82189010B435364FFF779FE354A354B1A6000240CE0620012195300334A03
:40084000D318198B9A8AD88A00041043FFF75EFE01340B2CF0D900240AE06200121993002A4AD3185A6E196ED86DFFF755FE0134112CF2D9264D2900343128004030FFF74F
:400880002BFE244A1368832149000B43136001AC22002B004C3343CB43C243CB43C243CB43C221001C4800F045FE22002B00703323CB23C223CB23C223CB23C22100174825
:4008C00000F038FE2200164B143323CB23C223CB23C223CB23C22100124800F02BFE24220021200001F073FA0F4BE36021000F4800F020FE0AB070BD00002740FF00FFFFA8
:40090000FFC5FFDF0300FA05F0012140681E0010681F0010007934408002324000033240E81F001080043240EEEE66060005324070B505000C001A4B1B6828229A5C012AE9
:4009400015D1820807211000884327D19200AD1AED00FF20A8401B6820339A181168AC4023004B40184004004C40146016E03A229B5EDBB2994203D176210A4801F08EF8E1
:40098000074B1B681B68072215408022120615438022920194466444A400E55070BDC046100800085029001070B504000D000B4B9A680B4B9A420CD1002904D13821FF31BF
:4009C000084801F06BF81034054BA400E058E55003E01034A400044BE05870BD00ED00E0000000085029001000000010F0B5474680B482B0061E01914AD04368032B03D9A4
:400A00003221264801F04AF80023F05E002804DBB178FFF78DFF002400E0214C0023F15E7368002912DB88081E4FC0308000C55903221140C900FC3290468A4095439A01C0
:400A4000434613408B402B43C35116E089B20F220A40083A92080632920013481018476803221140C900FF252A008A4097439A012B0013408B403B4343600B4B9A680B4BE5
:400A80009A4206D10023F05E0199FFF78DFF00E0034C200002B004BC9046F0BD502900100100560000E100E000ED00E00000000870B504000D000A4B1A68B423D3581B18FA
:400AC0001B68002B0ADA0B0C03D00649064800F0E5FF2D042D0C6560002000E0034870BD10080008D50200009429001001008A0070B505000C000368002B01DA002300E069
:400B0000084B002B0BD1EA60230C03D00649074800F0C4FF2404240CAC60002000E0014870BDC04601008A00BB0200009429001070B505000C1E03D19921084800F0AEFFFA
:400B4000074B1A68B423D3585B191B68002B03DAEB682360002000E0024870BDD42900101008000801008A0070B504000D00234B1A683123D35C834236D9002936D00B687C
:400B8000DB0635D13123D35C984204D3C421FF311B4800F083FF194B1B681A6AB0215B5A5C431419174E34602B68DA080021686801F00DF900212000FFF77AFF3468002DA4
:400BC00003D111490E4800F069FF2A0000212000FFF78EFF00280DD10A4B18680021FFF767FF002808D108E0084806E0074804E0064802E0064800E0054870BD1008000889
:400C000094290010E80700089303000003018A0001018A0010B50400002A17D1002915D1124B1A683123D35C984204D3C421FF310F4800F033FF0D4B1B681A6AB0215B5AD0
:400C40005C4314190B4B1C6000200EE0002A09D0002909D0074B59609A60191D2000FFF783FF02E0044800E0034810BD1008000894290010E807000803018A00F0B583B080
:400C80000D001C4B1B68DC68236883422DD947097B01C01A012383401E00002903D100F0BCFF019001E000230193124B18680368002B01DA002300E00F4B002B0ED16368A7
:400CC000BF00DF193B68334203D0B3433B60002400E00A4C0021FFF7EBFE00E0084C002D04D1019800F09DFF00E0064C200003B0F0BDC046E807000801008A000201880047
:400D00000301880004018A000A4B1B68DA68136883420BD943095901401A0121814052689B009B580B4203D0034802E0034800E003487047E80700080101880004018A00A5
:400D400000018800034B1B68002B01D1014B18607047C046F4070008F0B5474680B404000F0090461E002D4B1B68002B03D1B5212B4800F093FE294B1B682C2060431C184D
:400D8000FF22150035402560330A13406360360CA660244B1A683123D35C9D4204D3C421FF31214800F07AFE1E4B1A68B023D35A6B43116A8C466344236166683223D35CF5
:400DC0009E4204D3E021FF31174800F067FE154B1B681D6A80367601AD196561A668330C04D0FF214900104800F058FE330C03D00E490D4800F052FE3604330C1E43AE6026
:400E00004346E36127620023A361069B002B02D000229B5EA38104BC9046F0BDF4070008142A00101008000894290010FF010000F0B58FB0041E03D15221294800F02EFEFD
:400E40006368032B03D95421254800F027FEE36A002B03D15821224800F020FE236B002B03D159211E4800F019FE07AA1300210061C961C321C921C302AD290023001433B2
:400E8000C1CBC1C141CB41C10821535E0CAE3380144B1B6836215B5E07998C466344B370089B0D930B9B0A980096A26AE16AFFF753FF2B69E868002200920021FFF74CFFE7
:400EC000216B3000FFF792FD0023F25E002A05DB1F231A401E3B9340034A13600FB0F0BD142A00101008000800E100E0F8B505000F0016001C00002A03D1FD21224800F0A8
:400F0000CDFD224B1B68002B03D1FE211E4800F0C5FD1E4B1B682C2128004843181879435918012213004D68AB401B044568AA4015000269002A20D08F69002F1FD11268C1
:400F4000002A01DA002200E0114A002A19D132681204120C134333600369DE6001238B614C6204692B0C03D00A490B4800F096FD2A04120CA260002004E0084802E0084868
:400F800000E00748F8BDC046142A0010F407000801008A00BB0200009429001004028A0007028A0070B504000D0016000F4B1B68002B04D1AF2149000D4800F06FFD0B4B75
:400FC0001B682C2060431C18236A002B04D1B1214900074800F062FDE369B34204D9236AB6009D51002000E0024870BDF4070008142A00100A028A0070B582B004000023DA
:401000000193002804D1D221FF312D4800F046FD2369002B04D1E9214900294800F03EFD6369002B04D1D421FF31254800F036FD236A002B04D1EA214900214800F02EFDF3
:401040006269D5682B0C24D01B041360136820691C4B1A68B423D358C3181B68002B18DA01A9FFF765FD00280ED1019803681E0CFF221340E269934207D29B00226AD3584B
:40108000002B02D0984700E0002631002069FFF70FFD2D042D0C0FD063691D601B68636A002B03D098470023636203E0A36A002B00D098470023A36163691B6802B070BDCC
:4010C000142A00101008000810B50400084B1B68002B04D1B221FF31064800F0DFFC044B1B682C2060431818FFF786FF10BDC046F4070008142A0010134B1A683C23D35CC9
:4011000083421DD9042904D94B1EFF3B9BB2132B18D8FF290CD91F2319400C4A0300C0339B009950D03080000423835000200AE007231940D0308000044BC150002002E06B
:40114000034800E002487047100800080000264001004A0070B5041E03D14A494A4800F09DFCB023DB00494AD358002B00DA87E0474B22689A4203D94649434800F08EFC69
:4011800023689B039B0BE279002A02D08022520400E000221343B022D2003C498B50A2883D4B9A4204D984218900374800F076FC2289344B9A4203D93849334800F06EFC03
:4011C000A388DB04D90C23891B04354A13400B43344A2E498B50A37A0F2B04D986218900294800F05BFCE37A0F2B03D92E49264800F054FCA289284B9A4203D92B4922485D
:4012000000F04CFCA37A0F211940E27A1201FF2313400B43A289120225490A401343A27B1207C02189050A401343B122D20017498B50A379042B03D91E49134800F02EFC29
:40124000228A104B9A4204D9892189000E4800F025FC0E4818494558184B1D40A3791B02E022D20013402B4343504558144B1D40238A1B040A4A13402B434350002000E0D2
:40128000104870BDFF010000542A001000002640FFFF030009020000FF1F0000110200000000FF0184050000190200001A02000000FF1F00230200008C050000FFF8FFFFEF
:4012C000FFFF00FE03004A0070B505003149324A8B588020000603438B502C0003E0012000F0D0FB013CB223DB002A4AD3585B0701D4002CF3D12749B122D2008858274BD6
:4013000003408020800503438B50002D01D0002C0CD02049B022D2008B588020000603438B5003E0012000F0ADFB013CB223DB00184AD358DB0701D4002CF3D1002D01D0AC
:40134000002C08D01349B122D2008B58C020800503438B5013E00F4BB121C90058580F4A02408020800502435A5008395A58520052085A5008495A58520052085A50002DE9
:4013800003D0002C03D0002002E0002000E0044870BDC046000026408C050000FFFFFFCF02004A000749C02252008B589B009B088020C00503438B508B58802000060343D1
:4013C0008B50704700002640214B984230D00ED8402831D004D800281FD010282AD031E080282BD080235B00984229D02AE0194B984229D007D8A0231B0698420DD0164B9A
:40140000984212D01EE0154B98420AD0144B984209D0144B984215D101E0002016E0124814E0124812E0124810E0A020C0030DE007480BE00F4809E00F4807E00F4805E06E
:40144000034803E00E4801E0A420C0037047C04606005200010000F0090000A0040000F0050000F0030000F0010052000200520003005200010050000200500005005200FF
:40148000FF00520070B5124B1A683123D35C002B04D1C421FF310F4800F000FB0C4B1D682C00B423EB582A6A944663441B68002B0BDB094B1868FFF787FF6B6801229A60F2
:4014C00063689B68002BFBD100E0044870BDC04610080008DC2A0010F80700080200500010B50D4B1861002805D002230370FD33437000234380094B1B6850229A5C002ADC
:4015000008D051229B5C002B04D04F3A04490020FFF748FD10BDC046F8070008100800086101000810B502481430FFF7D9FF10BDF807000870B505000C0000285DD000292C
:401540005DD0FF230A689A4303D099212D4800F0A5FAFF2322699A4303D09A21294800F09DFAA3685B0D03D09B21264800F096FA63685B0A03D09C21224800F08FFAE3694D
:401580005B0F03D09D211F4800F088FA236A5B0F03D09E211B4800F081FA1B4A11688B69EB1ADB0949691B01CB18216829607D211068415C6918E06808607E211068415CEA
:4015C0006918206908607F211068415C6918606908607C211068415C6918A06808606168A961116880228A5CAD18A2692A60E2691A60226A5A60002002E0044800E00348BD
:4016000070BDC0461C2B00101008000801005A0010B5B0235B059B899BB2002B04D0B0235B059B899BB201E080235B0080225200934215D1184C23681968683A9B58C91825
:401640000B680F208343963A13430B6021680C689C23CB58E318196881430A431A6019E00D4C2368196898229B58C918B02040050A4BC2580A4B13400A681343C022920037
:4016800013430B60226811689C23D358CB18054A82581A6010BDC0461008000848180000FFFCFFFF4418000030B5B0235B059B899BB2002B04D0B0235B059B899BB201E041
:4016C00080235B0080225200934215D1184C23681968683A9B58C9180B680F208343953A13430B6021680C689C23CB58E318196881430A431A6019E00D4D2B681968982258
:401700009B58C918B0246405C12040012258094B13400A681343C022920013430B602A6811689C23D358CB1822581A6030BDC04610080008FFFCFFFFB0235B059B899BB2DC
:40174000002B04D0B0235B059B899BB201E080235B008022520093420DD1104B1B681A6898215B58D21811680D4B0B40C021C9010B43136011E0094B1B68196898229B580C
:40178000C918084BB0225205D258074B13400A681343C022920013430B60704710080008FF8FFFFF18180000FFFCFFFF30B5B0235B059B899BB2002B04D0B0235B059B8995
:4017C0009BB201E080235B008022520093420DD1134B1B681A6898215B58D2181168114B0B408021C9010B43136018E00C4D2B68196898229B58C918B02464050A48225815
:401800000A4B13400A681343C022920013430B602A6811689C23D358CB1822581A6030BD10080008FF8FFFFF4C180000FFFCFFFF10B5B0235B059B899BB2002B04D0B02306
:401840005B059B899BB201E080235B0080225200934217D1002000F005FAB0235B055B78002B04D0B0235B055B78DBB200E02123222B03D8002803D1013004E0012002E000
:40188000002000E0012010BDF8B50700012803D93D493E4800F002F9B0235B055B78002B04D0B0235B055B78DBB200E021239DB2B0235B059B899BB2002B04D0B0235B05A9
:4018C0009E89B6B201E080267600002000F0CAF9002814D180235B009E4212D1222D12D82B4B1B685C682B4821582B4B19403B068022520413400B432350002404E0274C42
:4019000002E0264C00E0254C80235B009E4201D1222D03D880235B009E4232D01C4B1A683123D35C002B04D1C421FF311C4800F0B5F8174B1B681D6A80235B009E4203D1A8
:40194000002F05D0174A06E0002F03D0164A02E0164A00E0164A01212800FFF7C9F800280FD10B4B1A68B423D3585B191B68002BF7DBEB681B0E1B06A0221206934200D144
:4019800000242000F8BDC0464C0A00009C2B00101008000818F00000FFFFFFFE04004200DC2A0010010100300300000C010000300100000CF8B50500012804D98221090198
:4019C000294800F06BF8FFF733FF002849D000F024F90700002D11D10021244B244AD150E823DB00B0225205D65CF6B20120FFF74BFF041E19D1FFF70BFE16E0B022520504
:401A00001C4BD0581A4B194958501B49565CF6B21A481A581F218A4314390A431A50032000F030F8FFF7C2FE0024002C15D11049124A8B581F20834306401E438E50002D8F
:401A400002D1FFF779FE08E0072000F01BF8FFF72BFE0020FFF718FF0400380000F0E1F800E0074C2000F8BD9C2B0010307F00000000264010180000410700001CFF000044
:401A80000300420010B5034B1B78584300F0BCF810BDC046D400000801BEFEE770B50D00044C18220100200000F099F9A5610020FFF7F2FF00060008054B802212069A6427
:401AC0009B6C002B01DB002000E002487047C0460000274003004600054B8022120198585B68FF221A4202D08023DB021843704700002640FEE7C04610B50A4B0268DA6178
:401B000042681A6282685A62C2689A620269DA6242691A6382695A63C2699A63FFF7EAFF10BDC04600060008F0B5474680B4002801D0192300E064238B429B415B42304D8F
:401B40002C682268A826A45BA41822680327BA433B401A4322602C682268A45BA2181668284CA046264016602C682668AA229446A25A96193268BA43134333602A68136828
:401B80006546525BD3181A68444614401C60002805D010291BD921291BD8012024E0184B1B6855229A5C914215D956229A5C914213D957229A5C914211D958229A5C9142CA
:401BC0000FD959229B5C99420DD804200CE000200AE0022008E0002006E0012004E0022002E0032000E00520054A1268526813680F218B430343136004BC9046F0BDC04672
:401C000010080008FFFCFFFF0230800803D001300238FCD1C046C0467047EFF3108072B6704780F310887047042805D10B4A116804230B4313600FE0094B1A681168A02337
:401C4000D358CB180006C022920410401860034A136804218B4313607047C04610E000E01008000810B50400094B1B689B6CC340DB0703D4BE210748FFF710FF044B1B68CD
:401C80001B691034A402E3580F20184010BDC04610080008DC2B0010014B18607047C04610080008002243088B4274D303098B425FD3030A8B4244D3030B8B4228D3030CE7
:401CC0008B420DD3FF22090212BA030C8B4202D31212090265D0030B8B4219D300E0090AC30B8B4201D3CB03C01A5241830B8B4201D38B03C01A5241430B8B4201D34B035F
:401D0000C01A5241030B8B4201D30B03C01A5241C30A8B4201D3CB02C01A5241830A8B4201D38B02C01A5241430A8B4201D34B02C01A5241030A8B4201D30B02C01A52416C
:401D4000CDD2C3098B4201D3CB01C01A524183098B4201D38B01C01A524143098B4201D34B01C01A524103098B4201D30B01C01A5241C3088B4201D3CB00C01A52418308FD
:401D80008B4201D38B00C01A524143088B4201D34B00C01A5241411A00D20146524110467047FFE701B5002000F006F802BDC0460029F7D076E770477047C046002310B5BA
:401DC0009A4203D0CC5CC4540133F9E710BD03008218934202D019700133FAE77047030030B5002A0DD00C7801335D1E013A2C700131002CF5D19A189A4202D01C7001333D
:401E0000FAE730BDF8B5C046F8BC08BC9E467047F8B5C046F8BC08BC9E467047030000000100000001000000000000000503600004000000010000000000000001000000D5
:401E40000604600008000000C8070008B101001073797374656D5F70736F63365F636D30706C75732E630000F4010000140004010A0009050800000063010000002034408E
:401E80007400802034407400002234407400802234407400002434407400802434407400002634407400802634407400002834407400802834407400002A34407400802A02
:401EC0003440740000213440202000109000000000233440B02000109000000000253440402100109000000000273440D021001090000000002934406022001090000000F9
:401F0000002B3440F02200109000000000603440802300107C00000080603440FC2300107C00000000613440782400107C00000080613440F42400107C0000000062344082
:401F4000702500107C00000080623440EC2500107C00000000633440682600107C00000080633440E42600107C00000000643440602700107C00000080643440DC27001019
:401F80007C00000000653440582800107C00000080653440D42800107C0000003A305C046301EC0C00011401032634400170344002783440630000000000000000000000D0
:401FC000680068060000000000000000000000001212000000030000000000000000000000000000000000BA0000000000000000000000000000000000001D1D0F000000E1
:402000000000000000000000866600000000000000000000000000001414141400000000000000000000000000000000FFFFFFFFFFFFFFFFFFFFFFFFFFFFFFFFFFFFFFFF78
:40204000FF000000FFFFFFFFFFFFFFFFFFFFFFFFFFFFFFFFFFFFFFFFFF000000000000000000000000000000000000000000000000000000FFFFFFFFFFFFFFFFFFFFFFFF82
:40208000111111111111111111111111111111111111111111111111111111111111111111111111111111111111111111111111000000000000000000000000FFFFFFF5FE
:4020C000FFFFFFFFFFFFFFFFFFFFFFFFFFFFFFFFFF000000FFFFFFFFFFFFFFFFFFFFFFFFFFFFFFFFFFFFFFFFFF000000000000000000000000001F000000000000000000E7
:4021000000000000FFFFFFFFFFFFFFFFFFFFFFFF1111111111111111111111111111111111111111111111111111111101111111111111111111111111111111111111118B
:40214000000081810000000000000000FFFFFFFFFFFFFFFFFFFFFFFFFFFFFFFFFFFFFFFF16000000FFFFFFFFFFFFFFFFFFFFFFFFFFFFFFFFFFFFFFFFFF0000001F00001F32
:4021800000001F1F1F00001F00000C1FF000200000000000FFFFFFFFFFFFFFFDFFFFFFFF1111101111111111111111111111111B111111111111111111111111111111114D
:4021C00011111111111111111111111E11111811000000180000000000000004FFFFFFFFF7FFFFFFFFFFFFFFFFFFFFFFFFFFFFFFFF000000FFFFFFFFFFFFFFFFFFFFFFFFC8
:40220000FFFFFFFFFFFFFFFFFF00000007060F060000071F1F00001F1F1F001F0000000040FF0000EFFFFFFFFFFFFFFFFFFFFB7E1111111111111111111111111111111116
:4022400011111111111111111111111112111111111111110311101111111111111111118000A3000000000000000081FFFFFFFFFFFFFFFFFFFFFFFFFFFFFFFFFFFFFFFFBC
:40228000FF000000FFFFFFFFFFFFFFFFFFFFFFFFFFFFFFFFFFFFFFFFFF0000001F1F0000001F001F1F071F000000070E000000F000000000FFFFFFFFFFFFFFFFFFEDFF7E0D
:4022C0001111111111111111111111111111111111111111111111111111111111111111111111111111111111111111111111111020000400000000000104407F6F7FFFC9
:4023000075FFFFFFF6FFFFFF5FFF0FF350FFFFFFFF000000FFFFFFFFFFFFFFFFFFFFFFFFFFFFFFFFFFFFFFFFFF000000061F00001F0000001F021F001F000607000F0F00D3
:402340000000F000FFFFFFEFFFFFFFFFFFFFFFBF11111111111111111111111111111111111111111111111111E11111111E111111111151931111131118115171911111D1
:4023800000000000000000001F1F1F1F1F1F1F1F1F1F1F1F1F1F1F1F1F1F1F1F1F1F1F1F1F1F1F1F1F1F1F1F0000000000000000000000000000000000000000000000003D
:4023C000FFFFFFFFFFFFFFFFFFFFFFFF11111111111111111111111111111111111111111111111111111111111111111111111111111111111111111111111100000000B9
:40240000000000001F1F1F1F1F1F1F1F1F1F1F1F1F1F1F1F1F1F1F1F1F1F1F1F1F1F1F1F1F1F1F1F000000000000000000000F00000000000000000000000000FFFFFFFFB1
:40244000FFFFFFFFFFFFFFFF111111111111111111111111111111111111111111111111111111111111111111111111111111111111111111111111000000000000201004
:402480001F1F1F1F1F1F1F1F1F1F1F1F1F1F1F1F1F1F1F1F1F1F1F1F1F1F071F1F1F1F1F1F00000C00000E001F0004050000001F7000F00000000000FFFFFFFFFFFFFFFF7C
:4024C000FDFBFFFF11111111111111111111111111111111111111111111111111711111111111111111111111111111111111D11E11111E00000000000000101F1F1F1FF0
:402500001F1F1F1F061F1F1F1F1F1F1F1F1F1F061F1F1F171F1F1F1F1F1F1F1F0000001F00001F0E0E0000001F0C0E0700000000F0050000FFFFFFFFFFFFFFFEFFDFFFFE10
:4025400011111111F111111111111111111111111111111111111111171111111111111111111611111011111D11111111F1E11100000000000000000F1F1F1F1F1F1F1F9D
:402580001F1F1F1F1F1F1F071F1F1F1F1F1F1F1F1F1F1F1F1F1F1F1F1F1F0000001F001F091F0C0000000000000006F040006000FFFFFFFFFFFFFFFFFFF6FF7F1111111D4A
:4025C000D111111111111111111111111111111111111111F11111111011111111111111E1150E11DF111111D151111100000000000000401F1F00041F1F1F1F1F1F1F0D49
:402600001F1F1F1F1F1F1F1F1F1F1F1F171F1F1F1F1F1F1F1F07000007000000061F00000200001F00000F060700F060FFFFFFFFFFFFFFFFFFFFFFBF1111118011111111AC
:4026400011911111111111117111111111111111D14111111D1111111111111D10011111DE1111111ED1110100000000000000001F1F1F1F1F1F1F1F1F1F1F1F1F1F1F1F61
:402680001F1F1F1F1F1F1F1F1F1F1F1F1F1F1F1F000000000000000000000000000000000000000000000000FFFFFFFFFFFFFFFFFFFFFFFF1111111111111111111111116A
:4026C00011111111111111111111111111111111111111111111111111111111111111111111111100000000000000011F1F1F0F1F1F1F1F1F1F1F1F1F1F1F1F1F1F1F1F19
:402700001F1F171F1F1F1F1F1F1F1F1F000000000000000000001F00000000000000000000000000FFFFFFFFFFFFFFFFFFFFFFFF111111111111111111111111111111110A
:402740001111111111111111111111A1141111111111111111111E11111111111111101100000000000000C01F1F1F1F1F1F1F1F1F1F1F1F1F1F1F1F1F1F1F1F1F1F1F1FF2
:402780001F1F1F1F1F1F1F1F0C00061F00001F07070C000000001F07F000000000000000FFFFFFFFFFFFFFFFFFFFFB2D11111111111111111111111111111111111111112F
:4027C000111111111111111D111111111111111111111111111111111111111100000000000000801F1F1F1F1F1F1F1F1F1F1F1F1F1F1F1F1F1F1F1F1F1F1F1F1F1F1F1F0D
:402800001F1F1F1F1F000000000000001F000000061F001F0000000000FF0000FFFFFFFFFFFFFFFFFFFFFBFF11111111D11111111111111111111111111111111111E11183
:402840001111111F111111111111111111111111111111D11E1111E100000000000000001F1F1F1F1F1F1F1F1F1F1F1F1F1F1F1F1F1F1F1F1F1F1F121F1F1F1F1F1F1F1F42
:402880000F0C0000000F000F00000000000000000000006000000000FFFFFFFFFFFFFFFFFFFFFFFF11111111111111111111111101111111111111111111F11111111111DF
:4028C000111111111111111111111111711111111111111100000200000000041F1F1F1F1F1F1F061F1F1F1F1F1F1F1F1F1F1F0F1F1F1F1F1F1F1F1F1F1F1F1F001F000048
:4029000000000000000007001F000000430F760000006000FFFFFFFFFFFFFFFFFFFFFFFF111111111411111111111111D1111111111111111111F1111111D11111111111D2
:40294000111111111111111D11DE11D11119111E47656E6572617465645F536F757263655C50536F43365C70646C5C647269766572735C7065726970686572616C5C73798C
:4029800073696E745C63795F737973696E742E630000000047656E6572617465645F536F757263655C50536F43365C70646C5C647269766572735C7065726970686572612E
:4029C0006C5C6970635C63795F6970635F6472762E68000047656E6572617465645F536F757263655C50536F43365C70646C5C647269766572735C70657269706865726166
:402A00006C5C6970635C63795F6970635F6472762E63000047656E6572617465645F536F757263655C50536F43365C70646C5C647269766572735C7065726970686572612A
:402A40006C5C6970635C63795F6970635F706970652E630047656E6572617465645F536F757263655C50536F43365C70646C5C647269766572735C70657269706865726188
:402A80006C5C737973636C6B5C63795F737973636C6B2E630000000047656E6572617465645F536F757263655C50536F43365C70646C5C647269766572735C70657269703B
:402AC000686572616C5C737973636C6B5C63795F737973636C6B2E680000000047656E6572617465645F536F757263655C50536F43365C70646C5C647269766572732F7033
:402B000065726970686572616C2F6970632F63795F6970635F6472762E68000047656E6572617465645F536F757263655C50536F43365C70646C5C647269766572735C707E
:402B400065726970686572616C5C6770696F5C63795F6770696F2E630000000047656E6572617465645F536F757263655C50536F43365C70646C5C647269766572735C70AE
:402B800065726970686572616C5C6770696F5C63795F6770696F2E680000000047656E6572617465645F536F757263655C50536F43365C70646C5C647269766572735C7069
:402BC00065726970686572616C5C737973706D5C63795F737973706D2E63000047656E6572617465645F536F757263655C50536F43365C70646C5C647269766572735C7014
:402C000065726970686572616C5C70726F745C63795F70726F742E63000000000000204000002440000000400000000000002340000030400000314000009F400000224041
:402C40000000104002020202020202020210101D800017007500FF030602063604102000000000007FC0000000040000000000000019324B647D00804000080B1000000092
:402C80000000FF012002001F00800004FF081018001000140018001C4044484C500000000810000008000000040000000410000000120000042100000021000000160000BA
:402CC00040114002C41300138013A013200000001C0000000000214000002540000001400000344000002440000031400000324000001F41000023400000114001010101FB
:402D00000101010101101010800019005500F0000501053B04101C01010000000FC000000004000001010101011D3A57789600082000101208000000001F00000010000FE4
:402D4000002000023F06080E00080009000A000B24282C3034000000100000009000000088000000080000008000000004F0000000F00000400200002005A000D001000167
:402D80008001A0012000000010000000000000000000001000000008C0000000B02D0010C0000008400500003C060008D80100000048E80100127A0000093D0000093D0083
:402DC00000093D0004000000A00F00000000D007E9000010C10000100000000010B50004400B27D0144B1A68146AB023D15ACA00531AE3181B68002BF4DA3E220F4B1A60EF
:402E00000F4A104B1A60104B0621A322D20099500E4A98509B58084B1A68106AB023D15ACA00531AC31800225A60084B064AD358002BFADA10BDC0461008000804012640C9
:402E40001E1F000008012640000026401C05000010B54378FF2B20D100F002FA04000F4B1A683123D35C042B04D8C421FF310C4800F01EFA094B1A68116AB023D35A9B00CD
:402E8000CB18DB685A68116801230B4313601368DB07FCD4200000F023FA10BD10080008DC2A0010F0B585B001900291544B1A683123D35C002B04D1C421FF31514800F02F
:402EC000F7F94F4B1B681E6AB4229A58971950229B5C002B77D000F0D3F9050003283CD1474B1A683123D35C062B04D8C421FF31444800F0DDF9424B1968B023CB5A5A0086
:402F0000D21853000A6A94466344B4228A58D3181B68002B23DB002000F0BAF93A4B98421FD03A4B1A6900230021012000F0C8F9002803D0364C17E0013400E00024002014
:402F400000F0A6F9304B984202D0324B9C42F3D9304B9C4207D92E4C06E0002404E02C4C02E02B4C00E00024002C46D100F078F90390294B294AD358002B13DA234A01210E
:402F8000300000F075F900280ED10298FFF726FF019B002B0AD03B68002BFCDB00F080F9040004E01A4C02E0194C00E01C4C032D05D10121002000F08BF90028F9D10398F2
:402FC00000F08EF919E000F04BF905000F4A0121300000F04DF9002809D1019B002B08D03B68002BFCDB00F05BF9040002E0084C00E00B4C280000F073F9200005B0F0BD46
:4030000010080008DC2A001001018800F807000805005200EF4902001C0500000000264001005000F0B54F464646C0B4824B1A685468B0235B055B78002B04D0B0235B05E3
:403040005B78DBB200E02123212B67D1B023D15ACB005B1A116A8C46634419680029F5DADD6802212943D960B023D15ACB005B1A116A8C466344D968C9073ED5D9680904EC
:40308000090C8C4684271168D559A84641440968090A0904FF26360431400D0088261168894691598846C14449460968090A0906294365462943D9601168D359C9180A686D
:4030C0005E4B98461A4090252D012A430A605A4B99461A6813689C46925962441368414619400B002B4313604B461A681568D15969180B689359EB181B684F4B1A68B021ED
:40310000555AEB005B1B156AAC46634400255D60156A515ACA00531AEB185B68484A116904230B431361012801D030BF00E020BF414B1A68B023D15ACB005B1A116A8C4628
:40314000634419680029F3DAB02149054978002904D0B02149054978C9B200E02121212932D1D968C90722D510688421525880180468324A1440DB681B0C1B02FF21090235
:403180000B40234303602C4B19688823C8580B689C46604403681A400D6AB023CC5AE1000B1BEB18DB681B0E1B021A430260224B1A68106AB023D15ACA00531AC318DA68FD
:4031C00002218A43DA6028E086235B00E358002B23D11C4807681C4BA321C9005E581B4A904615681A4A0260062058503E21424611600631174A9950164B134AD358002B89
:40320000FADA154A86235B00E2500E4B1F60A323DB000D4AD6500D4B1D60074B1A68106AB023D15ACA00531AC31800225A600CBC90469946F0BDC04610080008FF00FFFFD3
:4032400000ED00E00801264000002640040126401E1F00001C050000AAAAAAAA0000000001B40248844601BC604700BF1B1C001001B40248844601BC604700BFF10A001011
:4032800001B40248844601BC604700BF3504001001B40248844601BC604700BF090D001001B40248844601BC604700BF8514001001B40248844601BC604700BF9D1A00107F
:4032C00001B40248844601BC604700BFED0E001001B40248844601BC604700BF7D0C001001B40248844601BC604700BF231C00100000000000000000000000000000000017
:40330000000000000000000000000000000000000000000000000000000000000000000000000000000000000000000000000000000000000000000000000000000000008D
:40334000000000000000000000000000000000000000000000000000000000000000000000000000000000000000000000000000000000000000000000000000000000004D
:40338000000000000000000000000000000000000000000000000000000000000000000000000000000000000000000000000000000000000000000000000000000000000D
:4033C00000000000000000000000000000000000000000000000000000000000000000000000000000000000000000000000000000000000000000000000000000000000CD
:020000041008E2
:4000000000780408EB0208100D00000051030810510308105103081051030810000000000000000000000000000000004D0308104D030810000000004D0308104D030810DA
:400040004D0308104D0308104D0308104D0308104D0308104D0308104D0308104D0308104D0308104D0308104D0308104D0308104D0308104D0308104D0308104D03081000
:400080004D0308104D0308104D0308104D0308104D0308104D0308104D0308104D0308104D0308104D0308104D0308104D0308104D0308104D0308104D0308104D030810C0
:4000C0004D0308104D0308104D0308104D0308104D0308104D0308104D0308104D0308104D0308104D0308104D0308104D0308104D0308104D0308104D0308104D03081080
:400100004D0308104D0308104D0308104D0308104D0308104D0308104D0308104D0308104D0308104D0308104D0308104D0308104D0308104D0308104D0308104D0308103F
:400140004D0308104D0308104D0308104D0308104D0308104D0308104D0308104D0308104D0308104D0308104D0308104D0308104D0308104D0308104D0308104D030810FF
:400180004D0308104D0308104D0308104D0308104D0308104D0308104D0308104D0308104D0308104D0308104D0308104D0308104D0308104D0308104D0308104D030810BF
:4001C0004D0308104D0308104D0308104D0308104D0308104D0308104D0308104D0308104D0308104D0308104D0308104D0308104D0308104D0308104D0308104D0308107F
:400200004D0308104D0308104D0308104D0308104D0308104D0308104D0308104D0308104D0308104D0308104D0308104D0308104D0308104D0308104D0308104D0308103E
:400240004D0308104D0308104D0308104D0308104D0308104D0308104D0308104D0308104D0308104D0308104D0308104D0308104D0308104D0308104D0308104D030810FE
:400280004D0308104D0308104D03081010B5054C237833B9044B13B10448AFF300800123237010BDB46D020800000000ACA00810084B10B51BB108490848AFF300800848DE
:4002C000036803B910BD074B002BFBD0BDE81040184700BF00000000B86D0208ACA0081038470208000000007047FFF7FDFF72B6104C114DAC4209DA21686268A368043B9A
:40030000A2BFC858D050FAE70C34F3E70B490C4A00209142BCBF41F8040BFAE709480A490860BFF34F8F00F089FA00F063FA00F0D7F8FEE7B8C00A10D0C00A10B46D020879
:40034000A89702080040020808ED00E0FEE7FEE700B504207146084202D0EFF3098001E0EFF30880043003F0BBF8FEE770B582B005460E46084C0146204600F069FC02A834
:4003800000F8046D012100F069FC2946204600F037FC002002B070BDB042020800B58FB01E4B1B88ADF804309DF8053013B91C4AD35C00E00023022B2CD11223ADF83430FB
:4003C000184B0B931423ADF8303006AB0EAA12E9070083E807000022ADF824200F490988ADF826108DF82820184612F031F80E4B1B687BB102AB0EAA12E9070083E80700DD
:40040000064A1288ADF81420184611F05FF9074B5A881A800FB05DF804FB00BF409702084C97020804970208009702088C42020810B586B044F2080398420ED00C4603D895
:40044000B0F5805F09D046E045F2010398420BD045F20C0398420AD03DE000201F4B1860014603F0DDFC36E0FFF798FF33E00B89122B13D101AB07C983E807000022ADF8BD
:400480001020A289ADF8122040228DF81420184611F0DEFF10B9E06811F026F92389132B19D101AB94E8070083E807000022ADF81020A289ADF8122040228DF8142018469B
:4004C00011F0C6FF23681B7803F00103034A1360E06811F009F906B010BD00BF0097020870B500F09BFC62B6504B1B689D6893F87320032000FA02F493F8701093F87220F3
:4005000001FA02F2224342F00042C5F800249C68D4F8002493F87310884093F8702093F8721002FA01F1014302F001020A4342F00042C4F800249B68D3F8003404F0F6FC70
:400540003B4C3C49204601F0D5F93B4B1868002302221946406805F03DFF384800F034FC3749204601F0C6F90121002000F0CCF908210020FFF7FAFE10210020FFF7F6FE26
:40058000002514E000EB400105EB4504E3000B442C490B4400219954013200E00022022AF0DD013000E000200728F7DD0135FF2DF9DD254BEE221A70D5225A700025214BC3
:4005C000224A0021084600F055FA00242AE0E3B21D4A9370D5700135EDB2002213E0161D1B4B83FB0213A3EBE27303EB840103EB4303D01A01EB4101124B19440B5CDBB209
:4006000011498B5501320B2AE9DD0F4BAD221A74FA225A74FFF7C2FE2BF0D6F8002002F09BFE0134012CD2DDC9E700BF3C9702080000664000850810F44602083104081036
:4006400008850810007F020804970208FC7E02085655555508B5012000F0A0FF08BD00BF704700BF5C4AD2F8803303F00F0303F1D00152F8212002F00702032A04D0042AC5
:4006800005D092B9554914E0554A116811E003F1C002514951F8222002F01F02112A06D0132A04D04FF4FA4103E04E4901E04FF400418BBB484BD3F8902502F00100D3F8FB
:4006C0008825C2F30172D3F8883513F0405F07D0414BD3F88835C3F30173012B02D102E0012300E0002303B108B9032A46D13A48D0F88025C2F31103D0F88425C2F30C0239
:40070000D0F88005C0F300600130B1FBF2F202FB03F2B2FBF0F131E0012B2FD12E4BD3F8402602F00100D3F80026C2F30172D3F8003613F0405F07D0274BD3F80036C3F382
:400740000173012B02D102E0012300E0002303B108B9032A12D12048D0F8002602F07F02D0F80036C3F30423D0F80006C0F3044002FB01F2B2FBF3F2B2FBF0F1164BD3F8D3
:400780008033C3F3011321FA03F215494A601648D0F89030C3F3072301330069000E0130B2FBF0F08860B2FBF3F3CB600B6103F5742202F23F220D48A0FB0202C2F387420E
:4007C0000A7503F2E7330A4AA2FB03239B098B61DB03CB61704700BF0000264000127A009042020800366E010000214083DE1B43D34D621008B50D4802F0F0FEFFF730FF08
:40080000FFF730FF00221146042000F04BFC084800F022FD074B1B6893F8513013B1064800F08AFD01F0E6FF08BD00BF1C8C0810D06D02083C9702081885081008B502F054
:40084000ACFE074AD2F8883043F47003C2F88830BFF34F8FBFF36F8F02F0A3FE08BD00BF00ED00E0F0B583B005460F461C4C0146204600F0EDF902AE112306F8083D01210F
:40088000304600F0EBF92946204600F0B9F92946204600F0DDF90A238DF800300121304600F0DCF92946204600F0AAF92946204600F0CEF947F020078DF8047000268DF8A7
:4008C0000560FF238DF80630032101A800F0C6F92946204600F094F9304603B0F0BD00BFB042020810B582B041F040018DF8041000248DF805408DF80620032101A800F0FF
:40090000ADF9204602B010BD2DE9F04182B004468846062000F04EF9012000F04BF9042000F048F94FF47A7002F09EFD042000F06DF94FF47A7002F097FD042000F03AF966
:400940000A2002F091FD4FF47A7002F08DFD474D2146284600F07CF94FF47A7002F084FD2146284600F04CF94FF4FA7002F07CFD2146284600F06CF902AE112306F8083D43
:400980000121304600F06AF92146284600F038F90A2002F069FD2146284600F059F90A278DF800700121304600F058F92146284600F026F9384602F057FDB8F1000F43D04B
:4009C000002214212046FFF78DFF962201212046FFF788FFD02202212046FFF783FF802203212046FFF77EFF962000F0DFF8602205212046FFF776FF602206212046FFF76E
:400A000071FF602207212046FFF76CFF602208212046FFF767FF602209212046FFF762FF602239462046FFF75DFF60220B212046FFF758FF60220C212046FFF753FF202246
:400A400015212046FFF74EFF642002F00DFD01AA03210020FFF706FF9DF80410044805F0A1FC002002B0BDE8F08100BFB04202084C8508102DE9F0418AB0054601919046E6
:400A80001C460146474800F0E3F8474B1B6913F0100F01D1012300E00023002BF5D0414E2946304600F0D4F80AAF0A2307F8203D0121384600F0D2F82946304600F0A0F8D9
:400AC0001B2103A800F008F92946304600F098F82946304600F0BCF808238DF808300121384600F0BBF82946304600F089F89DF80C3088F800309DF80D3088F801309DF816
:400B00000E3088F8023000238DF8273040E0019B03EB4303DA00A1189DF827209DF82730013303EB43030AA8034413F81C3C02EB42028B54019B03EB4303DA00A1189DF8AF
:400B400027209DF82730013303EB43030133034413F81C3C02EB42020A445370019B03EB4303DA00A1189DF827209DF82730013303EB43030233034413F81C3C02EB420217
:400B80000A4493709DF827300133DBB28DF827309DF82730DBB2072BB9D900200AB0BDE8F08100BFB04202088002324008B502F05BFC08BD013805281BD8DFE800F003079A
:400BC0000B0F131710220B4B9A60704710220A4B9A6070474022074B9A6070472022054B9A6070470822054B9A6070474022024B9A607047000532408002324080043240AC
:400C000008B50520FFF7D6FF08BD00BF0138042817D8DFE800F003070B0F13001022094B5A6070471022084B5A6070474022054B5A6070472022034B5A6070470822034BB8
:400C40005A60704700053240800232408004324008B50520FFF7DAFF08BD00BF2DE9F04782B002AF82460E46CB1D23F00703ADEB030D0DF108094FF0FF08154B00933346B3
:400C80004A465146134801F045F8D0B94FF47A740F49104801F0F0F80546012002F0E4FB013C15F0010F01D0002CF1D115F4066F07D10749074801F0DDF8864201D14FF05F
:400CC0000008B8F1000FD8D14046BD46BDE8F08718970208000063402DE9F04385B080460F464FF0FF0900238DF80E304FF47A75FF2600238DF80F30214B009301230DF165
:400D00000E020DF10F011F4801F004F8C0B94FF47A741B491B4801F0AFF8013C10F0010F01D0002CF5D110F4066F09D19DF80E3008F806300136F6B2BE4201D14FF00009D3
:400D4000012002F091FB013DBE4201D2002DD0D1B9F1000FC7D10C4805F024FB002405E018F80410094805F01DFB0134BC42F7DB074805F017FB484605B0BDE8F08300BF3C
:400D800018970208000063405C850810588508106485081010B504462146034800F064FD0028F9D010BD00BF00006640054BD3F80833C3F30803002BF8D0024BD3F840034E
:400DC000704700BF0000664098B108B50A4AD0620A4B1B7843B91046094B536302F06CFC0122064B1A7000E0002020B902F08EFC08BD0448704708BDB4420208506F020804
:400E0000848508100100160008B50249024801F035F808BD189702080000634010B5144B1B7883B9134C144A1449204600F03EFE236A23F0406323621149124800F04AF89C
:400E400001220B4B1A700F4BB3F90030002B08DB590903F01F03012202FA03F30A4A42F82130044A136843F00043136010BD00BF786F020800006340189702086087081036
:400E8000090E08107C85081000E100E038B50D4B9A680D4B9A420FD10D46044621B940F237110A4802F004FB04F11003064A52F8230042F8235038BD1030054B53F8200038
:400EC00038BD00BF00ED00E000400208948708100000081048B338B504460D464368072B03D93221134802F0E3FAB4F900306268002B08DB5201D2B203F1604303F5614362
:400F000083F8002305E003F00F035201D2B20A49CA540A4B9A680A4B9A4208D12946B4F90000FFF7B3FF002038BD06487047002038BD00BF9487081014ED00E000ED00E0ED
:400F4000004002080100560038B50B4B1B68D3F8B4301B58002B0DDA0D4604460B0C1B0423B140F2D521054802F0A2FAA9B26160002038BD024838BD3C970208D887081068
:400F800001008A0038B50368002B01DA002300E0094B73B90D460446C2600B0C1B0423B140F2BB21054802F083FAA9B2A160002038BD014838BD00BF01008A00D8870810C2
:400FC00038B504460D4619B99921084802F070FA074B1B68D3F8B4301B59002B03DAE3682B60002038BD034838BD00BF188808103C97020801008A00254B1B6893F8313046
:4010000083423AD900293AD00B6813F01F0F38D170B50D4604461E4B1B6893F83130984204D340F2C3111B4802F042FA184B1B68186AB3F8B03004FB0304174E34602A6892
:40104000D2080021686804F033FD00212046FFF77BFF346825B940F293310E4802F028FA2A4600212046FFF78DFF60B900210A4B1868FFF769FF40B970BD0848704707484E
:40108000704706487047064870BD054870BD00BF3C970208D88708107C6F020803018A0001018A0010B504461346B2B9A9B9124B1B6893F83130984204D340F2C3110F484E
:4010C00002F0F6F90C4B1B681A6AB3F8B03004FB03240B4B1C60002010BD43B149B1084A51609360111D2046FFF786FF10BD054810BD044810BD00BF3C970208D88708103B
:401100007C6F020803018A002DE9F0411B4B1B68DC68236883422CD90D464609A0EB4610012303FA00F819B902F037FA074600E00027124B18680368002B01DA002300E02D
:401140000F4B83B9626852F8263018EA030F05D148EA030342F82630002400E0094C0021FFF7F2FE00E0084C25B9384602F019FA00E0064C2046BDE8F08100BF7C6F020866
:4011800001008A00020188000301880004018A002DE9F0411B4B1B68DC68236883422CD90D464609A0EB4610012303FA00F819B902F0F3F9074600E00027124B186803684D
:4011C000002B01DA002300E00F4B83B9626852F8263018EA030F05D023EA080342F82630002400E0094C0021FFF7AEFE00E0084C25B9384602F0D5F900E0064C2046BDE8AC
:40120000F08100BF7C6F020801008A00020188000301880004018A000B4B1B68DB681A6882420CD94109A0EB4110012202FA00F05B6853F82130184203D004487047044801
:4012400070470448704700BF7C6F02080101880004018A0000018800024B1B680BB9014B18607047886F02082DE9F8430446884691461D46089F2C4B1B681BB9B5212B48ED
:4012800002F016F9284B1B682C2000FB04F01C18EEB21E50C5F3072363602D0CA560244B1B6893F831309E4204D340F2C311214802F0FEF81E4B1B68196AB3F8B02006FB00
:4012C00002162661666893F832309E4204D340F2DF11184802F0ECF8154B1B681D6A803605EB46156561A668330C1B0423B14FF4FF71104802F0DCF8330C1B0423B140F2DF
:40130000FF110C4802F0D4F8B3B243EA0646AE60C4F81C90C4F820800023A36117B1B7F90030A381BDE8F883886F0208588808103C970208D8870810F0B58FB0044618B97C
:401340005221274802F0B4F8A369072B03D95621234802F0ADF8E36A1BB95821204802F0A7F8236B1BB959211D4802F0A1F807AD04F114060FCE0FC537682F6002AD26463E
:401380000FCE0FC533682B60164B1B68B3F93620079B1344ADF83030089B0D93A26AE16A0CAD00953B460A98FFF75EFF00210091069B0A460598FFF757FF216B2846FFF798
:4013C00089FDBDF93030002B08DB590903F01F03012202FA03F3044A42F821300FB0F0BD588808103C97020800E100E0F8B506460F461D4614461AB9FD211F4802F058F837
:401400001E4B1B681BB9FE211B4802F051F81B4B1B682C2101FB063001FB07314B68012202FA03F31B04466802FA06F60269EAB18F69EFB91268002A01DA002200E0104A85
:40144000C2B92288134323600369DC6001238B614D620469330C1B0423B140F2BB21094802F026F8B2B2A2600020F8BD0648F8BD0648F8BD0548F8BD58880810886F0208BD
:4014800001008A00D887081004028A0007028A00F8B505460F4616460E4B1B6823B94FF4AF710D4802F004F80A4B1B682C2404FB0534236A23B94FF4B171074801F0F8FF9B
:4014C000E369B34204D9236A43F826700020F8BD0248F8BD886F0208588808100A028A0070B582B000230193044620B940F2D111284801F0DDFF236923B94FF4E971254819
:4015000001F0D6FF636923B940F2D311214801F0CFFF236A23B94FF4EA711E4801F0C8FF6369DD682A0C20D012041A601B682069194B1B68D3F8B430C358002B15DA01A992
:40154000FFF73EFD60B9019803681E0CDBB2E269934206D2226A52F8233013B1984700E0002631462069FFF7EFFCADB275B16369ADB21D601B68636A1BB1984700236362AB
:4015800002E0A36A03B198470023A36163691B6802B070BD588808103C97020810B50446074B1B6823B940F2B111064801F080FF034B1B682C2000FB0430FFF791FF10BD6E
:4015C000886F02085888081010B504460D4B1B6893F83C30834204D84FF491710A4801F067FF04F1D003094A52F8230000F00700042806D1C03452F8240000F01F0040F45B
:40160000807010BD3C9702089888081000002640B0F5C26F80F09B80B2F5C26F80F09980B1F1807F80F09780F0B401244C4B1C70FF2805D800F00F000F26374607231DE0C0
:40164000B0F5A06F05D200F00F030F260027384614E0C0F30325B0F5C06F07D20001C4B245EA0403FF260027384607E0030203F470632B4340F60F7600273846FF2A09D882
:401680001201D2B2104343F4E02347F0F00746F4702620E0B2F5A06F06D2120402F47022134346F4702616E0140A240404F470241C43B2F5C06F06D2130503F470032343F9
:4016C00046F47F0607E0120602F07063234346F0706646F47026234A1268156AB2F8B020C2EBC202AA58002AF5DA1D4A527822B11D4AD2F81C25002A1DDA41F61F741B4A13
:40170000146043F63D54043A1460A2F58272D2F8184524EA07073843C2F81805D2F8140520EA06063343C2F814350D4B5960C2F81C15002000E00E480A4B1A68116AB2F8D9
:40174000B030C3EBC3030B4400225A6005E0084870470748704706487047F0BC704700BF8C6F02083C970208000026400801264001004A0070B505460022214B1A70214BDB
:401780001B681A6AB3F8B030C3EBC303D418D358002BF4DA1C4B1A6841F61F739A4207D11A4B1A6843F63D539A4203D0002602E0002600E00126164BD3F8202522F07F40D7
:4017C00000226260D6B1D0B165B90D4B5E684408002502460023E1FB06452046294603F0C1FF70BD064B5A68540800250023E1FB00452046294603F0B5FF70BD002070BD3B
:401800008C6F02083C97020808012640040126400000264010B4D0F8003303F00F03072B06D900230DE0D0F84043CC54013300E000239342F7D306E0D0F8404321F81340C3
:4018400001339342F8D35DF8044B704710B51446D0F80833C3F308039A4200D31C462246FFF7D8FF204610BD036813F4006F01D0802200E04022D0F80832C3F308039342AF
:4018800003D0C0F84012012070470020704700BF10B4D0F8003203F00F03072B06D900230DE0CC5CC0F84042013300E000239342F7D306E031F81340C0F84042013393421C
:4018C000F8D35DF8044B704710B51446036813F4006F01D0802200E04022D0F80832C3F30803D31AA34200D81C462246FFF7D0FF204610BD30B4036813F4006F01D08022A6
:4019000000E04022002408E0D0F80832C3F308039A42F9D0C0F8405201340D5D002DF3D130BC704702E0C0F84012013A002AFAD1704700BF02E0D0F8403301390029FAD197
:40194000704700BFF8B506460D46036813F4006F01D0802400E04024D6F80832C3F30803E41A6B699C4200D91C46AA692244AA611B1B6B612F6977B1224639463046FFF7BE
:4019800087FFD6F8003203F00F03072B00D9640027442F6105E022464FF6FF713046FFF7C1FF6B69BBB92B6843F002032B60D6F8883F23F0010423F4EE6323F0030323B164
:4019C00040F22A41044801F073FDC6F8884FEB690BB101209847F8BD20890810F8B506460D46D0F80843C4F308048B68A34200D21C46EA682244EA601B1BAB606F6877B112
:401A0000224639463046FFF705FFD6F8003303F00F03072B00D9640027446F6003E021463046FFF787FFAB6883B9D6F8C83F23F0010423F4366323F00D0323B140F29A3184
:401A4000194801F035FDC6F8C84FF8BD326A002A07DA326812F4006F01D0802209E0402207E0326812F4006F01D0802200E0402252089A4216D95C1E336813F4006F01D0B8
:401A8000802300E040239C4204D34FF42071064801F00EFDD6F8043323F0FF02E3B21343C6F80433F8BD00BF20890810002800F02481F8B50546002900F0218117460C4620
:401AC0000B78012B03D93F218F4801F0F1FC6378012B07D9052B05D0022B03D040218A4801F0E6FCA378032B03D94121864801F0DFFC2378012B07D16368023B0E2B03D977
:401B00004321814801F0D4FCA36933F00F0303D044217D4801F0CCFCA368043B0C2B03D94521794801F0C4FCE368043B0C2B03D94621754801F0BCFC6378022B07D0A26838
:401B4000E3689A4203D047216F4801F0B1FC636A33F06D0303D049216B4801F0A9FCE36A33F0730303D04A21674801F0A1FC236B33F4206303D04B21634801F099FC6378E4
:401B8000A678052B07D8DFE803F0060305060603022600E00026A368082B04D8E368082B03D9002302E0002300E0012313B14FF4006200E00022237F13B14FF4807300E06C
:401BC00000231A436368013B03F00F03134343F080732B60226A2B6813F4006F01D0802300E040239A4203D35821474801F060FCA26A2B6813F4006F01D0802300E0402333
:401C00009A4203D35921404801F052FC237D0BB9012100E000216278052A01D1022300E000230B43E17C09B1102100E000210B43617C09B1202100E000210B432178012958
:401C400002D14FF0004100E000210B43B60006F00C063343A169090201F470610B43120602F0407213432B62237C13B14FF4807200E00022A37C13B14FF4007300E0002390
:401C80001A43A368013B03F00F031343C5F8003394F82030C5F80433237C13B14FF4807200E00022E368013B03F00F031343C5F8003294F82830C5F80432636A03F06D03F3
:401CC000C5F8C83FE36A03F07303C5F8883F236B03F40073C5F8003F236B03F40063C5F8403F0023C5F8C83E5FB118463B60BB61FB60FB61054B3B62F8BD0548704704481A
:401D0000F8BD0020F8BD00BF64890810EFCDAB000140AA002DE9F84306460F4690461D46089C24B940F255214E4801F0C1FB226A4D4B9A4204D040F256214A4801F0B8FBB9
:401D40004DB127B9B8F1000F03D0002302E0002300E0012323B140F25721424801F0A8FB236813F0010F79D1336813F4006F02D04FF0800901E04FF0400901232360276107
:401D800065610023A361C4F80480A560E3604FEA5904336813F4006F01D0802300E040239C4204D34FF43A71304801F081FBD6F8043223F0FF032343C6F80432336A002B8D
:401DC00024DA4D4501D9A51E00E0013D336813F4006F01D0802300E040239D4204D34FF42071224801F064FBD6F8044324F0FF04EDB22543C6F804530020C6F8080F01232B
:401E0000C6F8C83FC6F8883FBDE8F883A54201D9A51E00E0013D336813F4006F01D0802300E040239D4204D34FF420710F4801F03FFBD6F8043323F0FF03EDB21D43C6F8EB
:401E400004534FF40063C6F8483F2123C6F8C83F4123C6F8883F0020BDE8F8830448BDE8F88300BF64890810EFCDAB00208908100240AA00C86870470868704738B5044665
:401E80000D46D0F8CC3E13F0010F04D00123C0F8C03ED0F8C03ED4F84C3F13F4006F0BD02B6843F400632B604FF40063C4F8403FD4F8403F012300E00023D4F8CC2F12F0FA
:401EC000200F09D02B6843F020032B602023C4F8C03FD4F8C03F0123D4F88C2F12F0400F09D02B6843F040032B604023C4F8803FD4F8803F01231BB1EB690BB104209847C8
:401F0000D4F8CC3F13F0010F08D029462046FFF765FD0123C4F8C03FD4F8C03FD4F88C3F13F0010F08D029462046FFF70BFD0123C4F8803FD4F8803F2B6813F0010F0BD008
:401F4000AB684BB96B693BB92B6823F001032B60EB690BB10220984738BD00BF2DE9F84305460C46036813F4006F02D04FF0800801E04FF04008D5F8007207F00F07A26A60
:401F8000012A19D9D4F82490E262561EB9F1000F00D026B940F27351254801F089FA324649462846FFF790FCA36A1B1AA362072F00D9400048446062D5F80832C3F30803EA
:401FC000984533D0A36A012B30D10023A362072F02D8636A1E7801E0636A1E8801F0DDFAC5F840624FF40073C5F8803FD5F8803F01F0D7FAD5F8883F23F4007222F00102FF
:4020000042F4007623F4EE6323F0030323B140F22A41084801F04CFAC5F8886F236843F002032360236B0BB101209847BDE8F883A4890810208908102DE9F04105460C462D
:40204000036813F4006F01D0802600E040267608A769D4F81C8017B1B8F1000F04D14FF49961314801F024FA424639462846FFF7EDFB236A03442362E3691B1AE36173BB13
:40208000A368FBB1E3689E4201D8013E00E05E1E2B6813F4006F01D0802300E040239E4204D34FF42071214801F002FAD5F8043323F0FF03F6B21E43C5F804630123C5F802
:4020C000C83F02E00023C5F8C83F636823F001036360236B33B304209847BDE8F081A169D5F8002302F00F02072A00D940000844A0619E4216D95C1E2B6813F4006F01D027
:40210000802300E040239C4204D34FF42071074801F0CEF9D5F8043323F0FF02E3B21343C5F80433BDE8F081A489081020890810002800F0A48170B50546002900F0A1812E
:4021400016460C460B78022B03D93F21A24801F0AFF9637B023BDBB2062B03D940219E4801F0A6F9A37B3BB1022B05D0032B03D04121994801F09CF994F82130012B03D9FB
:402180004221954801F094F994F82830012B03D94321914801F08CF92378012B06D86368083B082B94BF0023012307E0A37F2BB16368013B062B94BF002301231BB1452159
:4021C000854801F075F9A368053B042B03D94621814801F06DF96369FF2B03D947217E4801F066F9A369FF2B03D948217A4801F05FF9A37C6BB1237833B9A368092B05D129
:40220000A37B2BB1012304E0012302E0012300E000231BB14A21704801F04AF9636B23F4366323F00D031BB14C216B4801F040F9E36B23F4EE6323F003031BB14D216648DE
:4022400001F036F92378022B01D1A37F13B16268013A00E00022237F13B14FF4803100E00021A368082B02D84FF4006300E000230B4302F00F02134343F000732B60226B36
:402280002B6813F4006F01D0802300E040239A4203D36221504801F00BF9A26B2B6813F4006F01D0802300E040239A4203D36321494801F0FDF8626A2B6813F4006F01D07C
:4022C000802300E040239A4203D36421424801F0EFF823781B0603F040732B64637F0BB1402200E00022A37C13B14FF4806300E000231343227C12B14FF4807200E0002272
:402300001343627C12B14FF4007200E000221A43E36A013B1B0403F470231343627B013A02F007021343A27B120102F030021343AB64237B13B14FF4807200E00022E37BF1
:4023400023B92378022B03D1012302E0012300E0002313B14FF4007300E000231A43A368013B03F00F031343C5F80033227DA3691B0403F47F031343C5F81033E26AD5F89A
:40238000003303F00F0303339A4201D3102A03D97A21114801F08CF8E37F23B12378012B03D0002302E0002300E0012313B14FF4807200E00022637B013B03F007031A4315
:4023C000A37B1B0103F0300313436B64237B2BB14FF4807203E000BFE48908100022A368013B03F00F0313432278012A02D14FF4803200E000221343C5F8003294F83030FE
:40240000C5F8043394F8203013B14FF0007200E0002294F82130012B02D14FF0807300E00023134394F82820012A02D14FF4803200E00022134394F8242013432B6594F88D
:402440003830C5F80432636B23F4926323F002031B051B0DC5F8C83FE36B23F08C035B055B0DC5F8883F76B1002070603060B060F0603062F0623063044B736370BD0448AB
:402480007047034870BD002070BD00BFEFCDAB000160AA000B694A69934202D34869181A7047CA694869101A184470472DE9F04107460D46036813F4006F02D04FF0800882
:4024C00001E04FF040084FEA5808D7F80863C6F308062C6926E00134EB689C4200D100246B699C420FD12B6B0BB1082098476B699C4208D10023C7F8C83F0CB1013C13E098
:40250000EC68013C10E0D7F84023D7F8003303F00F03072B02D8AB681A5502E0AB6823F81420013E002ED6D12C61EC6829463846FFF7B0FF201A804519D908B1441E00E09C
:4025400000243B6813F4006F01D0802300E040239C4204D34FF42071064800F0A9FFD7F8040320F0FF03E0B21843C7F80403BDE8F08100BF2089081038B504460D46D0F875
:40258000003E13F0080F35D0D0F8CC3F13F448730AD04A681A434A60C0F8C03FD0F8C03F0B6B0BB110209847D4F8CC3F13F4006F09D06B6843F400636B604FF40063C4F817
:4025C000C03FD4F8C03FD4F8CC3F13F0010F11D0EB6923B129462046FFF72EFD05E0AB681BB129462046FFF761FF0123C4F8C03FD4F8C03FD4F8003E13F0040F2ED0D4F8A5
:402600008C3F13F4A0630AD02A681A432A60C4F8803FD4F8803F2B6B0BB120209847D4F88C3F13F0010F08D029462046FFF796FC0123C4F8803FD4F8803FD4F88C3F13F454
:40264000007F0BD00022C4F8882F2B6823F001032B60EA622B6B0BB10220984738BD00BFC0F30800B0FA80F0400970471F4B98422DD00CD840282ED003D8E8B1102828D0DF
:402680002FE0802829D0B0F5807F28D029E0184B984228D006D8B0F1204F0DD0154B984212D01EE0144B98420AD00133984209D0023B984215D101E0002070470F487047EE
:4026C0000F4870470F4870474FF4A0007047074870470D4870470D4870470D487047034870470C4870474FF4A400704706005200010000F0090000A0040000F00100520016
:402700000200520003005200010050000200500005005200FF00520038B5124B1B6893F83130012B04D840F2C3110F4800F0C0FE0C4B1D682A6AB5F8B03013442C46D5F846
:40274000B420D358002B0BDB084B1868FFF78EFF6B6801229A6063689B68002BFBD138BD034838BD3C970208248A0810986F0208020050001A4B186128B102230370FF2392
:40278000437000234380174B1B6893F850202AB300B583B0B3F93830ADF800300023019311496846FEF796FBBDF90030002B08DB590903F01F03012202FA03F30B4A42F89E
:4027C0002130084B1B6893F8513023B1022208490120FEF75DFE03B05DF804FB704700BF986F02083C970208A947020800E100E06148020808B50248FFF7BCFF08BD00BFD7
:40280000AC6F020838B505460C46FFF729FF002833D0002C33D0FDF725FF1A4B1A4A1A6000225A609D60DC60184B1B6893F85220EAB11968D3F88430CA58CB58C3F3072160
:40284000120E531C01FB0333114901FB03F3114A12681149A1FB02218909B3FBF1F101F5195108314FF4807005F042FE38BD00214FF4807005F03CFE38BD084838BD074839
:4028800038BD00BF986F0208000100053C970208C0EA210194420208D34D62100600520008B5FFF739FF08BD10B50446FFF7D8FE00283AD0FDF7D6FE4FF0E0521C4B1A6003
:4028C0001C4B1B7813F0FF0F04D0194A136843F480731360164B5C6000229A60DA60164B1B6893F85420DAB11968D3F88430CA58CB58C3F30721120E531C01FB03330F4961
:4029000001FB03F30E4A12680E49A1FB02218909B3FBF1F101F69801002005F0E9FD10BD0021084605F0E4FD10BD074810BD00BF986F02080B0000163C97020860F5900062
:4029400094420208D34D62100600520038B505460C46FFF785FE00283DD0002C3DD0FDF781FE4FF0C0621E4B1A601E4B1B7813F0FF0F04D01A4A136843F480731360184BA5
:402980004FF480725A609D60DC60174B1B6893F85320DAB11968D3F88430CA58CB58C3F30721120E531C01FB0333104901FB03F30F4A12680F49A1FB02218909B3FBF1F146
:4029C00001F56171002005F093FD38BD0021084605F08EFD38BD084838BD074838BD00BF986F02080B0000163C970208808D5B0094420208D34D621006005200002861D0AF
:402A0000F8B5054600295FD00C460B6833F0FF0303D099212D4800F04BFD236933F0FF0303D09A21294800F043FDA3685B0D5B051BB19B21254800F03BFD636823F4FF73FE
:402A400023F001031BB19C21204800F031FDE36913F0604F03D09D211C4800F029FD236A13F0604F03D09E21184800F021FD184A11688B69EB1ADB0949691B01C8182668F4
:402A80002E60166896F87D60E768AF51166896F87E602769AF51166896F87F606769AF51166896F87C60A768AF516668AE61126892F88020A669AE50E269CA50236A436001
:402AC0000020F8BD034870470248F8BD648A08103C97020801005A004FF0B0539B899BB223B14FF0B0539B899BB201E04FF48073B3F5807F15D1174A13681868D3F8981015
:402B0000435823F00F0343F00203435013681968D3F89C208B5823F00F0343F002038B50704710B40B490B681C68D3F898000A4B1B6823F440732258134343F44073235074
:402B40000B681A68D3F89C3004490968D1505DF8044B70473C97020848180016441800164FF0B0539B899BB223B14FF0B0539B899BB201E04FF48073B3F5807F15D1164A8C
:402B800013681868D3F89810435823F00F0343F00303435013681968D3F89C208B5823F00F0343F003038B50704730B40A4803681D68D3F8984009490B6823F440732A59EA
:402BC000134343F440732B5103681A68D3F89C300968D15030BC70473C970208201800164FF0B0539B899BB223B14FF0B0539B899BB201E04FF48073B3F5807F0BD10D4B09
:402C00001B681968D3F898208B5823F4E04343F4C0438B507047074B1B681868D3F89810054B1B6823F440734258134343F44073435070473C970208181800164FF0B05336
:402C40009B899BB223B14FF0B0539B899BB201E04FF48073B3F5807F0BD1114B1B681968D3F898208B5823F4E04343F480438B50704730B40A4803681D68D3F8984009491B
:402C80000B6823F440732A59134343F440732B5103681A68D3F89C300968D15030BC70473C9702084C18001608B54FF0B0539B899BB223B14FF0B0539B899BB201E04FF46D
:402CC0008073B3F5807F17D10E2000F06DFC4FF0B0535B7813F0FF0F04D04FF0B0535B78DBB200E02123222B02D818B9012008BD012008BD002008BD012008BD10B504466D
:402D0000012804D940F262710F4800F0D1FB1CB90E4B5869C00F00E000200D4B1B6893F844307BB1012C0DD1084B9B6913F0804F05D1064B9B69002B03DA012010BD01203B
:402D400010BD002010BD00BFE48A0810000026403C97020838B5154B1B6893F8443023B30D460446072804D940F2CC71104800F09FFB0E4B1B6893F8443023B10D4B9B6967
:402D800003F0070300E00023DBB29C420DD00948826922F0070104F007020A43826125B19C4202D9C82000F077FB38BD3C970208E48A08100000264010B30246C3680BB3BD
:402DC00003680BB330B40579114B03EB85035C682346002103E0934205D019465B69002BF9D1012000E0002080B124B9084B03EB85056A6000E04A6111610023536105E006
:402E000000207047002070470020704730BC7047B06F020850B310B402460479164B03EB840359680B4602E0934204D05B69002BFAD1002000E00120D0B18A420ED14B6987
:402E400033B10D4A02EB8404636000221A610FE0094B03EB84040023636009E01A69596951615A6922B11B69136101E0002070475DF8044B704700BFB06F020830B583B022
:402E800004460D46022808D9042806D0032804D040F6B211284800F00BFB6B1EDBB2012B08D9042D06D0082D04D040F6B311224800F0FEFA214800EB84004468042D12D0F4
:402EC000012D1AD111E0A3681D420AD1E3681A6800925B6801932368294668469847174B9C61646902E0002000E0002014B3144B9842E8D1012DE6D11CE0022D01D104E099
:402F00001C466369002BFBD103E00C4B9C6904B1246900200CE0A3681D4208D1E3681A6800925B68019323682946684698472469002CF0D103B030BDE48A0810B06F020896
:402F4000FF00420070B50546012804D94FF4E0711D4800F0ADFA1D4B5B682BB101210020FFF78CFF044600E000242CBB00F015FB0646164B5B681BB104210020FFF77EFF17
:402F8000134A136923F004031361012D01D030BF07E020BF0D4B1B7803B120BF01220B4B1A70304600F0FDFA084B5B684BB108210020FFF763FF04E002210020FFF75EFFEB
:402FC000044C204670BD00BFE48A0810B06F020800ED00E0FF00420008B500F0DEFA074B5A6807490A4042F468525A605A68114059605B6800F0D5FA08BD00BF000026405D
:40300000FF00FC0FF8B50546012804D940F64C21394800F04DFA4FF0B0535B7813F0FF0F04D04FF0B0535B78DBB200E021239CB24FF0B0539B899BB223B14FF0B0539F892E
:40304000BFB201E04FF480770E2000F0ADFA98B9B7F5807F12D1222C12D8284B1B6858684FF21801435823F080722B0603F0807313434350002604E0214E02E0204E00E08F
:403080001F4EB7F5807F01D1222C02D8B7F5807F2FD01A4B1B6893F83130012B04D840F2C311184800F004FA144B1B681C6AB3F8B0301C44B7F5807F02D125B1124A05E03C
:4030C0001DB1124A02E0124A00E0124A01212046FDF758FF68B9094B1B68D3F8B4301B59002BF8DBE36803F07F43B3F1204F00D100263046F8BD00BFE48A08103C970208E9
:4031000004004200248A0810010100300300000C010000300100000C70B50446022806D0052804D040F202711E4800F0C1F9FFF7BBFDA0B300F031FA0646022C07D1012050
:40314000FFF760FF054678B9FFF7C6FC0CE0164A536923F0070343F003035361342000F09BF9FFF76BFD0025ADB90F494B6923F0070204F0070313434B61022C02D1FFF7D4
:403180002FFD08E0912000F087F9FFF7E9FC0020FFF738FF0546304600F003FA00E0034D284670BDE48A08100000264003004200F8B50446012804D94FF402612A4800F003
:4031C00077F9FFF771FD00284AD000F0E6F907468CB9002147F63073244AD1504FF0B05393F84067F6B20120FFF70CFF0546D8B9FFF772FC18E01E4B19681C4A47F6307322
:40320000D1504FF0B05393F84167F6B24FF61C71535823F01F0343F00B035350032000F03BF9FFF70BFD0025B5B910494FF61C728B5823F01F0306F01F061E438E5014B977
:40324000FFF7CEFC08E0072000F026F9FFF788FC0020FFF7D7FE0546384600F0A2F900E0044D2846F8BD00BFE48A081000002640101800160300420010B5044620B940F617
:40328000A121174800F014F9164A1368DB6803F5F2431B6823601368DA6802F5F04212686260D96847F604028A58A260D96847F608028A58E260D96847F60C028A58226178
:4032C000D96847F610028A586261D96847F614028A58A261DA6847F61803D358E36110BDE48A08103C97020810B5044620B940F6C921174800F0DCF8164B1B68DA686168CD
:4033000002F5F0421160D968A06847F604028850D968E06847F608028850D968206947F60C028850D968606947F610028850D968A06947F614028850D968E06947F6180273
:403340008850DB68226803F5F2431A6010BD00BFE48A08103C97020870B50446012804D94FF426713A4800F0A3F83A4B9B682BB101210846FFF782FD054600E00025002DF0
:403380005ED100F00AF90646324B9B681BB104210120FFF773FD304B1B6893F8432042B19B68D3F8E03013F0100F02D02B48FFF763FF4FF0B0539B899BB223B14FF0B05362
:4033C0009B899BB201E04FF48073B3F5807F03D1204605F085F81AE0214A136943F004031361012C01D030BF07E020BF194B1B7803B120BF0122174B1A70174B1B681A68B0
:40340000D3F89430D35803F00303022BE4D0124B1B6893F8432042B19B68D3F8E03013F0100F02D00D48FFF75FFF304600F0B9F8084B9B684BB108210120FFF71FFD04E013
:4034400002210120FFF71AFD064D284670BD00BFE48A0810B06F02083C970208CC6F020800ED00E0FF00420010B5044605E0084B186800F089F8A4F50044B4F5004FF6D894
:40348000044B186800FB04F000F07EF810BD00BFAC420208A842020808B5034B1B7800FB03F000F071F808BDA442020801BEFEE738B50D46044C18220146204603F03CF894
:4034C000A5610020FFF7F2FFD84C0208024B1B685B6801229A6070473C970208FEE700BF08B50268254BDA6142681A6282685A62C2689A620269DA6242691A6382695A636E
:40350000C2699A631E4A916AD963D16A1964516A5964516B9964926BDA64F1EE103A13F0900F27D0026A154B1A65426A5A65826A9A65C26ADA65026B1A66426B5A66826B8B
:403540009A66C26BDA66026C1A67426C5A67826C9A67C26CDA67026DC3F88020426DC3F88420826DC3F88820C26DC3F88C20026EC3F89020FFF7B2FF08BD00BFD84C02082E
:4035800000ED00E0000000000230800803D001300238FCD100BF00BF7047EFF3108072B6704780F31088704710B50446094B1B689B6CC34013F0010F03D1BE210648FFF737
:4035C00077FF044B1B681B691034A402185900F00F0010BD3C970208248B0810014B1860704700BF3C97020838B5012902D0082942D047E0284B1B78012B45D00320FDF76C
:403600000BFE264B984241D001F03CFC01283FD0022006F0CBFE0546FFF7BFFF204B186028F0D4F80446062815D0022D09D1022014F086FF032C01D0052C0ED178B1194C6E
:4036400012E0012014F07CFF022C0AD058B9FFF779FC144C08E0002406E0124C04E0002402E0104C00E00F4C0E4B9C4211D10C4B1868FFF796FF0CE0094B1868FFF791FF42
:40368000002406E0074C04E0064C02E0054C00E0044C204638BD00BF4497020801018800EC6F0208FF00420008B50248FFF7B2FB08BD00BFD0430208B0B110B50B4A50606F
:4036C000C36A03B193600024094B1C70094B1C70094B1C60094B1C7000F09AFB084B1C70084B1C70204610BD07487047EC6F0208589702085C970208609702085D9702088C
:4037000043970208489702080100160070B59AB03E4B16AC186859689A68DB680FC44C22002103A802F0C4F9394B039316AB059342F24803ADF8183004238DF81A30354A55
:4037400052681269079240F2F67208921B22ADF82420ADF8262003228DF828208DF8293006228DF82A2010228DF82B208DF82C308DF82D207223ADF8503001238DF85430D3
:403780002548FFF719FB06F00AFE09A806F072FE0346002836D1214B04931E4B5B68996B89B10B460DF12E0220311E685D689C68D868166055609460D060103310328B4298
:4037C000F3D11B88138003A806F0FCFD0346B0B90122134B1A700023124A1370124A13700C4B5B681A6A01929B6ADB88ADF808300823ADF80A3001A80EF010FE03460021F8
:403800000A4A116018461AB070BD00BFD48C0810DD410810EC6F0208D04302086C4D0208449702084C9702084D97020860970208014B9867704700BF00F03D4008B51BF005
:4038400081FD034B1B680BB100B1984708BD00BFF86F020848B108B5B1F5FD7F07D20A46044902F01AF9002008BD03487047024808BD00BF07080016010016002DE9F04F1F
:40388000ADF5077DB1F1805F03D38D189D4CA54210D9B1F1A05F03D38D189B4CA54209D99A4CA14240F20F818D1804F20124A54200F20E81049317460E468046944B5B69FD
:4038C00013F0804F10D0924B5C6904F00704022C24D10520FFF720FC00908E4B9842F8D002940123039323E04FF61C73884AD35803F01F034FF0B05292F84027D2B2D31A34
:4039000018BF012303937BB90120FFF751FC814B9842F9D000900523029309E00294012303930023009303E00523029300230093794B009A9A4204D140F2D5117748FFF781
:40394000B7FD06F17046730A01935C0200210320FDF7DAFB0028F9D10546824683E0B44213D3BD4211D218F805200DF1180E0EF8032041B904F180521278D2B218F805E0FE
:40398000724500D00121013506E004F1805212780DF1180E0EF803200134013301E000210B46B3F5007FDAD3002959D0009B002B56D1049B002B48D14FF0C80B05955D46A3
:4039C000DDF804B00BF500294FEA49294846FEF76BFF8246013D0120FFF75EFD0AF4A403B3F5A40F01D1002DECD1059D4C4B9A4505D1FEF755FF4B4B9842FAD08246BAF165
:403A0000000F17D14FF0C80B5B46A3461C4606A94846FEF79BFF8246013C0120FFF73CFD0AF4A403B3F5A40F03D1002CEFD15C4600E05C463A4B9A4511D1FEF731FF394B9D
:403A40009842FAD0824601200AE0019B03F5002006A94002FEF7D6FE8246012000E00120019B01330193009B23B9BAF1000F01D1BD4294D308B1FFF729FD00210320FDF79D
:403A800087FB0028F9D1009B33BB214B5B6913F0804F09D0029B022B06D10220FFF73CFB00901C4B9842F8D0194B1B6813F4000F12D1039B83B90020FFF77AFB0090154B70
:403AC0009842F8D008E000230093DFF86CA003E000230093DFF860A0009B63B9124B9A450BD004339A4508D0BAF1000F01D1002004E00E4802E00E4800E00E480DF5077D9D
:403B0000BDE8F08F0000101000800014FF070016000026400400420003004200E48D08100100500002005000020052001300160012001600010016000600520048B108B5AA
:403B4000B1F5FD7F07D20A4601230449FFF796FE08BD03487047024808BD00BF070800160100160070B5C0B006460C4615464FF480720849684601F090FF05E016F8012BCD
:403B80006A401DF80250013C002CF7D1284640B070BD00BFE48C081008B50022FFF7E2FF08BD00BF002070470288AE2303FB02F3A3F26F33024AA2FB0323DB080B80704727
:403BC000CDCCCCCCB0F9002042F64B0303FB02F3044A82FB0302DB17C3EB2233C3F1BD030B807047AD8BDB680020704708B514F0EBFA08BD08B5FFF74FFC08BD084B1B6881
:403C00005B6BB3F90030002B08DB590903F01F03012202FA03F3034A42F82130704700BFF06F020800E100E00A4B1B685B6BB3F90030002B0DDB5A0903F01F03012101FAAE
:403C400003F32032044941F82230BFF34F8FBFF36F8F7047F06F020800E100E0024BD3F8000500F00300704700002640024BD3F81C05C00F704700BF0000264008B5FDF741
:403C800079FD08BD70B504460D4616460320FDF7C3FA054B984205D0324629462046FDF7B7FC70BD014870BD0101880003004A00431A002BB8BF5B4293422BD310B4194BD3
:403CC000D3F83C35C3F30903884207D9411A01EB5201B1FBF2F29A1A0FD50AE0091A01EB5201B1FBF2F21A4440F2FE318A4202D803E0002201E040F2FF320A4CD4F83C155D
:403D000021F47F7121F00301C2F309000143C4F83C1502E00023D81A7047981A5DF8044B704700BF0000264008B5034B1A684FF40041FFF7BDFF08BDE843020810B500F008
:403D400055FF0220FFF774FD0A4C23680A49586BFDF7C0F823685B6BB3F90030002B08DB590903F01F03012202FA03F3034A42F8213010BDF06F02083D38081000E100E0A0
:403D80000420704708B5FFF708FC08BD08B5FFF708FC08BD08B5FFF7D5F808BD08B50021FEF7D8FF08BD00BF704700BF704700BF00207047004870471100160000487047D5
:403DC0001100160000487047110016000048704711001600004870471100160000487047110016000048704711001600004870471100160000487047110016000048704793
