:400000000080002011000000E9050000E905000010B500F009FBC04670B512222E4B1A6001F0AAFC2D4801F02FFE012001F0C4FC302001F0BBFB2A4A2A4B1A602A4C8025B7
:40004000ED052560294A116802230B431360284A284B1A600022284B1A60284A136808218B431360FA20C00001F052FC244801F093FB244A244B1A60244B254A1A60C021DE
:400080008900244A1160244A1A60FE22120223490A602349196023490A60234A1A6080221206224B1A608022D202214B1A604322204B1A60013A204B1A60023A1F4B1A60BD
:4000C00001321F4B1A601F49082001F015FB082001F0F2FA256070BD30001040001BB7000600008004010B400C020B4078002E402D3E00007C002E4064F02E406CF02E4059
:40010000DC050000007FBB000C0301400000014043FF00800803014042FF00800003014040FF00800403014041FF008008010B4000010B4038010140300101401401014057
:4001400010010140D11A000070B572B60022454B1A6000240FE044486200131959000B00411889881A5AC31858880004104300F0FDF90134E4B2022CEDD9002411E03A4E06
:40018000A2001319590071188D8AC88A000428430A8B498B09041143802200F0EDF90134E4B2002CEBD0304920313048183000F0C3F98022D2022E4B1A602E4A2E4B1A60B9
:4001C0002E4A2F4B1A60C02292052E4B1A6099231B042D4A1360A221C9052C4A11602C4A13608421C9032B4A11602B4A13602B4A1360802212062A4B1A602A490B783C22DD
:40020000934314221343DBB20B70274A117816230B43DBB213702022244B1A60DB221204234B1A600922234B1A60234A234B1A603E23234A1360C0214903224A1160224A7E
:4002400013608022214B1A60C0221204204B1A600123204A1360204A1360FFF7DDFE00F0AFF970BD6CF02E40D8770100D879010014000B40000030EE0000024003300000D4
:40028000000102400003024000500F4008500F4010500F4018500F4020500F4030500F4038500F4001700F4000700F40000004400800044000010440460C000008010440B2
:4002C0000002044008020440180204400003044008030440000404401804044010B5064C2378002B07D1054B002B02D0044800E000BF0123237010BD6013002000000000CA
:40030000D4770100084B10B5002B03D00749084800E000BF07480368002B00D110BD064B002BFBD09847F9E70000000064130020D4770100400E002000000000D0B5002499
:400340000026002710E003F089FC03F08FFA0D4A0D4B02F0EBFB02000B003000390002F0B9F806000F000134182CECDD0022074B3000390002F0F0FE054A064B02F0D6FB35
:40038000D0BDC0460000C0FFFFFFDF4100002940E43FF4161118F73F00B585B001F09EF8434243416A46D3700332084B1B78022B0AD101A8103303810192012383800023FB
:4003C000034A002112F01AFE05B000BD582500206025002000B585B00E4B1B78022B17D101A8133303810C4B01930223838000230A4A002112F002FE094B1B68002B07D0DD
:40040000064A137850780002184301A911F082FB05B000BD58250020440E0020602500204425002070B50C00282808D002D8012805D043E041280BD04C2810D03EE00022B9
:400440001F4B1A60002000F0B3F901F0BBF835E0FFF7A2FFFFF7BEFF01F052F82EE08B89122B15D1081D2E33164A002112F0C6FD00280DD163681B7858425841C0B201F093
:4004800021F8104A137850780002184311F08EFBA389162B12D10B4D201D2A332A00002112F0ACFD63681B7801221340044A13602B7868780002184311F078FB70BDC0463B
:4004C000442500206025002010B562B600F0C0FD00F00CFE01F0B8FBFF2001F083F8FF2001F0C2FB114800F007F90024013400F0D5FB002805D100F0AFFE00F003FDFFF76B
:4005000069FF0B4B9C4206DDFFF718FF01F0C4FF084B18800024074B187801F055FB03F0C1FC032003F0B6FCE0E7C0462504000050C30000440E0020F0B50025002711E074
:40054000BB00C658F3B2FF22964308E06A008A181478A419527822700135013BDBB2002BF4D10137082FEBD9F0BDC04610B50A00002103F06BFB10BD10B503F05EFB10BDA1
:400580000C4B1B68002803D080221206134301E05B005B08074A1360074B1B68002803D080229204134301E0044A1340024A13607047C04680033A4008010B40FFFFFFFD4C
:4005C00010B50323054A1360054A13600022054B1A600120FFF7D4FF10BDC0463000304030003140000E3F4010B503F0EBFA03680C2B00D1FEE7FEE710B50300084A1068A9
:40060000C318084A9A1A802A02DC054A136005E003F0D8FA0C2303600120404210BDC046480E00201026002070B50F4E0F4D13E029686B68AC68002202E001C901C3043200
:40064000A242FAD1E868002202E0002102C304328242FAD11035013E002EE9D103F0B8FAFFF732FFFEE7C04601000000487E010010B50E4A136801218B43136000230AE0D9
:40068000032B03D89A000A49505800E009489900094A885001332F2BF2D9FFF755FD034A116801230B43136010BDC0460000104000000000E90500000000002010B500F075
:4006C0008DFA10BD10B50024064B1C70064B1C70064B1C70FFF7F2FF054B1C70054B1C7010BDC046632500205C25002062250020482500205025002010B590B00400142263
:4007000022490BA803F099FA2023214AD35C002B05D1FFF7D7FF012120231D4AD154002C30D01C4B1C6008AC05AA099206AB0893022121811931198059801739197108239B
:40074000137003F0A1FB16216944200003F086FC002818D1104B0293104B0193052300930BABD82212010E490E4803F0CDFB002809D101220C4B1A700E3217210B4812F045
:4007800025FC00E0012010B010BDC046947A01007C1300204C25002079020000008C0100C00000200D09000058250020A87A010010B502282FD81C4B1B78042B2DD11B4BF4
:4007C0001B785B072CD4002809D1194B01221A861F32596A0A805B6A10325A800CE001280AD1134B96221A86C822D200596A0A805B6A8022D2015A800E4B18700C48203014
:400800000FF0E0FF00280DD1084A117804230B43DBB2137006E0012004E00420FF3001E00420FF3010BDC04658250020632500204C0E0020622500207047C04603784078D9
:40084000000218437047C04670B5050083890F2B1FD1043031332A00002112F0CFFB041E11D16868FFF7EAFF830706D50A4B1B68290082204000984705E0074B1B68290092
:400880000620FF309847054A137801218B43137000E00024200070BD4C25002063250020024B00225A701A707047C0466025002010B582B00400FFF7C7FF0A4B1B78DB0787
:4008C0000ED4002809D001A912238B70A3890B80C870206811F0E0F802E0206811F066F902B010BD632500208379002B07D000200BE0C25C002A07D10133DBB200E000230D
:40090000052BF6D9002000E001207047F0B583B004000D009E4A117801230B43DBB21370272800D1CAE013D8062800D18AE005D8012825D0052800D180E017E1242800D178
:40094000B4E0262800D1C1E0212800D00EE18DE0422800D1F6E009D8312800D1AAE0412800D1DBE0282800D000E1ABE04C2800D1F3E0FA2800D1F4E0432800D0F6E0E4E0D3
:4009800001AE0727377000237370300005F01EFB377001237370300005F018FB03F070FA7C4B1E683000FFF79FFF00280CD0300003F07CFA774E00213068FFF73DFF306836
:4009C0000121FFF739FF2AE0734B1F78734B18788001FC263601020032403F21394011436F4B1B781B03F8225202134019436D4B1B785B04FE22120413400B436A4E33701B
:400A00001A0A72701B0CB370300003F04FFA00213000FFF711FF01213000FFF70DFF00200FF062FD0222614901A803F006F901A80FF078FD04225E4B1A7097E02A785D4B31
:400A40001A7093E02B78002B00D08FE06B78002B06D1594B0022DA809A80584A1A606B604B4A137801218B4313707FE0484B1B789B067BD4524B1B78102B02D10522504B5E
:400A8000DA70504B18784E490FF05AFE01AB1880002804D04C4B1B6801A9362098473C4A117801230B43DBB213705FE06A78474B1A705BE002223E4B1A7057E002223C4B78
:400AC0001A7053E004223A4B1A704FE0384B1B78022B4BD02E4A1278D20747D52C4A1278520708D50322324B1A70294A137804218B4313703AE0264A1278120708D504227A
:400B00002B4B1A70224A137808218B4313702DE0032B2BD10422264B1A7027E0294E02222900300003F089F80022224B1A7031789E318900264B591801310432254803F0B9
:400B40007CF813E0FFF7ACFE10E06988162900D91721288810F0AAFF08E02800FFF7A8FE04E01D4A117801230B431370084B1A7811231A4209D0064A137801218B431370D3
:400B8000114B1B6829002000984703B0F0BDC04663250020800E00207CF2FF0F7DF2FF0F7BF2FF0F78F2FF0F840E0020AC7C0100582500205C250020A0130020400E00202C
:400BC000480F0020602500204C25002050250020008C010054250020482500207047C04670B5154C2368DBB2144A13700F2083431900134D2B780F2213400B43E1329343F8
:400C00002A788243134323600E4A0F4B1A600F4A0F4B1A600F490B688343062213430B60013000F053FD0C49102000F065FD0321102000F073FD70BD00FF2840712500205B
:400C400062F2FF0F00020001080028400008A00104002840000402407D12000010B500F007FD00F0DBFC0021002000F0E3FC0021002000F009FDFF2000F0C2FC402000F0D1
:400C8000E9FC044A136804490B431360102000F013FD10BD0400284000100880024B1878012318407047C046A81300204000024B181880887047C046A8130020F8B5104F1D
:400CC0003E5C3818037A5D005D19EDB29B00DCB200F0E3FFB300FB181E6932680F21A1408A4311000422A2400A43DC6A23680721A9408B432360326000F0D3FFF8BDC046B3
:400D0000BC7C0100F8B5194A145C13181F7AB900C9B27D007D19EDB2154B185CA300D3181E6933680F228A4093433360022800D10020012801D1002600E0062600F0ADFF84
:400D4000A4000A4B1C19E16A0B680722AA4093431A003300AB4013430B6000F0A2FFA16C0B680122BA4093430B60F8BDBC7C01007C25002010B5002403E02000FFF7C2FFE4
:400D80000134042CF9D910BD044A11684002C023DB001840084310607047C04604002840CA0807231940063B8B40825C134201D0012000E00020704710B504000134E4B25B
:400DC000052C06D0210004480430FFF7E9FF0028F4D0200010BDC046500F0020F8B50400324B1B1864229B5C9B00314A9D5801003048FFF7D5FF304B9D4203D88540FF23C7
:400E00001B041D4300F034FC00F008FC2B4B185D013880B2002100F00DFC294B185D013880B2002100F030FCFF2000F0E9FB402000F010FC102000F049FC80225202214B08
:400E40001A60204B1B681B0CFBD101221E4B1A60102000F045FC102000F02EFC102000F035FC1A4801681A4B19401A4B1B5D1A4A125D120413430B430360184F3E68184B4F
:400E80001E40184B1E43102000F016FC2000FFF715FF00F002FF04003E60002000F0F4FE084B1D60200000F0FCFEF8BDBC7C0100500F002070250020FFFFFEFF842500205F
:400EC0008C2500200C002840140028400800284000FF80FF682500207425002004002840FF1FDFFF2000200010B5054B00221A70C2B29A7381221A70FFF770FF10BDC0468E
:400F0000A813002010B50C4C00232370FF33A373A07BC0B2FFF750FFA073A37BDBB2042B08D8217801230B43DBB22370A07BC0B2FFF754FF10BDC046A813002070B5050043
:400F4000184B1C68A4B24300174AD3189C80174B1B1864229B5C9B00154A9A58154B9A4208D801001448FFF71BFF6B000E4AD31804419C802800FFF7C5FE102000F0A6FB51
:400F80000E4A11680E4B0B40A02109020B4313600C4A11680C4B0B401360102000F08CFB70BDC0460C002840A8130020BC7C0100500F0020FFFFFEFF70250020040028404E
:400FC000FF1FDFFF0800284000FF80FF10B5CC0807231940063B8B40DBB2002A04D0041922781343237003E0041922789A43227010BDC04670B50600002400250BE0300049
:40100000FFF772FFFFF74AFE0128FBD03000FFF74DFE24180135002DF1D0A0B270BDC046014B19547047C0467C25002010B5002404E000212000FFF7F3FF0134042CF8D95E
:40104000FFF7CEFD0020FFF79FFEFFF793FE10BD10B50B4BDB7B002B04D1FFF7E7FF0122074BDA73FFF7FAFD00F0CEF90122044B1A74044A13688021C9030B43136010BD31
:40108000A813002004002840F0B5002714E00C4BDE5D0C4BDB5DF6181A00002404E08D5CAC4200D22C000132B242F8D301E0CC540133B342FBD301378742E8D3F0BDC046AA
:4010C0003C7D0100407D01004300054A9A5A05495A52081800210173017503495A527047AC130020BC1300209825002010B5FFF709FFFFF7D3FD0028FBD1002409E02100C8
:401100000548FFF74DFE002802D02000FFF7DCFF0134042CF3D910BD540F0020401849004018800880B27047F0B5474680B482B004003C4B1E5C3C4B9B5D019342003B4BD3
:40114000D75A3B4B5B7A002B08D03A4D9046515B3800FFF7E3FF070043465853E1B2334A354800F061FE6300344A9A5A974207D30021334B1955BD1AADB20123984603E000
:40118000D51BADB2002398464346002B15D12D4B9B5D9D4211D92A4B1B5D254A12191279934206D32000FFF78FFF0022244B1A551EE00133224A13551AE06B469B889D42F5
:4011C00006D9204B9B5D9D4212D24346002B0FD113029C46194801190B7B66463343FF18BF1A3A0A6300C2520F730022144B1A556B469E88B5420DD94346002B0AD0FF2DB1
:4012000004D90E4B1C19FF23237507E00B4B1C19257503E0094B1C190023237502B004BC9046F0BD207D0100A8250020AC1300206C0F002098250020C4250020BC13002087
:40124000B0250020AC25002010B5040000F064F82000FFF769FF10BD10B5002409E021000548FFF79DFD002802D02000FFF7ECFF0134042CF3D910BD540F002010B51020E7
:4012800000F024FA01221E4B1A601E4B1878C0B2FFF754FE1C4B1B785BB2002B05DA1A4A137801218B43137026E0164C2078C0B2FFF782FD20702378DBB2042B05D8114BED
:4012C0001878C0B2FFF78AFD16E00F4B1A7801218A431A701B785B060ED500220B4B1A7006E00B4AD15C0B4AD1540133074A1370064B1B78002BF4D0102000F0DDF910BDBB
:4013000014002840B6130020A8130020E313002064250020540F002070B582B0154B1C5C154EC1B2154D009533002200144800F0F9FD335D295D134A1155DB2B03D8DB08FB
:40134000114A135514E0EC2B03D81B090E4A13550EE0F42B03D85B090B4A135508E0F92B03D89B09084A135502E00022064B1A5502B070BD207D010094250020A82500208B
:40138000C4250020AC250020A4250020024A136840218B431360704704002840044A1168044B0B40802189000B4313607047C04608002840FFFCFFFC70B5002208E00D49CA
:4013C0008B5C5D080C4CA55401335B088B54013203789A42F3D3102000F078F9074A1168074B0B4007490B431360102000F064F970BDC046682500207425002008002840FB
:40140000FFFCFFFC0002000170B5254B05221A70012159709A702B32DA80224A9A80224A9A60FFF7B3FF002304E099001F48204A885001331A4A52789342F6D3002306E0DB
:4014400010211C4AD1540C391B4AD1540133042BF6D9FFF7A3FF194E114C3100200000F043FC174D29000120FFF70EFE200000F04CFC3100200000F037FC29000120FFF717
:4014800003FE200000F062FC2000FFF795FF002403E02000FFF740FF0134042CF9D970BDC425002098090000447D01000000FF0F500F00208C250020842500209A0D000019
:4014C0006825002004490A68D2B240239A438001184010430860704700020440024B1868800901231840704704020440034A117880235B420B43DBB21370704773000F406B
:40150000024A11787F230B401370704773000F40014B18707047C04603000F40014B18707047C04643000F40014B18707047C04623000F40014B18707047C04683000F4081
:40154000014B1878C0B2704763000F40014B1878C0B2704753000F4010B501E0FFF7F6FFFFF7EEFFC306F9D410BDC04610B513490B783F22934309221343DBB20B70104C70
:40158000227801231343DBB22370FF20FFF7C0FFFF20FFF7C3FF7F20FFF7C6FF0020FFF7C9FF00F07AFB227810231343DBB2237000F077FBFFF7D0FF10BDC04673000F40B0
:4015C00093000F4010B5064B1B78002B04D1FFF7CDFF0122024B1A70FFF788FF10BDC046E4130020044B1B68002BFBDB0002034B1843014B18607047000001404300008040
:40160000044B1B68002BFBDB0002034B1843014B186070470000014040000080034B1B68002BFBDB024A014B1A607047000001404000004010B5064A136807242340000234
:401640001843CB00FF2119400143116010BDC04600030140044B1B68002BFBDB0002034B1843014B186070470000014041000080034B1B68002BFBDB024A014B1A60704769
:40168000000001404100004010B5064A13680724234000021843CB00FF2119400143116010BDC04604030140024B1B68012018407047C0460C002E401F2318401E3B8340A3
:4016C000014A13607047C04600E100E01F2318401E3B8340014A13607047C04680E100E01F2318401E3B8340014A13607047C04680E200E001BE704770B504000D001F28D6
:4017000002D90020FFF7F6FF1034A40080239B059C4664442068256070BDC04670B504000E00032902D90020FFF7E4FF1F2C02D90020FFF7DFFF03252540ED00063500F0D8
:40174000ACFAA408A400074B9C46644421680323AB4099430B003100A9401943216000F0A0FA70BD00E400E010B5040006E0084B586800F089FA074B9C46644480231B02D3
:401780009C42F4D8024B9868604300F07DFA10BD840F00200080FFFF10B5034B1B7B584300F072FA10BDC046840F0020F0B557464E46C0B483B0040000F06FFA0190E71E94
:4017C0002D2F74D83F4B1B78DBB29C4208D83E4B1B78DBB29A463D4B1B78DBB2994631E03B4B1B78DBB29C4208D83A4B1B78DBB29A46394B1B78DBB2994623E0374B1B7834
:40180000DBB29C4208D8364B1B78DBB29A46354B1B78DBB2994615E0334B1B78DBB29C4208D8324B1B78DBB29A46314B1B78DBB2994607E02F4B1B78DBB29A462E4B1B78A7
:40184000DBB299462D4BDE5D2F2E09D92A2C07D919222B4B1A60052000F016FA192503E0274B1D683F231D40B54206D9234BDA5D234B1A60052000F007FA1F4B9C46644440
:401880002378DBB21F4A13601F4B52461A601F4B4A461A600520FFF77FFFB5420AD2174BDA5D174B1A60052000F0EEF902E00020FFF720FF019800F0F4F903B00CBC914678
:4018C0009A46F0BD40F3FF0F41F3FF0F42F3FF0F43F3FF0F44F3FF0F45F3FF0F46F3FF0F47F3FF0F48F3FF0F49F3FF0F4AF3FF0F4BF3FF0F4CF3FF0F4DF3FF0FB07D010044
:401900002CFF0B4028FF0B401CFF0B4020FF0B4010B504000F4A116801230B4313600E4A0E4B1A600E4A1368802109020B431360002809D100200CE00120FFF72DFFFFF7BD
:40194000B3FE002804D1013C002CF5D1102000E0002010BD60F02E400220000078002E4010002E40034B1868C0231B02184000D00120704700010B4010B50D4B1A6801216E
:401980008A431A601A68022082431A60094A10683024A043203C204310601068093CA043014311601A68802109060A431A6010BD00F02E4000FF2E4070B51D4B1B680124B1
:4019C0001C40002802D0012816D02BE0184B19680122914319601968022081431960154B19682E3081432038014319601968093881430A431A6018E00D4B1A6802218A431C
:401A00001A600C4A10680725A84301431160116830208143103801431160196801220A431A6002E00020FFF765FE200070BDC04600F02E4000FF2E4010B500F02EF9044AFA
:401A40001368C02109020B43136000F02AF910BD00010B4010B500F020F908490A68084B1A408024E40122430A600A6813408022120213430B6000F014F910BD00010B402A
:401A8000FF3FFFFF70B5050000F007F90400FFF769FF002803D0FFF7DDFF012100E0002108482840084A1568084B2B40184310601368012901D1FFF7BFFF200000F0F1F84A
:401AC00070BDC0460404040010020B40FBFBFBFF10B5244B1B685B0715D5234B5B685B070ED5224B596A042001401F4C62688A4362605A6A82435A629B69002B00D0984765
:401B00000420FFF7BFFF174B1B685B0518D5164B5B685B0510D5154B596A8022D2001140114842688A434260596A114A0A405A62DB69002B00D098478020C000FFF7A2FF9F
:401B4000084B1B685B030CD5074B5B685B0304D5064B1B6A002B00D098478020C002FFF791FF10BD10020B40980F0020E8130020FFFBFFFF10B500F090F80A4A117820230B
:401B80000B43DBB2137008490A7810231A43D2B20A70064A11780B43DBB2137000F081F810BDC04691000F4090000F4092000F40014B1878C0B2704760000F40014B1878C3
:401BC000C0B2704762000F40034B1B785B07FBD5024B18707047C04660000F4041000F4010B501E00A4B1B780A4B1B789B06F9D400F053F8084A117801230B43DBB21370AB
:401C0000137801218B43137000F04BF810BDC04651000F4062000F4091000F4010B50F22064B1A70FFF7DCFFFFF7C2FFFFF7C6FF0023034A1370034A137010BD81000F40FB
:401C400080000F4082000F4010B5064B1B78002B04D1FFF7E3FF0122024B1A70FFF78AFF10BDC04610140020044B1B68002BFBDB0002034B1843014B186070470000014079
:401C800042000080000000000230800803D00138FDD1C046C046C0467047EFF3108072B6704780F310887047F7B59C180023071C08268025019100922370237800982B4321
:401CC0002370BB689B6C9847019B984202D22378AB432370013E6D08002EEED12378F82B01D9F8232370F7BD70B5051C0E1C00242B789C4208D2AB68221C281C311C1B68F3
:401D0000FFF7D2FF0134F3E770BD38B5051C00242B789C4219D2AA6813681B5DDB080F2B00D90F23D16BD268C95C1155AA68042B04D9936D906B211C012203E0936D906B7D
:401D4000211C002298470134E2E738BDF0B5041C002687B063789E4262D2A3685A6C925D0392002A01D1013203921A6C925D019201992278914251D29A689B69515C0F22F2
:401D80001140B2000492002205910499019D5A50019B5B000293039B019A9B189D423DD2A768E388A0885843FB68595D00F088FA3B68595D00F0FAF9059B5843194B4000A4
:401DC0005A2802D95B084008FAE7BA6904991B0C1B045350A36882085B6B01215855A368C008DB69029F5A550F22A36849421B6A5855A3685B6A5A55A368986AC153002106
:401E0000D86AC153186B9B68C1535B19197801350A401A703B1C02330293BCE7013699E707B0F0BD0000FFFFF0B585684E002B6B925B9B191C8887B0141B0094AC6A1A8061
:401E4000A45B6B6A0294EC6A5F5CA45B2B6A03946C6B7F00645C5B180494AC680193645C1B780594009CE40FA4460F24251C6744009C3D40AC46E51764196C409C4203D28C
:401E8000012B05D0013B00E00133FF273F2B00D89F00019D2B7065460F2D29D0002D24D0BC4225D8059C029F24090094974200D9171C039D954200D2151C009A092A01D88D
:401EC000141C01343A1C0A2C14D1EA1B934206D9049A92089A42924152429B1A00E001338268D26953543A1C04E0151C644601E0151C00246746836824015B6A5F548368D8
:401F00009F6ABA53DA6A9B6895530F225B181D782A401A7083689B6859180B781C430C7007B0F0BD70B58068446BC069655C405CFF213F2801D88100C9B246B2FF24002E27
:401F400001DB4000C4B28D4201D9291C6C08012081439954049B9C5470BD00000160704701607047324B1A781202324B1B781A43314B1B781B02314909780B4330498B4264
:401F800001D1072A06D0D42109018B4206D1042A04D102E02B4B042200E02A4B2A490B602A4B1A602A4B1B781B022A4A1278134380229201934202D0002B02D002E0264B5D
:401FC00000E0254B254A1360254B1B781B02254A12781343244A934205D0244A934204D0052B05D103E0224B02E0214B00E0204B204A1360204B1B681B09204A1268AA2A7B
:4020000015D1012B13D9164B1B780E2B0FD11C4B1B781B021B4A127813431B4A13601B4B1B781B021A4A127813431A4A1360704759F1FF0F58F1FF0F5FF1FF0F5EF1FF0F0F
:40204000580B0000580D00006C002E4074002E405BF1FF0F5AF1FF0F0220000078002E405DF1FF0F5CF1FF0F0F0F000005050000050F000080002E40EC0F00F0E00F00F076
:402080006DF2FF0F6CF2FF0F84002E406FF2FF0F6EF2FF0F94002E4010B5FFF77DFB10BD10B5FFF761FB10BD10B500F04FF810BD10B500F053F810BD10B500F04FF80348B5
:4020C00000F02EF8032000F031F810BDA521000010B5024800F04AF810BDC046A521000000487047020200002B2070472B2070472B2070472B2070472B2070472B20704712
:402100002B2070472B2070472B2070472B2070472B2070477047C0460120704701207047014B18677047C0460000002010B50400FFF7B3FD044A1368C0218B43A4011C4395
:402140001460FFF7AEFD10BD0CE400E080225201014B1A607047C04600E100E080225201014B1A607047C04680E100E010B50400FFF7F4FF2000FFF7D3FF0320FFF7D6FF33
:40218000FFF7E4FF10BDC04610B5FFF786FD044A136804218B43136030BFFFF782FD10BD10ED00E010B515F001FB10BD002243088B4274D303098B425FD3030A8B4244D3E8
:4021C000030B8B4228D3030C8B420DD3FF22090212BA030C8B4202D31212090265D0030B8B4219D300E0090AC30B8B4201D3CB03C01A5241830B8B4201D38B03C01A5241B2
:40220000430B8B4201D34B03C01A5241030B8B4201D30B03C01A5241C30A8B4201D3CB02C01A5241830A8B4201D38B02C01A5241430A8B4201D34B02C01A5241030A8B4278
:4022400001D30B02C01A5241CDD2C3098B4201D3CB01C01A524183098B4201D38B01C01A524143098B4201D34B01C01A524103098B4201D30B01C01A5241C3088B4201D36D
:40228000CB00C01A524183088B4201D38B00C01A524143088B4201D34B00C01A5241411A00D20146524110467047FFE701B5002000F0F0F802BDC0460029F7D076E77047AD
:4022C00003460B437FD4002243088B4274D303098B425FD3030A8B4244D3030B8B4228D3030C8B420DD3FF22090212BA030C8B4202D31212090265D0030B8B4219D300E031
:40230000090AC30B8B4201D3CB03C01A5241830B8B4201D38B03C01A5241430B8B4201D34B03C01A5241030B8B4201D30B03C01A5241C30A8B4201D3CB02C01A5241830AAD
:402340008B4201D38B02C01A5241430A8B4201D34B02C01A5241030A8B4201D30B02C01A5241CDD2C3098B4201D3CB01C01A524183098B4201D38B01C01A524143098B426E
:4023800001D34B01C01A524103098B4201D30B01C01A5241C3088B4201D3CB00C01A524183088B4201D38B00C01A524143088B4201D34B00C01A5241411A00D201465241F7
:4023C000104670475DE0CA0F00D04942031000D34042534000229C4603098B422DD3030A8B4212D3FC22890112BA030A8B420CD3890192118B4208D3890192118B4204D3F5
:4024000089013AD0921100E08909C3098B4201D3CB01C01A524183098B4201D38B01C01A524143098B4201D34B01C01A524103098B4201D30B01C01A5241C3088B4201D3EF
:40244000CB00C01A524183088B4201D38B00C01A5241D9D243088B4201D34B00C01A5241411A00D20146634652415B10104601D34042002B00D54942704763465B1000D3C1
:40248000404201B5002000F005F802BD0029F8D016E770477047C04670B500220C4B04000D0001F059FA002804D12000290001F0A7F970BD064B00222000290000F04CFEC9
:4024C00001F09EF980231B069C466044F1E7C0460000E041F8B556465F464D464446F0B40F00FD0FAA4609037C002E005F00450F490A7F0D2943C5001803BC46400A570F0B
:40250000640DDB0F3843D2009A4500D1AAE06646A61B002E00DCFFE06346002B39D10300134300D0D9E06B0709D00F232B40042B05D02B1DAB42AD416D4249191D000B0259
:4025400000D482E0CA4B01349C4200D1FEE00A005646C84BED081A405007640552020543120B640D002112030B0D1B056405120B1A436308C04CF60714401C436400640814
:402580003443280021003CBC90469946A246AB46F8BDB74B9C42C6D080231B041843382E00DDEBE01F2E00DD1EE120239B1B9C4603006746BB40984613004746F3403B43A1
:4025C0006746BA40571EBA4113430200F240EB1A9D42B6411D008A1A7642911B0B0231D54A02560A002E00D1B4E0300001F0BEF90300083B1F2B00DDB5E020222900D21AB7
:40260000D1409E400A009D4032439C4200DDB1E01C1B631C1F2B00DDD5E0202114002800C91A8C40D8408D400443DA40681E854111002543002476E74146314300D134E2D7
:40264000310045466B0700D06FE756464807ED08C9080543864B9C4235D00A036405120B640D7FE76346E31A9B46002B00DC8BE06746002F3CD07E4FBC4200D153E7802791
:402680003F0438435B46382B00DCF7E00243501E82410020D2B253194218AB4289411D00494289180B02CDD5714B01349C4200D13DE101206F4A6B080A4028401843D50722
:4026C000054351082FE72B000B4300D1CBE180231B030B431A03120B44E7013E002E6DD1AE1AB5429B41091A5B42C91A350075E70700174300D116E701235B429C46E34446
:402700005B46002B00D0E0E0AA18AA429B4109185B4259181500C5E7002E75D1661C7605760D012E00DCF3E0AE1AB0464545BF410E1A7F42F61B370200D48FE0551BAA42D7
:40274000B641411A76428E1B9A464BE756460022002507E7280001F009F920300300083B1F2B00DC49E72A002838824000259C4200DC4DE73F49E41A1140D4E60243501E19
:402780008241D3B2002222E7002B00D0F3E0631C9C465B055B0D012B00DC9FE0344B9C4500D1C3E0AA180918AA42804140424118CD075208154349086446B4E62C4B9C4279
:4027C00000D0ECE6AFE611001F3CE1400C00202B00D17FE04021CB1A9A4015436A1E95410021254300242DE733000700203BDF403B00202E70D04027BE1BB0400243501E97
:40280000824113430022E2E6002C4FD0184CA44500D1ABE08024240476422143382E00DDDFE01F2E00DD43E12027BC1BA1460C004F46BC40A0462C004746F4403C434F46E0
:40284000BD406F1EBD41F1402C43151BAA429241411A5242891A64469A46BFE641464546314300D0BEE6002600240025F2E6C046FF070000FFFF7FFFFFFF0F801F2B59DCAB
:402880002027FF1ABC46070063469F405B46B9461700DF40B8464F4643461F4363469A40531E9A415B463A43D840F4E60C002C435CD0F643002E55D1551BAA42A441411A24
:4028C0006442091B9A46644688E6964FBC4200D0D8E628E6002280E700208FE70B002B43002C00D0C2E0002B00D101E10300134300D118E6AB18AB42B64109187642711852
:402900000A0200D409E1884A1D00114064460AE6002C5BD10E002E4300D08AE00100114300D1C2E0010015009A46FCE56446002100258FE620235B429C46DC44634607004C
:40294000DF405B46BC46202B00D1ACE040235F46DB1B98400243501E8241634613431A00002098E66F4CA44500D057E70100150064469A46D7E5002C39D10C002C436ED0ED
:40298000DB43002B1AD0674CA44568D0382B00DDA4E01F2B00DDAEE020240F00E41AA740B9462F00DF40B846A3464F46444627435C46A5406C1EA541D9403D43AD18954276
:4029C0009B4109185B42591864466BE60C002C4315D1010011437BD0010015009A46514CA1E50D43691E8D410021ECB22DE74D4CA44534D0802424045B422143C6E704003B
:402A000014434ED0ED084C072C438025C9082D03294208D0C6082E4205D1D208410711430C009A463100620FC900E50011433D4C79E50600164300D175E5AE1AB0464545AE
:402A4000BF410E1A7F42F61B370200D4F4E5551BAA42B641411A7642891B9A4663E50100150064465FE5002200257BE5002B3BD00300134315D0ED084B072B438025C908FA
:402A80002D03294207D0C4082C4204D141070B002100D2081343C9005A0F1143DD00214C41E5204C3FE5002054E700260025D1E534000F00203CE7403C00202E2BD040275D
:402AC000BE1BB1400D43691E8D4100212C43BCE6802100260903134C0025BBE50D43691E8D410021EDB269E7010015000D4C1AE50100150017E51C000F00203CE7403C001F
:402B0000202B0CD04027FB1A99400D43691E8D410021254352E70021D4E71D0092E50021F3E7C046FF070000FFFF7FFFF0B556464D4644465F46F0B41D000E034C00CB0FC4
:402B400087B0070092468146360B640D98466AD06D4B9C4235D08022430F12041343F6001E43C3009946694B00279C460023644402932B0368001B0BED0F51469B46400D20
:402B8000009500D178E0604B98426CD05B46DA004B0F802109040B4313439B465346D9005A4B9C46002360444246201A6A40924601901F430F2F00D9B0E05548BF00C0597B
:402BC0008746374300D088E0002399460233082700260293CDE74346B34649460093029B009A9246022B00D0BFE1002153460122002689461A40444B002136030C0D2405DA
:402C0000360B2643434C1B0526401E437600D207760816434846310007B03CBC90469946A246AB46F0BD330003434FD0002E00D1BCE1300000F09AFE03000B3B1C2B00DD4C
:402C4000ADE11D220100D31A08393A008F408E40DA40B9461643304B00279C46002360444442029385E753465A4613432CD1002300219B46023397E70B4320D05B46002BCF
:402C800000D19EE1584600F071FE03000B3B1C2B00DD8FE102005946083A91408B461D21CB1A5146D9400B0059460B4351469B469140194B9C4660444042002374E7002344
:402CC00000219B4601336FE703236DE70023994601330427002602934BE703230C27029347E70122D51A382D00DCB0E153461A4000210023002689467EE700238026994647
:402D000000223603004B77E7FF07000001FCFFFFE07D0100FFFF0F80F30300005E4500D972E100D16DE1019B4D46013B01930023340002935B461E020B0E1E430B020393F6
:402D4000330C994633041B0C494620000093FFF72DFA009B370043430600494620009846FFF7AAFA2C0C09040C43A04509D9E419731EA74200D95CE1A04500D859E1023ED4
:402D8000E4194346E41A49462000FFF70FFA0300009A80465343494620009B46FFF78CFA2A040904120C0A4393450DD94346D219013B974200D93AE1934500D837E102230E
:402DC0005B429C46D219E0445B46D21A4346360433439B460399180C0B0C1D00059309045B46090C0C001B041B0C4443049159436B4368431B190D0CEB189C4203D980243E
:402E00006402A44660441C0C09041B04090C20185D18824200D2DEE000D1D7E0161A029B9C465D1BAC459B415B42F61AB74200D106E149463000FFF7B9F9009B04004343CE
:402E4000494630009846FFF737FA2E0C09040E43B04509D9F619631EB74200D9F3E0B04500D8F0E0023CF6194346F31A494618000293FFF79BF9009B060043434946029854
:402E80009846FFF719FA2D0409042D0C0D43A84509D9ED19731EAF4200D9D6E0A84500D8D3E0023EED192404210043463143049E059A3000ED1A0B040C0C1B0C5843664370
:402EC000534354439A19030C9B189E4203D980225202944664441A0C00041B04000C14191B18A54250D34DD001231943964A019B94466344002B00DCF3E64A0709D00F2268
:402F00000A40042A05D00A1D8A42894149428B4411005A46D20108D55A468C4B1A4093468022D2009446019B6344894A934200DD5BE65A46C90850070843560251460122A6
:402F40005B058146360B5B0D0A4055E680231B031E4211D05A461A420ED15E461E433603360B2A0089467B4B46E6032B00D1E1E0012BBBD11A40BBE61E433603360B4246DF
:402F8000744B39E6002BB1D07D194A1EAF4252D91100A542A8D1039A9A42A5D1A6E703003E00283B9E400023994654E600F0DEFC203041E603005246283B9A4000219346AF
:402FC00077E6504600F0D2FC20305EE6029B0026AB4200D323E7039E0299B44661448846B045B6415B467642F619B218013B0291974213D290424FD800D18EE0161A9B4662
:403000000DE7894500D28EE674084B46F60735005B081D434B46DB0702938BE69742EDD10399029CA142E5D93E1A9B46F7E69846CAE61E00A5E6AC423ED874D0110053E7BB
:403040000121494252E71C000EE71E002BE71F2D3CDC20230A0058465B1B9840EA4099400243481E81415E461143EE404B0709D00F230B40042B05D00B00191D99429B4152
:403080005B42F61833023CD55346012200211A40002601238946AFE502235B429C46039CE344A446029B63449846A045B6417642F6190293B218B1E603988A1E41008142E5
:4030C000B6417642F619AD19039161E71F225242D31A5A46DA401300202D29D040225846551BA8400143481E814107200B4318400026002809D00F2200261A401900042AEB
:40310000BBD10B0070077602360BDB0803439946012253461A4000236EE502998D42BBD89B4600267BE603989842C5D3110032E70020D7E780265B4636031E433603360B5F
:40314000009A8946034B57E5FF030000FFFFFFFEFE070000FF070000F0B557464E464546E0B40E001100F20F9246C500420F180337037400400A4E0F7F0A3043CF4E17436E
:403180005A00640D520DDB0FC900B24200D1E5E001267340A61AB446534500D1AFE0002E00DC0DE1002A3AD103000B4300D0E4E06B0709D00F232B40042B05D02B1DAB42E9
:4031C000AD416D427F191D003B0200D488E0BB4B01349C4200D110E13A00B94B51461A4001235007ED08520264050543120B640D0B400021280012030D0D120B64052D057C
:4032000015436208AF4CDB072C401443640064081C4321001CBC90469946A246F0BDA74B9C42C5D080231B0418436346382B00DDFDE01F2B00DD30E1624620239B1A020098
:403240009A40664690460A009940F24046464B1E99413243114363460200DA40691A8D429B410D00BA1A5B42D71A3B0235D57A02530A98464346002B00D1C4E0404600F046
:4032800075FB0300083B1F2B00DDC5E020222900D21A4746D1409F400A009D403A439C4200DDC0E01C1B631C1F2B00DDE4E0202114002800C91AD8408C408D400443DA40E6
:4032C000681E854117002543002471E7424663461A4300D14CE2674645466B0700D069E7012351467807ED08FA080B40054373498C4238D012036405120B640D79E7002E40
:4033000000DC9AE0002A47D06C4A944200D14FE78022120410436246382A00DC08E10143481E81410022C9B24919D219A942BF410D007F42BF183A0200D442E15F4A013492
:40334000944200D14EE101205D4A69083A4028400843D507054357089A4629E706000E4300D017E714E72900114300D1F9E1802109030A431203120B3BE701235B42984669
:40338000C4446346002B72D1691A8D429B413F1A5B42FF1A0D0068E702000A4300D107E7012252429046C4446246002A00D0E6E06918A942B6413F187642F7190D00BAE71A
:4033C000002E00D080E0621C5205520D012A00DCF9E06A1A91464D45B6413A1A7642921B9046120200D499E04D1BA9428941C71B49427A1A90469A463CE7524601230025AF
:4034000013400022F5E6280000F0B0FA20300300083B1F2B00DC39E72A002838824000259C4200DC3EE7264FE41A1740C0E60143481E81410022C9B210E7002E00D0F1E00F
:40344000621C94465205520D012A00DCA0E01B4A944500D1C5E06918A94292413F185242D2194908D5070D4357086446A0E6134B9C4200D0D9E69BE611001F3CE1400C00FD
:40348000202B00D180E04021CB1A9A4015436A1E95410027254300241FE763460200203BDA406346202B71D0402366469B1B98400143481E814111430022CFE6FF07000072
:4034C000FFFF7FFFFFFF0F80002C48D0CA4CA24200D1A2E07442A1468024240427434C46382C00DDDBE01F2C00DD44E14E462024A41B3E00A640A246B0464C462E00E64005
:40350000B4464646644626435446A5406C1EA54134002C434D46EF400D1B28E04A4643464D461A4300D0A5E6002300240025DEE61F2A5ADC66462022921B0600964091460D
:40354000B04662460E00D640424616434A4691404A1E9141020060463143C240E4E63C002C435AD0F443A146002C52D14D1BA9428941C71B49427F1A14009A4675E69E4A89
:40358000944200D0C7E613E600227FE700208FE7002C00D0C8E03B002B4300D10FE103000B4300D104E66918A9429B413F185B42DF193B0200D41AE1904B0D001F40644656
:4035C000F6E59A4689E63A002A43002C5CD1002A75D102000A4300D1CAE007000D009A46E6E564460022002581E662460600203AD6406246B046202A00D1B7E040226646D4
:40360000921B904001434246481E8141114300228AE6794CA24200D061E707000D0014009A46C5E5002C41D13C002C4378D0F443A146002C20D0704CA24271D04C46382C7E
:4036400000DDB2E01F2C00DDBCE02026341BA2463C005646B4404E46A0462C00F440A446444666463443A4465446A54064466E1EB54125434C46E7406D188D4289413F1832
:403680004942CF19140056E6002A2FD102000A4300D184E007000D009A46574C88E53D436F1EBD41ECB200270D1B60E7524CA24236D0744280263604A1463743BEE7020030
:4036C0000A4300D174E56A1A90464545B6413A1A7642921B9446120200D4F7E54D1BA9428941C71B49427F1A9A4661E502000A433AD0ED087C072C438025FA082D032A4255
:4037000008D0C7082F4205D145072C003A009A46C9080C43670FD200E5001743364C47E507000D00140043E53A002A4343D002000A4319D0ED087C072C438025FA082D03B4
:403740002A4207D0C6082E4204D147073C003200C9080C43D700620FE50017439A46264C26E50022002544E5234C21E5002049E700230025BBE54C463E00203CE6404C4632
:40378000B446202C31D040244E46A61BB7403D436C1EA54164462C4300270D1BE7E6802200231203144C0025A1E53D436F1EBD410027EDB260E707000D000F4CF8E407009E
:4037C0000D00F5E44E463C00203EF440A0464C46202C0ED040244E46A41BA7403D436F1EBD4144460027254346E70027CFE70D0073E50027F2E7C046FF070000FFFF7FFF26
:403800000B0330B5134D1A0B4B005B0DC90F0024AB4211DD104CA34210DC8024640322430E4CE41A1F2C0CDD0D48C31ADA4013005C42002900D11C00200030BD094BCC1805
:40384000FAE7E040084CA44663449A4013000343EEE7C046FE0300001D0400003304000013040000FFFFFF7FEDFBFFFF70B5002830D0C317C4185C40C50F200000F076F891
:40388000174B184A1B1AD21A1F2A18DD164AD21A9440002224035B05240B5B0D0021100024030A0D1205240B1443104A1B0514401C436400ED0764082C43210070BD2100AA
:4038C00091400A000B21081AC4405B052403240B5B0DE3E70025002300240022DEE7C0461E0400003304000013040000FFFF0F808446101C62468C46191C634600E0C04629
:403900001FB500F0F5F8002801D40021C8421FBD10B500F049F84042013010BD10B500F0E7F8002801DB002010BD012010BDC04610B500F0DDF8002801DD002010BD012045
:4039400010BDC04610B500F06FF8002801DC002010BD012010BDC04610B500F065F8002801DA002010BD012010BDC0461C2101231B04984201D3000C10391B0A984201D326
:40398000000A08391B09984201D30009043902A2105C40187047C04604030202010101010000000000000000F0B55F4656464D464446F0B41F035C00DB0F9A46194B0E030C
:4039C0004D00C90F8046360B6D0D8B4691463F0B640D9D4219D0134B9C421BD00123A54206D018003CBC90469946A246AB46F0BDBE42F6D1C845F4D1D34510D0002DF0D124
:403A0000304303005A1E9341EBE7310001230143E7D1E0E73A430123002AE2D1DEE70023DFE7C046FF070000F0B55F46444656464D46F0B41F033C0B2C4F0E034D00A346D0
:403A40005C008446360B6D0DC90F9046640DDB0FBD422BD0254FBC422ED0002D0ED130430700814678427841002C17D15F463A4314D14B460020002B0AD006E0002C02D17C
:403A80005846024301D099421AD00123484218433CBC90469946A246AB46F0BD0028F2D058425841012240421043F1E737000743D0D002204042EBE75F461743CDD0F8E752
:403AC000A542E2DC05DB5E45DFD808D000205E45DED248424841012340421843D8E7C445D3D80020C445F4D3D2E7C046FF070000F0B55F464D4644465646F0B41C03240B6B
:403B0000A4462F4C0F034D005E00C90F80463F0B6D0D8B469146760DDB0FA54220D0284CA64222D0002D12D1384344424441002E20D0002C0DD05C42634101245B421C43A7
:403B400020003CBC90469946A246AB46F0BD002E17D05B4519D05B465C4201231C43EFE7390002240143EBD1D9E7614602241143E6D1D7E761460A43DBD100240028DFD06C
:403B8000E9E761460A43E4D1E5E7B54203DD01225C421443D4E7B542CDDB6745DBD809D000246745CCD259464C426141012449420C43C5E7C845CED80024C845F3D3BFE707
:403BC000FF070000014B18687047C046581300200E4B70B500251E000D4CE41AA410A54204D0AB00F35898470135F8E714F01AF9084B00251E00084CE41AA410A54204D0CC
:403C0000AB00F35898470135F8E770BD307E0100307E0100307E0100387E010030B50024A24208D0035D651C0C5DA34201D0181B02E02C00F4E7002030BD002310B59A42F7
:403C400003D0CC5CC4540133F9E710BD03008218934202D019700133FAE77047154B10B51C68A36B002B15D1182000F033F8124BA0630380114B01224380114B8380114BBC
:403C8000C380114B03810523438106338381002302614361A46B0D4A206961690C4B00F097F80122002380185941206161614800400810BD581300200E330000CDABFFFFA5
:403CC000341200006DE6FFFFECDEFFFF2D7F954C2DF4515810B5034B0100186800F004F810BDC04658130020032370B5CD1C9D43083506000C2D01D20C2501E0002D01DBB2
:403D0000A94202D90C23336048E0300000F05EF8234B1C681A002100002913D00B685B1B0DD40B2B02D90B60CC181EE08C4202D1636813601AE04B6863600C0016E00C009F
:403D40004968E9E7174C2368002B03D1300000F02BF820602900300000F026F8431C18D00323C41C9C43A0420DD12560300000F02EF8200007220B30231D9043C31A0ED0A2
:403D80005A42E2500BE0211A300000F00DF8431CEBD10C233000336000F019F8002070BD402500203C250020002370B5064C050008002360FCF720FC431C03D12368002B67
:403DC00000D02B6070BDC0460826002070477047F0B54F464646C0B41604360C9946330005042C0C070C150C63437E436F4365431C0CAD1964199C46A64203D980235B028A
:403E0000984647446346250CEF191D044B464A4343432D0C240464199918C91920000CBC90469946F0BDC046134A1088810703D08107890F401A001D11791030484381B242
:403E40005088820703D08207920F801A001D800040180A494030098980B2CA0701D0503080B2890706D504495422091F09785143081880B270470000A60F002020140020DD
:403E800010B501F063FF10BD10B502F03FF80CF091F910BD10B501F05FFF10BD10B501F071FF10BD10B500F05BFA10BD10B50749044609780220002907D1204601F0C6FF12
:403EC000002802D120460CF021FC10BD4411002070B504460120002C12D02368002B0FD0616800290CD0074D06222889208118462968FFF7A2FE6968606809780170002007
:403F000070BD000020140020FFB585B0002768460E9D07734F481C460078002802D0082009B0F0BD10990F9801900095029105A807C800F007F90028F2D16946264603ABFB
:403F400084460873002C19D0002115E08A00B75A082F09D990198078002805D0083FB7521878401C187005E0002914D00027B75290198770491CC9B2A942E7D360460028A6
:403F8000CED10F98002809D0109901F08FFA002804D00120C4E701208446EFE701F0F2FE2D480021416081600599016021888180022D07D3A1798171A17AC171A18901815E
:403FC000218A418100211EE0481C19E082008B00A75AE65ABE46BE4211D26F463E80B4461E190296B678BE7001967646E6521719029EBB78B3706646A652019EBE70401C8D
:40400000A842E3D3491CA942DED3134822460C3000906846037B0799069800F01BF90028B8D168460B4C007B60700B480C3001F0E5FE0028AED1084907480C3109F060FBA6
:404040000028A7D109F07AFB0028A3D10121217066E70000A00F002014140020F8B5054636480F460078002802D002242046F8BD002F60D000243249002D16D02A89D00766
:404080000DD02868002808D003881B3BE12B04D24088FB2801D81B2801D2012409E0900707D56868002804D1F7E70020088108604860002CDAD122482E8906811F481B21EF
:4040C000801D01804180042101711C490020891C0870F00705D019480622801D2968FFF7ACFD1749B00703D56A68144812788270124D0E46AD1D281F0D60486001F0CCFE59
:40410000284601F0BBFE308910F0B0F830890FF0A1FA28880FF0A4FA308910F011FA03461033FFF781FE1F21C018890140183880A91F88809AE7012498E70000A00F00202B
:4041400020140020FFB58446384F1C460020BB883F78054602460646002F11D100290ED0029999420BD36146002908D0002C06D00A99002906D02E4B0B99994202D20120E6
:4041800004B0F0BD002144E0AB001F19BF78002F3BD0E35A002B38D07B43591889B22B0000F04AF8050410161C253100A7782388BC46FF27233BEB37BB4222D26346032BF3
:4041C0001FD322E0A388002B1FD0302B19D31CE02389002B19D0282B13D316E0A289002A13D01346134F233BBB420AD20DE0268A002A0AD033460F4F233BBB4201D29642AC
:4042000003D901200EE0002001E000280AD16D1CEDB2099B9D42B7D31C2463435B1802998B42ACD89642AAD8AAE70000A00F002079020000BAFF000030B47446641E25786A
:40424000641CAB4200D21D46635D5B00E31830BC18470000FFB583B0002469460C801F4606468C80002806D00598002803D004983043800701D0012466E0002FFBD0344959
:40428000049809888842F6D3FDF722FFFDF710FF00F012FC002855D100F07AFD002851D12C49084601F036F905042D0C4AD12A480499066081800021C18007810C98007A6B
:4042C000C00704D0684601F076FD040007D10C98007A800703D501A801F082FD0446BF1DFEB2002C20D13146059800F05DF804001AD110F033F9040016D16A4610889288EB
:4043000008368518144AF1B29088D288AEB29319984207D3401B801A80B201F0EBFB050007D000E0FF25012400F05EFA002D04D008E0F8B200F01CF9F6E700F081FA0749F4
:404340000120087000F0CAFB204607B0F0BD0000A40F0020954400002C140020AC0F002010B503480078012801D101F065FA10BDAC0F002070B5084B0446DA889E88002059
:404380005518B54206D81D68AA182260DA885118D98070BD032070BD2C14002001480089704700002C140020F0B587B007460D4600208900009006916846FFF7DBFF844674
:4043C00000285DD1304800990160002117E02E4B88001A680629115406D22C4C0419667882185670628805E0C419203CA67A8218567022891B68C018491C4280C9B2A94200
:40440000E5D300242DE0601CC2B2059025E01E4FA30039689600581840887118039604904E88B04217D938466F46FE80B6464F786E4677710297049F4F800168039F5E1880
:40444000767879184E700168764659184E800068029F18184770521CD2B2AA42D7D30598C4B2AC42CFD36046002809D168460699FFF780FF8446002802D105490098086003
:40448000604607B0F0BD0000B00F0020587E0100B40F00207047000010B5002809D005494A68002A05D0011F08788000105801F0CFFA10BDB00F002010B50446FFF76EFF7D
:4044C000C0B2801DA0420CD307484068002808D0A100405801F02EFA002801D00470001D10BD002010BD0000B00F0020F8B516460D460446FFF752FFC0B2801DA04203D2CD
:404500000020C0430090F8BDB2B2E9B2684601F037FA0099481C03D0024AA000526811500098F8BDB00F0020F8B50746FFF736FF801DC6B20A49002005460C680DE061780F
:40454000002907D06188B94202D32078FFF7B4FF002804D1241D6D1CEDB2B542EFD3F8BDB00F002010B5002801D0FFF795FF10BD70B506460948002504680BE06178002939
:4045800005D062882078121D0023FFF7AFFF241D6D1CEDB2B542F1D370BD0000B00F0020FFB581B00A9F16000C4620D000F0F2F8054604281BD0002F0CD03846FFF7B4FF2A
:4045C00020492A0151184860002810D03A460499FFF733FB1B4928010E504618778101980570200406D47D20C000444304E0FF2005B0F0BD6404640C00F0BAF80746042844
:4046000007D000F04FFAA0420BD800F04BFA201A03E0204600F0AAFA0020F06035720020E6E700F03FFA009000F0B6FA00980121001B009000F0ECF802493A01511800983C
:40464000C860E6E738140020F8B5060116483418217A042903D0E068002802D017E00020F8BD00F01FFA054600F096FA00F0A0F804280CD001010C480F18F8680021451912
:4046800000F0C6F80020F860284600F06FFA6068054D002801D0FFF765FF042020720020A8516081E060DAE738140020FEB500266A46304601232549050169180D7A042DB3
:4046C00002D0C96800291BD000211154401CC0B20428F0D300246846005D002830D01B48210108184189476805680291002101604160042241810272C160002E02D015E056
:404700001354E3E700F054F804280ED001010F4808180190C6680021304600F079F801980021C160304600F021FA0126002D07D038460299A847002F02D03846FFF712FFBD
:40474000641CE4B2042CC6D3FEBD0000381400200EB5002005216A4600901181508103486946006810F05FFD0EBD0000B80F0020074A0020010189180B7A042B02D0C9684C
:40478000002903D0401CC0B20428F3D370470000381400200549002002015218127A042A03D0401CC0B20428F6D370473814002030B50A4B04200A4C00210A011219157A32
:4047C000042D06D0D268002A03D09A4201D808461346491CC9B20429EFD330BDFFFF0000381400207047000030B50020074C05460423020111190B72A5504D60401C4D8102
:40480000C0B2CD600428F4D330BD00003814002030B5094C00231A011219157A042D04D0D568002906D02D18D5605B1CDBB2042BF1D330BD2D1AF7E7381400200020704754
:404840001CB5002469460C70142001902346054A054810F0EDFC04480068401C00D1FF2420461CBDBD480000B80F00203EB5124A0146FF2000230124126800290DD001298F
:4048800014D0042908D104206946009308814B81104610F0C8FC80B23EBD68460093048143816946104610F0B9FCF4E768460093048143816946EBE7B80F002070B5458908
:4048C0000468416800890300FFF7B6FC08280509091E22282628002007F0BCFB1EE0022908D0C8B22A4621460EF000FE2046FFF739FE13E002202A4621460EF0F7FD294676
:40490000204600F00DF809E0002010F08BF905E02046FFF7CBFE01E0FDF7FCFB002070BD014B0022DB681847BC0F002070B5448905680089022803D0032809D0FF2070BD3C
:404940002246094C0023A46829460120A04708E0FFF7A4FA241DA2B200232946022008F082FD002070BD0000BC0F002070470000024800214160018041807047BC0F0020B9
:4049800070B50C46002186B016460391012802D0022859D116E003A9012008F0B9FD01281BD1039D324621462846FFF746F90095287801900220694608814E816846FFF7AF
:4049C000B5FF41E0214D002B686809D0049004A9022008F09DFD01281DD0022006B070BD002812D0298840182146FFF726F928880024801980B228806988091D884206D102
:404A00002C801348FFF792FF03E00320E6E788421AD96C6018E004986860E278A378110219430B4A698000231060E3565360032313815181A1788170E178C17061784170E5
:404A400021780170042028800020C7E7BC0F0020781400203EB515460C46022803D004280CD000203EBD0091019002206946088107484A81006810F0D6FB07E00EF036FD54
:404A8000044B0022DB6829462046984701203EBDB80F0020BC0F0020014AD16090607047BC0F0020034801688068081A0A214843000970478414002010B5FDF7FDFA48228C
:404AC00004490548FFF7B9F803490120C870002010BD0000747E01008818002010B5FDF7E3FA10BD70B5134C2368002B08D0207B1149C20705D04008400020738868A080FD
:404B000070BD88680B4AA18880B29268814203D90A4D691A091802E0814202D2411A5118A160A080A0689842EAD310F099FB00F013F870BD84140020C0102E40FFFF000067
:404B400010B508461946FFF7A7FF10BD704710B5FFF780FF10BD000003480021016041608160C1607047000084140020024610B5FF20002A0CD0FFF7EFFF064C0321207B96
:404B80000843207310010A21FDF796FB2060002010BD00008414002000B504480A21806848430209FFF7D8FF104600BD841400200248007B8007C00F704700008414002065
:404BC00010B54B490868002802DA4A4B01221A70022290430860484800694549C00B4031096A0246C907C90F0A4259D0012000F0E5FA3F480E216C30FDF7B2F93E48202104
:404C00008430FDF7ADF93C4814219C30FDF7A8F93948FF21C131A430FDF7A2F93648FF212F31B030FDF79CF933483449BC30FDF797F931483249AC30FDF792F930492E4809
:404C4000491CB430FDF78CF92B482E49B830FDF787F929482C49CC30FDF782F926482B490830FDF77DF924482949A830FDF778F9214828498830FDF773F91F4826498C30B8
:404C8000FDF76EF91C481921C9029030FDF768F9FDF768F9FDF724FAC0B2022812D01FE000290BD0002101420AD0114801216030FDF756F90120FDF7F3F997E70121F2E72D
:404CC000FF2010BD15491648FDF74AF914481549001DFDF745F9124800210830FDF740F954200449C043891C0870002010BD000000F02E40CC0F002000002E403203000022
:404D00002F3F00003102000010520000EC160000FA12000031D000003AE300009956000080012E40F80F000070B50646581C80B245086D00002408E0304600F0C1F81055FE
:404D4000000A1119A41C4870A4B2AC42F4D3D80705D0D0182038D15CC47FD454C17770BD30B50A4C002100195B1E07E0541864782502545C2C430480891C89B29942F5DB19
:404D8000994201D1515C018030BD000000102E4010B5FF2000F012FA0F49FF2048700E481021801D41800121417001700A490020C91C4870FFF704FF04000AD100F02EF976
:404DC00007210648FDF7CAF8044807211830FDF7C5F8204610BD0000CC0F0020CC112E4070B5002405465B1E0AE0284600F068F8010A161971702D1D1055A41CADB2A4B2AD
:404E00009C42F2DB9C4203D1284600F059F8105570BD000070B500210A4D5B1E0AE0541864782602545C344346193480001D891C80B289B29942F2DB994202D1515C40199F
:404E4000018070BD00102E40F0B50599091FCFB200217E1E0BE0541864782502545C2C43164D45192C80001D891C80B289B2B142F1DBFC0712D01C78515C24020F4A0C4395
:404E800081180C809C785D78001D210280B2294384182180001D80B2D9780CE059781A7809021143054A84182180001DD9789B78090280B2194380180180F0BD00102E4091
:404EC000014940180088704700102E4010B50B490020487000F0A2F8002000F095F9002000F082F907210648FDF738F8044807211830FDF733F8002010BD0000CF0F00204F
:404F0000CC112E4010B50C48007801280FD100F095FF00F0DDF8002804D10848016A490849000162054802213030FDF719F802490020C91E087010BDCF0F002040F02E4086
:404F400010B50B46062812D006DC01280CD0032801D1FFF7BBFF10BD0A28FCD00B28FAD105480078107010BDFFF712FF10BD1146184600F065F910BDD20F0020F8B5244DD9
:404F8000AC6A0127A007234E002816DA307806280ED1286A384328621F480069F903084381B21D481030FCF7DBFF042000F006F9174802212830FCF7D1FFE00718D000F00C
:404FC000ADFF01280FD1002000F0FAFF062000F0F5F81049FF20C91E48707078002802D1686B384368630A4801212830FCF7B6FFE0050BD53078042802D1052000F0DEF812
:405000000348FF2101312830FCF7A8FFF8BD000040F02E40CF0F002000002E4010B503212348FCF79DFF0120FDF736F820483038406A204C80076178800F890001431C48F6
:405040000C38FCF78DFF6078002808D0401E022181401820FDF71AFAC000083800E0B82081B21548FCF77CFF1348032109021438FCF776FF10481149B830FCF771FF6121A0
:4050800089010F48FCF76CFF0D480321001FFCF767FF0C490C48FCF763FF0B480B496038FCF75EFF084801218838FCF759FF10BD70F02E40D20F0020D8102E4090890000AB
:4050C000041E2E40FF0F000058122E4020900000044800684007400F022801D0002070470120704700010B4000B5FFF7F1FF002805D009480168C908C900016000BD0748F1
:40510000016A490849000162054801690122D2039143016100BD000000010B4040F02E4000002E400849087806280BD148780749002803D1486B400840004863C86A0122EB
:405140001043C86270470000CF0F002040F02E400148007870470000CF0F002000B50300FFF76AF8080D050D0B070507090D012000BD032000BD042000BD022000BDFF20E1
:4051800000BD0000074A9168D26889B2064B92B2994204D105498A4201D1012100E000210170704780002E4033D000003FE300000149487070470000CF0F002010B504461E
:4051C000FCF776FF072C01D9FF2C01D102480470FCF76AFF10BD0000CF0F00200149487070470000CC0F002010B5064A012805D01921C9021046FCF7B3FE10BD1D21C902BC
:40520000F8E7000090002E4010B50A4A141D012808D009491046FCF7A3FE08492046FCF79FFE10BD04491046891CFCF799FE0349491DF3E788002E4031D000003AE3000084
:4052400070B50C460546FCF74BFFC0B202280E49287804D0FF2810D04C280CD810E0FF2809D10A4AD0680004800F032801D0087807E09069000A553803E00878207070BD46
:405280004F382070087070BDCE0F002000002E40F0B50122002834D0002932D00424420600D00524792342065B06D21800D0641C034600221EE00C2516466E43124D002793
:4052C0007519AF72104F002ABB51696007D0661EB24209D10D4E86197606760E05E05E06760E8027BE1B00E080269B198919521C2E81D2B2A242DED303480549006B0022F9
:4053000088611046F0BD00001017002079020000D80F002018B50020694608700A48006900280ED0132149014018047E684604704F21C900054800F059F8A04201D00120CE
:4053400018BD002018BD0000D80F002094140020074900200C2242435218927A012A05D0401CC0B20628F5D3002070470120704710170020F8B50E000446154609D0194FA0
:4053800019497868A04202D94018A04201D38D4201D90120F8BD31462046FEF73FFC00281ED02A4631462046FEF747FCE8B200210C224A43D21913895568EE18A6420BD92D
:4053C0000126641B1B1B9672834209DA1469C01A044AC0B220329676491CC9B20629E7D30020F8BD1017002079020000034610B50020024604E09C5C2018521CC0B292B29E
:405400008A42F8D310BD000070B500F05FF8084C064A216907480D46FEF70FFC05492846FFF736FFFFF776FF207070BD79020000D80F002094140020002070470020054A2D
:40544000002902D0012902D002E0906000E0D06000207047D80F002070B5084C154608460549E26889182A46FEF7E7FBE0684019E06028B270BD000094140020D80F00201C
:405480003EB50A226946FFF7E7FF044606480A2200686946FEF7C2FB002802D00020C0433EBD20463EBD0000DC0F0020002802D0044A914201D2FF20704703494A6108610D
:4054C0000020704779020000D80F0020024800218160C16070470000D80F002070B5074C15460548A26880182A46FFF743FFA0684019A06028B270BD94140020D80F002087
:4055000010B503490A220968FFF7E8FF10BD0000DC0F002010B50F4A002313600E4A13600E4B18600E4801600E49012008600E490860000290600E490C4808600D491430C3
:405540000860FF381538506000F0BCF800F0CAF9002010BD0C100020F40F002020100020241000201010002000100020581800200410002018100020014610B50020002977
:4055800010D0094B1A689C685118A14209D25868196080188A0704D08A07920F891A091D196010BD002010BDF40F0020F8B50024164E671E321F3D463168136806E01422C5
:4055C000624310328A58521C1BD0641C9C42F6D36A1C14D02C461422544322460C3288500C214843FFF7C8FF3168002808510AD031680020103408517068401C706028460A
:40560000F8BD2546E4E73846F8BD000004100020F3B50026F64381B000281BDB1E490968884217D80299002914D01B4F142204463F1D54432546396810354859401C09D085
:40564000FCF736FD38682F1F4159C359994203DBFCF72AFD3046FEBD214608310091465801590C20704308180C220299FEF7E5FA0948761C001D0068C159B14200D100262B
:405680000549009A091D865008684159491C4151FCF70AFD0020FEBD00100020002803DB07490968884202D90020C043704704491422091D096850431030085870470000B6
:4056C00000100020F0B500200D4A451E0346171F50600FE014260146714314680E1DA3510C461668083433511668083435511468401C635039688842ECD30020F0BD0000BB
:4057000004100020F3B50026F64381B0002841DB2349096888423DD8029900293AD0204F142204463F1D54432546396810354859401C2FD0FCF7BCFC3868415900292BD0F7
:40574000211D009146580C21005971430F46C1190C220298FEF771FA11480021001D0068761C00590C34C0190160416081600C48001D00680159B14200D100260849009A3D
:40578000091D865008684159491E4151FCF78CFC0020FEBD3046FEBDFCF786FCFAE7000000100020FEB504460D4600201E49089E0860471E009001900290002C11D0486823
:4057C00085420ED2002A0CD0002E0AD0642E08D808460C3001681C2068430C18207A002801D03846FEBD0120226020721846FFF7DDFE6060401C13D06681A6810A4827616D
:405800000C3067610179A94200D205710021684601810A462846029B00F040F82846FEBD00202072DDE700000C10002038B50124009400F039F838BDFEB50027164EFF43CC
:405840003D4600240EE01C20316860430818017A002906D04068FFF721FF002801D0254603E0641C3079A042EDDA681C12D01C2130684D434419FCF71BFC69466068FFF70B
:4058800041FF0546FCF710FC002DD9D1216868468847D5E7FEBD00001810002038B50024009400F001F838BD1FB500220C49541E0A60002811DB496888420ED808491C2214
:4058C0000C31096850430818406801A9FFF7A0FE401C02D0002004B010BD2046FBE700000C100020F0B50021114A4D1E174611710C3F0B46BD6016E008461C246043166845
:40590000041D355114680646235014680836A3551468361DA353044616680A34335318301468491C255078688142E5D30020F0BD1810002038B500210091002811DB0F4969
:40594000097888420DDA0D4D04010C3529680859002807D0201D0818694600F06FF9002801D0002038BDFCF7A3FB28680F34015D491E0155FCF798FB009838BD2810002008
:40598000F7B582B0002502986E1E06602E48D21C024017462D4A2C4610460C380178106805E02301C358002B0FD0641CE4B28C42F7D3711C28D03401211D40180191039987
:4059C00000F02AF900281FD101E02646F1E71F48016820460C300F521C480399026820460E30115419480399026820460F3011540398784300F0A0F8144900280968085173
:405A000002D00024009011E001251AE00F48016801980818009900F02CF9002801D0012502E00098C0190090641CE4B203988442ECD3002D05D10298066004480179491C42
:405A40000171284605B0F0BDFCFF000034100020F8B50D4600216A468C461180002839DB23490978884235DA214B04010C3319680A59002A2ED020460C300B5A801C0E5C86
:405A8000184670438018954224D3854222D2002006E007465F43BF18AF4206D0401CC0B2B042F6D36046002814D0114E271DC8190C366A46294600F006F900280AD1684661
:405AC0000088012808D030682946C01900F0D1F8002803D00120F8BD0020F8BDFCF7E8FA30680F34015D491C0155FCF7DDFAF3E728100020F8B50F46002400F031F80028B2
:405B000017D10C4900220B460C334A600EE021011D680E466A501D680C36AA53B61C1D680F31AA551D68641C6A54E4B2BC42EED31A71F8BD2810002000280BD0C01C074AEF
:405B400081085068890053884118994203D8936851601818704700207047000028100020F8B5064600200F4D009029700C0121466846FEF7FFFB00280CD129460C310098B7
:405B80000860301B001F84B221466846FEF7F2FB002801D0FF20F8BD6C800098A8600020F8BD000028100020F8B5002827DB19490978884223DA174C05010C34216848590C
:405BC00000281CD028460C30085A009028460E300E5C401C0E5420682F1DC01900F064F800280CD12068002445590EE0094829460C300068C01900F03CF8002801D0012070
:405C0000F8BD00982D18641CE4B2B442EED30020F8BD00002810002030B50D4604000BD0A800FFF789FF6060002805D000202570C0436080002030BD012030BD70B50D46B3
:405C4000040005D0002D03D00220205E002801DA012070BDFCF72CFA0221615E60688900405828606088401E6080FCF71DFA002070BD70B50D46040007D0002D05D00221F9
:405C80002078615E401E814201DB012070BDFCF70FFA6088401C00B26080616880000D50FCF702FA002070BD10B5040009D0227800216068FDF7CAFF0020C0436080002089
:405CC00010BD012010BDF0B500231D46002802D00224045F0AE00120F0BD46689F00F6598E4201D1012503E05B1CDBB29C42F4DA15700020F0BD00000148007870470000C2
:405D00003C1000207CB505460024FEF7C7F8A8796946087000A8062229460130FDF78DFF0021684606F080FC0C2806D0072806D01F2806D0122806D006E0022404E00424D6
:405D400002E0272400E0012420467CBD01480121417270479019002010B502280BD0032802D0042809D102E000F0B8F905E000F063FAFF2801D100F073FAFFF7E9F9FFF70E
:405D8000EDF910BD10B500F09BFAFFF7E1F9FFF7E5F910BD70B504460025FEF77FF8002C06D0A079012803D8214602F087FE00E00125284670BD01460120002902D0502004
:405DC000088000207047000001460120002903D00248007808700020704700003E10002001460120002905D0034854220078504308800020704700003E10002010B5024655
:405E00000D49FE204870032410460FF02FFD002810D10FF0D3FC00280CD107F0D5FB002808D100F05DFC002804D106F0A3FE002800D10024204610BD3C10002002480021E6
:405E4000018280210180704700102E4070B50025044600280ED0A07901280BD8FEF71EF8A0790028204602D003F07AFA03E003F04FFA00E00125284670BD0000014610B5D2
:405E80000120002904D006220248FDF7D6FE002010BD00004810002001460120002903D00878024908700020704700003E100020F0B589B015460F4606460124FDF7EEFF59
:405EC000002E20D0002F1ED0002D1CD0102239466846FDF7B2FE1022314604A8FDF7ADFE102168460FF0E4FB102104A80FF0E0FB2B46102204A9684604F008FB102128464F
:405F00000FF0D6FB0024204609B0F0BD10B506F007FB04F0EDFC07F09FF910BD0148007A704700009019002038B504460120002C20D0617801291DD800290BD0FF25E535BA
:405F4000FDF7ACFF0C4828180088C0B22070072803D00EE0FF25CD35F2E70020694608706846FFF70FF969460878012801D108202070002038BD000000102E40014A0021A1
:405F8000926810473C10002008B500226B461A7026280CD0094A342852680BD0352805D1900703D50021352007F0EAFB08BD19462620F9E7D007F9D03420F5E73C10002022
:405FC000014908727047000090190020F8B504460120002C26D06178012902D92278092A20D8002905D0FF25E5352078092803D004E0FF25CD35F8E708202070FDF74EFFC6
:406000002078114F114E08280DD00020FFF7FCF870780128207810D00D4969180880FE2070700020F8BD0120FFF7EEF80720B8810549203188800120F2E7B881024821781D
:4060400020308180EBE70000C0112E403C10002000102E4070B50E46050001D0002400E00C4C002C11D0E28A500609D5D107C90F022003F07BFAE08A40218843E08204E066
:40608000D107C90F012003F071FA3146284602F0D7FE70BDF0180020F8B50546002004460D4E009013E022466946284601F00AF90098002801D00FF0BBFBA878214602F038
:4060C00011FCA878214602F0FFFB641CE4B2308AA042E8D8F8BD0000BC190020F8B54E4CFFF736F8012847D14C480078002843D002F02EFE00283FD005F014FF00283BD081
:40610000474E7078C00703D000F028FD012833D0307E00287DD17078002500285BD0000706D540488089070B00F02EF9384370D13B484178684604F027FA21793A4CA278F2
:406140008918C9B2814262D802F002FE002860D0344860300789324E203602F0B3FB6846008802F0EFFB02F0A3FC30490988884203D10120FFF722F84BE02D4901200870F4
:406180002748807B00281DD0002F1BD04036F07E002817D123486030008821494000C031498981420AD26078002807D103F01CFA2049088A03221202104308822078002811
:4061C00000D0257002F002FC0120FEF7F1FF00F025FC174C15E002F0BBFD002819D0102402F066FC214602F025FB02F0ABFB104C0120207002F0EAFB0020FEF7D9FF00F0C6
:406200000DFC20780128B4D1FEF76EFF25700020F8BDFF20F8BD0000C8180020CC0F0020D0180020A0102E4062100020741000204E100020E0112E4010B50848FF2440784B
:40624000002809D102F084FD012805D1FEF75AFE0720FEF7B3FF0024204610BDD018002038B5FEF775FF012801D0002038BD02F06FFD00280AD0114C6078C00703D000F0AC
:406280006DFC012802D0207E002801D0FF2038BD617800290FD0684604F076F9022806D96846008802F04EFB012002F099FB0320FEF784FFD9E70020F7E70000D01800205B
:4062C00038B51E4CFEF744FF042813D0052811D0062812D003282AD007280AD100206946087002460120FEF72BFEFEF731FF0128FBD138BD00F0B2FB38BD02F089FB00F0DE
:40630000ADFB02F00FFC8007800F0228F4D10C4841880029F0D05B21095D0029ECD101210170A07D0140022003F020F938BD02F073FB0120FEF742FF38BD0000F0180020FD
:4063400062100020F8B50646002403F08DF90546304603F0A3F903460A480021068A0DE001228A401046174628401F40002803D0002F01D1224394B2491CC9B28E42EFD8E7
:406380002046F8BDBC19002070B500252C460A4E03E0002C01D0002000E030460079002803D02046FFF7CEFF0543641C2406240EEFD0284670BD0000F01800201CB500202F
:4063C000694648706846FFF7AFFD01AA69460A20FEF7B6FD6946042008561CBD70B50D4601F056FB04000BD02079002808D0FDF755FDE178A0782A4602F0A8FD002070BD73
:40640000022070BD0148007870470000C81800204030C07E002800D00120704700B500F001F800BD902148430749084A40186030417F491CC9B24177D289914201D300217B
:406440004177C8B270470000D0180020BC19002013B501F01DFB04000BD001F0BAFE002807D0214601AA0A310620FEF769FD00201CBD02201CBD000010B50C4601F008FB11
:4064800000280AD001F0A5FE002806D0224604490A20FEF755FD002010BD022010BD0000B1180020F3B581B0074601460026029803F0D2F80446002F01D0002500E0154DC2
:4064C000002D21D0284601F019FB032C04D13946029803F01DF906463846029902F0F4F9032C06D0002C10D00121384601F00CFC03E03146384603F011FB284602F09AF82E
:406500000221284602F0B0F8FEBD3846029902F0DBF9FEBDF018002010B5044600F066FA002804D103F0C4FF002801D00C2010BD2078611C02F01CFEFF2801D01F2010BD8A
:4065400002F062FEFF280AD02178621C02F044F9044821780068026B601C904710BD072010BD00008810002010B503F0A1FF002801D00C2010BD02F0DDFD03480068C06A09
:406580008047002010BD00008810002070B50D46044610210FF08CF81021601806460FF087F8334610221946204603F0AFFF102130460FF07DF802202870204606F010FA3A
:4065C00070BD0000F8B504464078217802028006870FE0781143A67809050002090D0643084601F055FA00210546F2B2002812D0002C10D0022F0ED0032F0CD0002A0AD0F8
:406600000279092A07D0002A05D0134A5A23527E1B5C9A4207D82889002106F016F920460FF006F9FF21002914D10C48224600682946436930469847C0B2FF280AD128461B
:406640004030817EF2B2491C8176FF232146284600F0E3F8F8BD000088180020A41000200020704710B5044603F022FF002801D00C2010BD2078611C02F07AFDFF2808D037
:4066800002F0B2FC044821780068426B601C904710BD1F2010BD00008810002010B500F06BF906F067FA002010BD10B5044600786178E2780843A17811430843217908435D
:4066C0006179084305D003F0E5FE002803D00C2010BD122010BD204602F042FE002010BD10B5FBF7FDFC02F0E1FF044804F044F802F084FC012000F003F810BD9818002039
:40670000F1B586B003A8009005A8019028489F22817A114081726846FDF7DAFB002845D169460989C90705D0224806990068C2686846904769460989890706D5002835D1FF
:406740001D480068816A0698884700282ED11B4E0025757075737571F575357675767575B570F570B5713746F5730120D03738731F20F880FF2130467972A0300176457600
:4067800000F0E8FA00242046069901F0CDFC002803D1641C2406240EF5D0FD720749BD72B573C0310D704D704D600D7207B0F0BD88180020A410002088100020D018002062
:4067C00070B505460E46084602F04EFF0446304602F064FF0121A9400A46224001400A4301D0012070BD002070BD10B50446084602F054FF0121A140014201D0012010BDD5
:40680000002010BD10B5FEF7A3FC032804D102F003F90120FEF7D2FC10BDFEB51C4616460F46054601F006FFA878FFF7F7FD02460190334639460094284600F00DF8002872
:4068400008D1A8780199FFF705FCFF2C02D138460EF0EEFFFEBD0000FFB585B005460E980C46FF2810D02B49C00009680A5840180179C0795278814201D9012601E0900622
:40688000860F6846038108E06078A1788006860FE0780002014368460181284601F0A4FC070007D021462846079A00F09FFC384609B0F0BD304600F04DFD04AE034603904F
:4068C00002AA29460096204600F0D9FB3C20405D002818D0284601F087FC012813D0684600890096C0B20190A878231DFF22079902F05AFA68460089039BC2B2A878079986
:4069000002F0FCFDD3E7684600890021C0B20091E9E70000A0100020F8B5002600253046FFF710FD07001DD090201149704340186030447F12E0601CFBF7BEFCCCB23846D4
:40694000E040C007C00F07D02146304601F0B2FF21463046FFF7A6FD6D1CEDB20548018AA942E8D8761C3606360ED7D0F8BD0000D0180020BC19002010B502F03FFB00206E
:40698000FFF7BEFE0EF0EAFF002010BDF8B5002400F0DEF80123012800D10124104F00203E4620360425082203E0002801D0002100E031460979002907D001290BD00229C5
:4069C0000BD0114681402143CCB2401C0006000EEBD07C70F8BD1C43F7E72C43F5E70000D018002010B5FFF7D1FF10BD10B5044606F01DFA002802D1601C00F001F810BDC5
:406A00001CB500240094062269460194FDF706F9002800D1122420461CBD000070B50E4CFBF73BF90546FEF793FB062802D02078012803D02846FBF734F970BDFBF7A4FBAE
:406A40002846FBF72EF9FEF783FB0628F5D020780028E5D170BD00004E10002010B5FBF71CF90446FEF774FB012809D0FEF770FB022805D0FBF788FB2046FBF712F9EEE780
:406A80002046FBF70EF910BD10B50B4681791943817103D08078114602F0CCFC10BD10B582798A43827102D1807802F0D7FC10BD30B50C4C0220A28A0B4B9978002901D0DA
:406AC000022906D11D785B78EB18282B01D9032002E0032900D101205105490DC0020143A18230BDC0112E405810002000B500F035F8002807D0012805D0032801D0042859
:406B000001D0002000BD012000BD000002460448018B0020C908114200D001207047000000102E40014600B50020C90701D000F00FF800BD014600B50020C90701D000F021
:406B400007F800BD01480068704700005010002001480088000A704720102E400448008B410501D5042070474007800F7047000000102E4001484068704700005010002040
:406B800038B50446000610D5FFF7E8FF01280CD1684601F05BFF6846007800F02BFB012001F0B0FD0220FFF71DFF600708D507480179012904D1002101712620FFF7E4F9F0
:406BC0000348006801692046884738BD5C1000208810002010B501460A4A007800241070FFF7B6FF0128084603D002F025FB204610BD00F0E7F80400F9D1034801210170D9
:406C0000F5E70000581000209019002070B50446FFF79EFF002801D00C2070BDA27B01211F48002A827801D00A4301E05208520082706279012A14D0C17849084900C1707E
:406C4000184D2868016820468847207901280CD06188208803F0DEF92080207904280FD015E0C2780A43C270EAE72868C168E01D8847E01D02F060FB0B48808C208006E011
:406C80002868C168E01D8847E01D02F055FB074920798870204602F0DDFA002070BD0000D018002088100020881800205810002008B50178FFF74CFF814201D10C2008BDAE
:406CC000002914D0072069460870FFF70FFF012807D10121684600F0E5F8012801D0092008BDFFF7E5FE02F0E9FA012011E0FFF7FDFE012806D1684601F0A8FE6846007893
:406D000000F0ACFA02F0D0FAFFF722FF0028FBD10220FFF767FE002008BD000010B501460A4A007800245070FFF712FF0128084603D002F05FFB204610BD00F065F80400B7
:406D4000F9D1034801214170F5E70000581000209019002038B568460EF000FD002801D01F2038BD01210098C90201804180002505714571857107214173857302F06AFA03
:406D8000009C202200212046FCF760FF25702A460021601CFCF75AFF204602F04DFA204602F028FB00980EF043FD062200210448FCF74CFF02480C388560002038BD0000E3
:406DC0005C100020F8B5044600250D4800950078012806D068460EF0C1FC002803D007250CE00C250AE0074E009830602278611C401CFCF722FF3168207808702846F8BD23
:406E00009019002050100020F8B5044600250D4800954078012806D068460EF09FFC002803D007250CE00C250AE0074E009870602278611C401CFCF700FF716820780870CC
:406E40002846F8BD90190020501000200346084800B5834209D8184600F01AFE002804D00089984201D1012000BD002000BD0000FF0E0000074A9179491C8906890E91716B
:406E800038220A4092014907090E11430843024908407047D0180020FF0E0000C006C00E70470000F8B507460E4600240D4803E0002C01D0002500E005462979002905D054
:406EC000641C2406240EF3D00020F8BD0021204601F02AF92E712046FFF7CCFF28813C700120F8BDF018002010B503F043FB0222002100F003F802F01DF810BD10B5094B57
:406F000040074907000F090F185A595A40185043C0086421FBF7D0F9002800D1012080B210BD0000BC7E0100F7B53D20405C88B015460C46002802D02878042802D20020E3
:406F40000BB0F0BD6946087200262046FFF760FA012800D00126204603A938300191009023460327A17E34333246206A03F01EFC02A8089900900B46019120463A4603A970
:406F8000243003F0A3FA02466846007A2870204601F0B6F81046D3E7FFB587B00C4605461078694608723D20005D1746002826D000262046FFF72CFA012800D00126204634
:406FC00003A93830019100902346A17E34333246206A03F0EBFB02A80090291D019120462B1D03A924300A9A03F070FA02006846007A388002D1204601F082F810460BB039
:40700000F0BDF0B505463C20405C89B016460C4600280CD0307869460873002806D000272046FFF7F5F9012803D003E01F2009B0F0BD012703200890204604A9383001911B
:4070400000902346E17E34333A46E06903F0AEFB6846007B03A928180290009120462B46019504A92430089A03F064FA02466846007B3070204601F04DF81046D7E7FFB5DE
:4070800005463C20405C89B016460C46002810D0084601F0A9F801280BD0308869468883002809D000272046FFF7B2F9012805D005E000200DB0F0BD0220FBE7012720461A
:4070C00003A93830019100902346E17E34333A46E06903F06BFB291D2B1D07A8129A6D4607C5204603A924300C9A03F023FA02466846808B3080204601F00CF81046D9E763
:4071000070B50D460446FFF783F901280AD0E87AA97A00020143A07801F0F8FD012808D0002070BD00222421204602F0C5FE242070BD28214C200155204600F0B1FB2820B9
:4071400070BD0000002801D0002000E003484030C07F012800D0002070470000F01800200146002049070ED50021084B03E0002901D0002200E01A461279022A04D0491CBA
:407180000906090EF3D0704701207047F01800200146002049070ED50021084B03E0002901D0002200E01A461279022A04D0491C0906090EF3D0704701207047F018002052
:4071C00010B5044680346068002803D00EF044FB0020606010BD4030417070474030817070474030017070470171704792001018C166704770B53C2501F09CF9040004D0F2
:4072000020460021433001F0BBFCFF222946204600F0E8FB002C02D0A07801F00DF970BD10B5002801D0002000E00348002802D0008905F051FB10BDF018002010B50028FA
